:04000000F7EF2AF0FC
:0800080000C504F501C505F572
:1000100002C506F5076A03C508F50001F5C409F530
:10002000F6C40AF5F7C40BF5F8C40CF59EAE1CEF48
:1000300000F0AEBEF0EF08F0A5A422EF00F0B5B4DA
:1000400013EF05F0A6A028EF00F0B6B021EF02F004
:10005000A6A22EEF00F0B6B242EF02F0ADA634EF4A
:1000600000F0BDB624EF03F009C5F5F40AC5F6F4B7
:100070000BC5F7F40CC5F8F404C500F505C501F58A
:1000800006C502F5078E08C503F51100F76AA00F33
:10009000F66E000EF722000EF86E0900F550120001
:1000A00024505354524C4F414445522A313400009D
:1000B000F76AC40FF66E000EF722000EF86E090004
:1000C000F550120042524F574E4F55545F52455310
:1000D000544152540000F76AEA0FF66E000EF72200
:1000E000000EF86E0900F5501200434F4E46494786
:1000F0005F434F5252555054494F4E00F76A100F0C
:10010000F66E010EF722000EF86E0900F55012008F
:10011000494E544552525550545F46524F4D5F53CD
:100120004C4545500000F76A3A0FF66E010EF72273
:10013000000EF86E0900F55012004D434C525F4618
:10014000524F4D5F52554E00F76A5C0FF66E010E2E
:10015000F722000EF86E0900F55012004D434C5284
:100160005F46524F4D5F534C45455000F76A800F34
:10017000F66E010EF722000EF86E0900F55012001F
:100180004D454D4F52595F56494F4C4154494F4E82
:100190000000F76AA60FF66E010EF722000EF86E49
:1001A0000900F55012004E4F524D414C5F504F57D1
:1001B00045525F555000F76ACA0FF66E010EF722DE
:1001C000000EF86E0900F550120052455345545F79
:1001D000494E535452554354494F4E00F76AF00F5D
:1001E000F66E010EF722000EF86E0900F5501200AF
:0E01F000524553544152545F4E4F4E4500004D
:10020000524F564D55582041435377697463685097
:1002100049432056312E3920323032362D30332D9D
:1002200032332031313A33323A333720436F7079E9
:10023000726967687428432932303235205354522A
:100240000000F76A560FF66E020EF722000EF86EE7
:100250000900F5501200535441434B5F4F5645522D
:10026000464C4F570000F76A7A0FF66E020EF722DF
:10027000000EF86E0900F5501200535441434B5FD5
:10028000554E444552464C4F5700F76A9E0FF66E46
:10029000020EF722000EF86E0900F55012005744C6
:1002A000545F46524F4D5F534C4545500000F76A2E
:1002B000C20FF66E020EF722000EF86E0900F5501E
:1002C00012005744545F54494D454F555400F76A46
:1002D000E20FF66E020EF722000EF86E0900F550DE
:1002E00012005744545F57494E444F575F56494F89
:1002F0004C4154494F4E0000F76A0C0FF66E030E46
:10030000F722000EF86E0900F5501200556E6B6E64
:100310006F776E202400F76A2A0FF66E030EF7221D
:10032000000EF86E0900F55012001011121314158A
:10033000161718191A1B1C1D1E1F202122232425E5
:1003400026274C4D4E4F50515253545556575859DD
:100350005A5B5C5D5E5F6062636465666768696A7C
:100360006B6C6D6E6F7071727374F76A7E0FF66EE0
:10037000030EF722000EF86E0900F55012004143FB
:100380005377697463680000F76A9C0FF66E030E7A
:10039000F722000EF86E0900F550120045617274E4
:1003A000684C65616B6167650000F76ABE0FF66EA9
:1003B000030EF722000EF86E0900F55012004443B8
:1003C00053776974636832345600F76ADE0FF66E4D
:1003D000030EF722000EF86E0900F5501200444398
:1003E0005377697463683438564C5000F76A000FCD
:1003F000F66E040EF722000EF86E0900F55012009A
:100400004443537769746368343856485000F76A38
:10041000220FF66E040EF722000EF86E0900F5505A
:100420001200496E76616C696400F76A3E0FF66EE1
:10043000040EF722000EF86E0900F5501200535416
:1004400052000A0EEA6E280EE96E1E50E926000ED2
:10045000EA220201C5C220F5B4C2EFF420A204D002
:10046000BE99C383C593BE891E2A630ED8801E54CD
:1004700001E21E6A1F501E5C01E12282B69000015B
:1004800034EF00F000012650245C05E12550235C88
:1004900002E1A69216D00A0EEA6E8C0EE96E255085
:1004A000E9262650EA22EFC4B6F2252AD8B4262A35
:1004B0002650010804E305E125508F0802E2266A70
:1004C000256AB69234EF00F07072743D2425303204
:1004D000580A00002A204D6F64756C655479706568
:1004E0003A2025730A002A20616320202020202042
:1004F0002020476574204143537769746368206303
:100500006F6E6669670A00002A206462675B3D3C83
:100510006D3E5D204765742F736574206465627558
:1005200067206D61736B2C20696E206865780A0006
:100530002A2068616C7420202020202048616C747F
:10054000202876696120574454290A002A207072B5
:10055000742020202020202047657420706F727442
:100560000A002A20726320202020202020205265AB
:1005700073746172742063617573650A00002A20C8
:100580007273742020202020202052657365740A25
:1005900000002A207373202020202020202047657F
:1005A000742053797374656D53746174650A000027
:1005B0002A20743C6E3E205B3C703E5D20446F20E0
:1005C00074657374206E756D626572203C6E3E209A
:1005D00077697468206F7074696F6E616C207061E8
:1005E00072616D65746572203C703E0A00002A20BD
:1005F00074737461732020202020446F2061737312
:10060000656D626C7920746573740A006462673D7D
:10061000256C580A00007072743D24253032580A47
:10062000000072633D25730A000073733D2530326C
:10063000580A00002A2054797065203F20666F72A6
:100640002068656C702E0A000001050198A711D082
:1006500006011C51D8B41D071C07D8B402D00501EF
:1006600008D01D53D8B402D0050103D005019897D6
:1006700098899CA109D09A51D8B49B079A2F04D08D
:100680009B5302E19C919C839FA109D09D51D8B4BA
:100690009E079D2F04D09E5302E19F919F83A2A1AC
:1006A00009D0A051D8B4A107A02F04D0A15302E1D2
:1006B000A291A28398A109D09651D8B49707962FFA
:1006C00004D0975302E198919883B3A109D0B15116
:1006D000D8B4B207B12F04D0B25302E1B391B383BF
:1006E000B6A109D0B451D8B4B507B42F04D0B553CE
:1006F00002E1B691B683B9A109D0B751D8B4B80711
:10070000B72F04D0B85302E1B991B98398A109D0A9
:100710009651D8B49707962F04D0975302E1989139
:100720009883A6A109D0A451D8B4A507A42F04D0BA
:10073000A55302E1A691A683BDA109D0BB51D8B4AF
:10074000BC07BB2F04D0BC5302E1BD91BD8333A4D1
:1007500009D04150D8B44206412E04D0425202E1A1
:100760003394338606012CA109D02A51D8B42B0723
:100770002A2F04D02B5302E12C912C830501988F52
:10078000BD96000134EF00F07AC661F505016051B5
:10079000615D02E1666B07D0615303E1010E666F94
:1007A00002D0020E666F636B339C00013CEF05F0D4
:1007B0007EC6EAF406017DC6E9F4EFC492F5ECC406
:1007C00093F5ECC494F5ECC495F5338E00014FEF2E
:1007D00004F0050166510208D8B465D033BC04D0DA
:1007E0007AC662F5338C0DD0635131080AE3036A8F
:1007F0006351500FE96E0C0E0320EA6E7AC6EFF4D7
:10080000632B6651010A000103E0010A02E04AD0AD
:1008100049D005016251210A000105E0120A06E0F3
:10082000720A27E03ED0FCEFFFF03BD00501635396
:100830001EE0010E0C0150250501635D18E16351B6
:10084000040815E10C0E06017C6F510E7B6F7CC60F
:100850007EF67BC67DF67EC6E2F47DC6E1F4E6C494
:1008600023F6E6C424F6E6C425F60501988D0001BA
:1008700018D00501635314E0010E0C015025050149
:10088000635D0EE1635105080BE10C0E06017C6F00
:10089000510E7B6F7CC67EF67D6F000189D7050106
:1008A000000100D00501000142EF05F00501615192
:1008B00006017A5D04E0020E0501666F060105017E
:1008C000656B646B000154EF05F07D0E016E050E43
:1008D000026E8AEF04F006017A6B05016651020888
:1008E000D8B490D06553D8A480D06651010A0001D5
:1008F00003E0010A02E078D077D005016251320AA4
:10090000000107E0060A21E0AD0A4FE0B90A62E003
:100910006AD0DBD702C58DF601C58CF60C0EEA6EE7
:10092000830EE96E8DC6E2F48CC6E1F4150E016EFD
:10093000E6C4EEF4012EFCD7150E0C01826F010EF9
:1009400082250501656F00014ED006011BC601F529
:1009500001C57CF6010E7D6F090E7E6F7F6B806B8B
:10096000070E826FEA0E816F030E836F170E846F7E
:100970000B0E856F200E866F250E876F0C0EEA6EAC
:10098000830EE96E060EE26E7C0EE16E100E016EB5
:10099000E6C4EEF4012EFCD7100E0C01826F010E9E
:1009A00082250501656F00011ED00C0EEA6E830ED4
:1009B000E96E000E3ADD0A000900F550EE6E0009FE
:1009C000FBE1040E0C01826F010E82250501656FAB
:1009D000000109D0080E0C01826F040E836F020E15
:1009E0000501656F000100D005016551645D0AE2F3
:1009F000036A6451820FE96E0C0E0320EA6EEFC4A5
:100A00007AF6642B06017AC601F5000157EF05F06E
:100A1000020199B18B5199857AC68CF29A6B94999F
:100A200000015CEF05F00001020198B707D0050155
:100A3000676B020198A902D00501678F0501675114
:100A4000672B0601786F78517F081EE302019595A8
:100A500099B102D09AA7FCD798B78B5198A78E511D
:100A60009A6B94990601796F785308E1D89079339D
:100A700079C67AF6000188D605D0060179C67AF6DD
:100A80000001A7D619D00601785180080EE10201B5
:100A900098B78B5198A78E510601796FD89079330A
:100AA00079C67AF6000102D70601000114D701C504
:100AB00079F679C67AF6ACD734EF00F0ECC4FAF4E4
:100AC000ECC4FBF4ED52ED52EFC4E8F4F96E120001
:100AD000494D574F2020202020202054413D2425DF
:100AE0003032582041434B3D25630000494D524F61
:100AF0002020202020202054413D24253032582021
:100B000041434B3D25630000494D57522020202092
:100B100020202054413D24253032582041434B3D74
:100B200025630A00494D536E644279746520205450
:100B3000413D242530325820446174613D242530E4
:100B400032582041434B3D25630A0000494D526510
:100B50006342797465202054413D24253032582069
:100B6000446174613D24253032582041434B3D257A
:100B7000630A0000494D5772427974652020205461
:100B8000413D242530325820436D643D24253032C8
:100B90005820446174613D24253032582041434B34
:100BA0003D25630A0000494D5772576F726420203B
:100BB0002054413D242530325820436D643D242586
:100BC00030325820446174613D242530346C582003
:100BD00041434B3D25630A00494D52644279746597
:100BE00020202054413D242530325820436D643D5F
:100BF00024253032582041434B3D25630000494DA8
:100C00005264576F726420202054413D24253032B5
:100C10005820436D643D24253032582041434B3DDC
:100C200025630000494D426C6B577269746520540E
:100C3000413D242530325820436D643D2425303217
:100C4000582041434B3D25630000494D426C6B5297
:100C5000656164202054413D242530325820436D85
:100C6000643D24253032582041434B3D256300002C
:100C7000494D577269746533322054413D24253003
:100C8000325820436D643D2425303258204461742D
:100C9000613D242530386C582041434B3D25630A83
:100CA0000000494D5265616433322054413D242592
:100CB00030325820436D643D242530325820414362
:100CC0004B3D256300002057443A20436D643D248A
:100CD000253032580A002057443A20446174613D5F
:100CE00024253032580A000057523A204164647279
:100CF0003D242530325800002054410020476C6FBD
:100D000062616C0020496E76616C6964000020525B
:100D1000443A20446174613D24253032580A000071
:100D200052523A20416464723D242530325800000A
:100D300020496E76616C696400004952513A205333
:100D4000746174653D242530325800002057725478
:100D5000413D24253032580A000020577244617406
:100D6000613D24253032580A000020526454413D30
:100D700024253032580A000053775B25755D202406
:100D8000253032583D3E24253032580A0000436F4A
:100D90006E6669675B25755D3A0020496C696D3D3B
:100DA000256C756D4100204F6E3D25750000496E24
:100DB00076616C696420746573743A0A0000546546
:100DC0007374733A0A00203320436F6E74726F6C31
:100DD000204368302028646566290A0020342043B7
:100DE0006F6E74726F6C204368310A003331205289
:100DF000656C61793A20536574203D20636C6F7394
:100E000065640A0033322052656C61793A2053657B
:100E100074203D206F70656E0A0034312047657480
:100E200020562F492076616C730A00003432204727
:100E300065742041646A2052656720536861646F5D
:100E4000772056616C730A00343320476574204163
:100E500076672052656720536861646F772056611A
:100E60006C730A003434204765742044656C20524A
:100E7000656720536861646F772056616C730A0060
:100E80003435204765742043726F205265672053C4
:100E90006861646F772056616C730A0034362047AE
:100EA0006574204164642052656720536861646FF3
:100EB000772056616C730A003532205365742041E7
:100EC000646A2052656720536861646F77205661B9
:100ED0006C730A0036312053657420566F6C746150
:100EE0006765205A65726F2043726F7373696E670E
:100EF000730A0000363220536574204375727265A0
:100F00006E74205A65726F2043726F7373696E67D7
:100F1000730A00003932205365742041646A2052FC
:100F2000656720454550524F4D2056616C730A004D
:100F30004325633A20563A254C752C20493A254CD6
:100F4000646D412C2050413A254C642C2050493A84
:100F5000254C752C2056733A254C752C2049733A34
:100F6000254C642C20566D3A254C752C20496D3A41
:100F7000254C642C2056433A254C642C2049433A96
:100F8000254C64200A004325633A2041646A3A25CF
:100F90004C750A004325633A204176673A254C7523
:100FA0000A004325633A2044656C3A254C750A00D3
:100FB0004325633A2043726F3A254C750A00432556
:100FC000633A204164643A254C750A0053656E7497
:100FD0000A0053617665640A00005353204D533A6A
:100FE0002053533D242530325820464D3D24253092
:100FF000346C580A000053532025633D3E25630A94
:10100000000054657374206D6F64652E2050726506
:101010007373203C53706163653E20746F20636F6F
:101020006E74696E75652C206F72203C4573633E4B
:1010300020746F20657869743A000A4C4544412059
:10104000466C6173682E2E2E00000A4C45444220E7
:10105000466C6173682E2E2E00000A535741204BB8
:10106000312052656C6179204F4E2E204437202666
:10107000204F70746F203D204F46463A2D000A5392
:101080005741204669727374204645542050616967
:1010900072204F4E2E2044342C2044372026204FDF
:1010A00070746F203D204F4E3A2D00000A53574177
:1010B00020546865726D6973746F72206279706113
:1010C00073732046455420506169722026204431B4
:1010D000203D204F4E2E00000A535742204B322015
:1010E00052656C6179204F4E2E2044392026204FC6
:1010F00070746F203D204F46463A2D000A535742E8
:1011000020466972737420464554205061697220EC
:101110004F4E2E2044392C204431302026204F7051
:10112000746F203D204F4E3A2D000A5357422054F1
:101130006865726D6973746F722062797061737320
:1011400020464554205061697220262044313320C6
:101150004F4E2E000A4F70746F5F412000000A4FFF
:1011600070746F5F422000004F46460053552025A3
:10117000633D3E25630A000006017851000A000124
:1011800003E0010A0AE011D00601795302E1BE90A2
:1011900001D0BE80C690000108D00601795302E15B
:1011A000BE9201D0BE82C6920001120006017851A3
:1011B000000A000103E0010A0AE011D00601795398
:1011C00002E1C19001D0C180C990000108D00601A0
:1011D000795302E1C19401D0C184C9940001120085
:1011E000000104010FA909D00601786B796B000199
:1011F000C3DF05016A8504010F990FAB0AD0010E08
:101200000601786F796B0001B7DF05017385040172
:101210000F9B0FA121D005019951120A000105E091
:10122000070A0AE0160A0FE013D00601786B010ED8
:10123000796F0001BBDF0CD00601786B010E796F6E
:1012400000019ADF05D00601786B796B0001AEDFF3
:101250000501EF8304010F910FA722D00501B051C2
:10126000120A000105E0070A0AE0160A0FE014D08E
:10127000010E0601786F796F000198DF0DD0010E25
:101280000601786F796F000177DF06D0010E060145
:10129000786F796B00018ADF0601188304010F97CC
:1012A000AE9E000134EF00F0494D526563333220A9
:1012B0002054413D242530325820446174613D243E
:1012C000253038582041434B3D25630A00005754D0
:1012D000413A20436D643D496E766F6B654C6F619A
:1012E0006465720A00005754413A20436D643D53CF
:1012F00074617475734D32500A005754413A20435B
:101300006D643D41435377697463684368616E6EF1
:10131000656C436F6E6669675365740A00005254CA
:10132000413A20436D643D53746174757350324D7E
:101330000A005254413A20436D643D4964656E741D
:101340004765740A00005254413A20436D643D4D94
:1013500046525F49440A00005254413A20436D64AA
:101360003D485749440A0000506F72743D253032A1
:101370005820416464723D253032580A0000D8502C
:10138000600B006E0038016E0132070E0116F1B0DD
:101390000194F1A00184F1A40196F1B40186F1A2B7
:1013A0000198F1B20188F184F182F190F0C400F566
:1013B000F0A2009000A201843F0EF06E01C548F536
:1013C00000C547F5CAEF2BF0C680D56BD86BC78830
:1013D000D56B020ED96FC88AD56B040EDA6FD56B48
:1013E000D791010EDC6FD56BD793280EDD6FD56BCF
:1013F000D785DE6BD56BD787DF6BD56BD79F820E1A
:10140000D66F010ED56F330ED86FC788010ED56F1A
:10141000020EDA6FC88A010ED56F040EDB6F010E63
:10142000D56FD791020EDC6F010ED56FD793DD6BB0
:10143000D56FD785A00EDE6F010ED56FD797DF6B06
:10144000D56FD79F830ED66F060ED56F340ED86F2B
:10145000C680060ED56FD96BD56FD791020EDC6FA3
:10146000060ED56FD793080EDD6F060ED56FD785A4
:10147000DE6BD56FD787DF6BC992D56FD79F820E92
:10148000D66FC682030ED56F010ED86FC78A030EC2
:10149000D56FD96FC88CD56F050EDA6F030ED56F77
:1014A000D791010EDC6F030ED56FD793280EDD6F39
:1014B000030ED56FD785DE6BD56FD787DF6BD56F02
:1014C000D79F820ED66F040ED56F360ED86FC78A9F
:1014D000040ED56F030EDA6FC88C040ED56F050E9F
:1014E000DB6F040ED56FD791020EDC6F040ED56F43
:1014F000D793DD6BD56FD785A00EDE6F040ED56F49
:10150000D797DF6BD56FD79F830ED66F070ED56F3A
:10151000370ED86FC682070ED56F010ED96F070E32
:10152000D56FD791020EDC6F070ED56FD793080EDB
:10153000DD6F070ED56FD785DE6BD56FD787DF6B75
:10154000C996D56FD79F820ED66FC690BE90C692B1
:10155000BE92C89AC09AC89CC09CFDEF2BF00601B1
:101560001EC601F500011200A594050EEA6E7D0E5F
:10157000E96E050EE26E680EE16E150E016EE6C4B0
:10158000EEF4012EFCD7A5841200E9DF01C57AF53F
:1015900005017C6B7B6B06012F6B2F51010848E323
:1015A0002F51090DF350316B306F680E3025E96E05
:1015B000050E3121EA6EEF6A2F51090DF350316BA0
:1015C000306F020E3025016E000E3121036E015086
:1015D000680FE96E050E0320EA6EEF6A2F51090DC0
:1015E000F350316B306F030E3025016E000E312148
:1015F000036E0150680FE96E050E0320EA6EEC6A77
:10160000ED52EF6A2F51090DF350316B306F050E1B
:101610003025016E000E3121036E0150680FE96E16
:10162000050E0320EA6EEC6AED52EF6A2F2BB5D758
:101630002F6B2F510108D8A0B8D02F51170DF350A0
:10164000316B306F990E3025E96E050E3121EA6E4F
:10165000010EEF6E2F51170DF350316B306F030EEB
:101660003025016E000E3121036E0150990FE96E95
:10167000050E0320EA6EEF902F51170DF350316BDA
:10168000306F030E3025016E000E3121036E0150C4
:10169000990FE96E050E0320EA6EEF822F51170DA8
:1016A000F350316B306F060E3025016E000E312184
:1016B000036E0150990FE96E050E0320EA6EEF905C
:1016C0002F51170DF350316B306F060E3025016E20
:1016D000000E3121036E0150990FE96E050E0320B3
:1016E000EA6EEF822F51170DF350316B306F090EF8
:1016F0003025016E000E3121036E0150990FE96E05
:10170000050E0320EA6EEF902F51170DF350316B49
:10171000306F090E3025016E000E3121036E01502D
:10172000990FE96E050E0320EA6EEF822F51170D17
:10173000F350316B306F120E3025016E000E3121E7
:10174000036E0150990FE96E050E0320EA6EEF6AF1
:101750002F51170DF350316B306F130E3025016E82
:10176000000E3121036E0150990FE96E050E032022
:10177000EA6EEF6AEC6AEC6AEC6A2F51170DF350CF
:10178000316B306F0E0E3027000E3123010E3025E5
:10179000016E000E3121036E0150990FE96E050EA6
:1017A0000320EA6EEF6A2F2B44D70001DDDE07EF3E
:1017B0002CF006012F6B2F5101083EE32F51170D1E
:1017C000F350316B306F0A0E3027000E3123990E23
:1017D0003025E96E050E3121EA6EEF6A2F51170DA3
:1017E000F350316B306F0A0E3027000E3123030E99
:1017F0003025016E000E3121036E0150990FE96E04
:10180000050E0320EA6EEF902F51170DF350316B48
:10181000306F0A0E3027000E3123030E3025016E83
:10182000000E3121036E0150990FE96E050E032061
:10183000EA6EEF822F2BBFD7000109EF2CF03EC6D6
:1018400037F53DC636F53CC635F53BC634F542C6E0
:101850003BF541C63AF540C639F53FC638F546C6B0
:101860003FF545C63EF544C63DF543C63CF541EF60
:101870002CF0080E016E030E006E0400002EFDD742
:10188000BF94C794030E006E0400002EFDD706011E
:101890006937BF92D8B0C782D8A0C792C784CFA4F7
:1018A000FED7012E01D002D00001E5D7030E006E55
:1018B0000400002EFDD7BF94C7940000C782030E1A
:1018C000006E0400002EFDD7030E006E0400002EF3
:1018D000FDD7C784CFA4FED7016A030E006E0400B3
:1018E000002EFDD7CFB20180BF94C794BF92C7929C
:1018F0000001120068C6EAF467C6E9F40601662B27
:101900006551FE0B696F0001B4DF01500AE1060169
:101910006607000106E0EEC469F60001AADF015087
:10192000F5D7016E12005EC61CFC5FC61DFC0C01E3
:1019300060C61EFC0C0161C61FFC0C0162C620FCC7
:101940000C0106016391D8905D35646FC782030E68
:10195000006E0400002EFDD7C784030E006E040045
:10196000002EFDD7BF92C792030E006E0400002E1A
:10197000FDD7BF94C79464C665F6050E666F0C0E5E
:10198000686F1C0E676F0001B5DFC7920000C78447
:10199000CFA4FED7030E006E0400002EFDD700D0AA
:1019A0000000C782030E006E0400002EFDD7015216
:1019B00003E1060163810001000E060163B1010E1F
:1019C000016E0001120006011AC601F500011200A5
:1019D000060131513F0811E333C603F532C6E9F47D
:1019E00003C5EAF4036A315100018BEC01F0EF6E9C
:1019F000010E016E0AD009D0060133C6EAF432C6E0
:101A0000E9F4EF6A000E016E0001C4EF2CF031C65C
:101A100060F5D890050160350601E8C490F2000138
:101A2000C8EF2CF0000E016E1200010E016E1200C4
:101A3000010E006E1F501E5CD8B4006A1200040034
:101A40001F501E5CFCE00A0EEA6E280EE96E1F5065
:101A5000E926000EEA22EFC401F51F2A630ED880A2
:101A60001F5401E21F6A1200E3DF00A015D02EC64A
:101A7000EAF42DC6E9F4EAC475F6E9C474F6000187
:101A8000DEDF75C6EAF474C6E9F4015001C5EFF46F
:101A9000010E016E03D002D0000E016E120006018D
:101AA000736BA6B2010E736FA6922450265C04E3FA
:101AB00014E12550235C11E32550235C006E265071
:101AC0002458036E0050710F016E010E0358026E10
:101AD000025213E1015211E112D02350255C006E35
:101AE00024502658036E0050FF0F016E000E03585D
:101AF000026E025202E1015202E0016A02D0010EBE
:101B0000016E73B1A6820001A7EF0DF00A0EEA6E16
:101B10008C0EE96E2350E9262450EA2273C6EFF4B6
:101B2000232AD8B4242A2450010804E305E12350D1
:101B30008F0802E2246A236A2550235C04E12650C0
:101B4000245CD8B42284A682ACEF0DF0A8D701B0F3
:101B500007D02DC673F6DAD7010E016E03D002D07E
:101B6000000E016E1200B8EF0DF078510400FBD7A3
:101B70001200060171510A080FE1050EEA6E380ED7
:101B8000E96E2E6B0D0E2D6F00015EEC05F001521B
:101B900004E1EBDF0601F1D70001050EEA6E380E15
:101BA000E96E06012E6B71C62DF600015EEC05F0A4
:101BB000015202E1DADFF1D712000900F6C469F63A
:101BC000F7C46AF6F8C46BF6F5C471F6D2DF69C6DD
:101BD000F6F46AC6F7F46BC6F8F40601682F01D074
:101BE00002D00001EAD700011200060150BF11D057
:101BF0000F0E006E4F3900160A0E005C03E2300E25
:101C0000002602D05051002600C571F60001B1DF58
:101C100006010F0E4F170A0E4F5D02E2300E02D082
:101C2000509F50514F274FC671F60001A2DF12009E
:101C3000060135C603F5031E3451FF0A261703506B
:101C40002717000135EF0EF00601345126133551E8
:101C5000271300013DEF0EF0050198AB10D00601EF
:101C6000356B020E346F0001E3D7060121A306D0C5
:101C7000356B020E346F0001E7D706010501000144
:101C800012000601369126513415376F275135154C
:101C9000386F375302E1385301E03681000E36B118
:101CA000010E016E00015BEF0EF00601356B020EB6
:101CB000346F0001E6D7015012000601349105018E
:101CC00098AB09D0060120511008D8B402D0050104
:101CD00002D034810501000E060134B1010E016EFF
:101CE00000011200050198AD3DD0A59425C622F64D
:101CF00024C621F623C620F6989DA584988B27A696
:101D000031D0DA0EF66E0F0EF76E000EF86E0B0E77
:101D10000601686F000151DF20C64FF6370E06013D
:101D2000506F000162DFE90EF66E0F0EF76E000EC7
:101D3000F86E050E0601686F00013FDF22C64FF600
:101D4000370E0601506F000150DF21C64FF6370EE7
:101D50000601506F000149DF0A0E0601716F000194
:101D600008DF0501060133911F511E5D25E027A004
:101D700020D0F60EF66E0F0EF76E000EF86E030E04
:101D8000686F00011ADF1EC671F6F3DE3D0E060114
:101D9000716F0001EEDE3E0E0601716F0001E9DE9B
:101DA0001FC671F6E6DE0A0E0601716F0001E1DE64
:101DB00006011FC61EF633811E51010A000107E00D
:101DC000030A1EE0120A35E0130A45E04DD0060171
:101DD00033A10BD005019897030E06011D6FE80E85
:101DE0001C6F0501989998870601050198A906D0EE
:101DF000020E06011F6F000137D00501000134D02B
:101E0000060133A103D00501989B0601000124DFE0
:101E10004CDF015205E0030E06011F6F26D00001C2
:101E20004CDF015205E0100E06011F6F00011CD0AF
:101E30001BD012DF3ADF015205E0030E06011F6FCF
:101E400014D000013ADF015205E1020E06011F6FB6
:101E50000CD0000109D000DF28DF015205E1010E9E
:101E600006011F6F000100D006010001E0EF2CF019
:101E700006015351016A525D03E252C600F50CD0CF
:101E8000006A080E546F523700365351005CD8B0C8
:101E9000006E0136542FF7D700011200015050C6D2
:101EA00052F6640E0601536F0001E2DF00C550F6E2
:101EB0000150300E08E1060151A30FD051B70DD0EB
:101EC00051B9200E04D00601519751995181012634
:101ED00001C571F600014DDE060150C652F60A0E2C
:101EE000536F0001C5DF00C550F60150300E08E108
:101EF000060151B70AD051A108D051B9200E0001F6
:101F0000012601C571F635DE0601300E502750C698
:101F100071F600012EDE1200EAC470F6E9C46FF615
:101F200006016939F0096B6F6B27E20F6C6F320F96
:101F30006E6F69510F0B6C276C276E27E90F6D6F61
:101F40006D276D2768390F0B6D276E276D376E373C
:101F50006E1F6E3768510F0B6E276B37070E6A6F57
:101F60000A0E6D076E27FDE36C076D27FDE36B0717
:101F70006C27FDE36A076B27FDE3060EEA6E6A0E27
:101F8000E96E070E6F156F9DE926000EEA22E950F3
:101F90006E0804E1EA50060801E16F8DEF50006E13
:101FA00008E16FBD06D06FB915D06FB702D0200E13
:101FB00003D06F876F99300E0026EAC469F6E9C432
:101FC00068F600C571F60001D4DD69C6EAF468C69A
:101FD000E9F40601EE506FADDAD7000112000601F8
:101FE0004E6B4E510108D8A082D08E0EF66E0D0EAB
:101FF000F76E000EF86E070E686F0001DEDD4EC64C
:1020000050F61B0E0601516F000148DF5D0E060100
:10201000716F0001AEDD3A0E0601716F0001A9DD9E
:1020200006014E51170DF350506B4F6F0E0E4F2798
:10203000000E5023020E4F25016E000E5021036E3C
:102040000150990FE96E050E0320EA6EECC450F6BC
:10205000ED52EFC44FF69A0EF66E0D0EF76E000EAF
:10206000F86E060E686F0001A8DD100EE96E50C60E
:1020700069F64FC668F650DF6D0E0601716F0001FC
:1020800078DD410E0601716F000173DD06014E51CE
:10209000170DF350506B4F6F0E0E4F27000E50234D
:1020A000010E4F25016E000E5021036E0150990F55
:1020B000E96E050E0320EA6EEFC44FF6A60EF66E2B
:1020C0000D0EF76E000EF86E040E686F000175DDE0
:1020D0004FC650F61B0E0601516F0001DFDE0A0EDF
:1020E0000601716F000145DD06014E2B7AD7000114
:1020F0001200060126C601F527C602F50001FEEF13
:1021000010F00601535302E0630E01D0600E546FCD
:102110005D6F1E0E5E6F626B200E616F606B5F6B9A
:10212000000101DC12000601535302E0630E01D0EE
:10213000600E546F5D6F1E0E5E6F626BA00E616F5E
:10214000606B5F6B000193EC0CF0120006015351C1
:10215000000A000103E0010A04E005D0C198C99813
:1021600002D0C19AC99A1200060139530AE1D1ACD2
:1021700004D005016A8103D0060105016A9109D0E6
:102180000601D1AE04D00501738103D0060105011B
:1021900073910001120006015851000A000103E08A
:1021A000010A04E005D0C188C99802D0C18AC99A41
:1021B000120033AE1ED0A59405019251000A000111
:1021C00003E0010A0AE011D095C5AAF594C5A9F566
:1021D00093C5A8F592C5A7F508D095C5C1F594C5D6
:1021E000C0F593C5BFF592C5BEF5339EA58427B44F
:1021F000F6DEAFEC0AF001C57AF57BD702C57CF5B7
:1022000001C57BF5050176516D250601336F05018A
:1022100077516E210601346F180808E30B0E050193
:10222000976FB80E966F988198930601050198A351
:1022300005D06A8B738B020E996FB06F0601336BFA
:102240003351290DF350366B356F140E3525016E61
:10225000000E3621036E0150C70FE96E050E0320F4
:10226000EA6EECC46CF5ED52EFC46BF50501AF31CD
:10227000036EAE31026EAD31016EAC31006E0332D1
:1022800002320132003203320232013200320332B2
:1022900002320132003203320232013200320332A2
:1022A00002320132003200C56DF501C56EF56D5187
:1022B000AC5F6E51AD5B000EAE5BAF5B06013351A0
:1022C000290DF350366B356F160E3525016E000E55
:1022D0003621036E0150C70FE96E050E0320EA6E2A
:1022E000ECC403F5ED52EFC400F503C501F5026A35
:1022F000036A01AE02D0020603060501AC510026B6
:10230000AD510122AE510222AF51032203C5AFF5F8
:1023100002C5AEF501C5ADF500C5ACF568511008B4
:10232000D8B0EBD006013351290DF350366B356F21
:10233000160E3525016E000E3621036E0150C70FB3
:10234000E96E050E0320EA6EECC436F6ED52EFC4DA
:1023500035F636C63CF635C63BF6AAC53EF6A9C5E7
:102360003DF63F910501A351695D05E0A3C569F5FF
:1023700006013F8105016951000A00010EE0010AD2
:1023800022E0030A50E0010AD8B470D0070AD8B49A
:1023900081D0010AD8B49FD09ED00501685116089B
:1023A00003E1030EA36F0CD006013C510E0809E2B5
:1023B000FF0A03E13B51A00804E2010E0501A36FEF
:1023C0000601000188D006013FA10AD00501A691AF
:1023D000A693A56B640EA46FA68100017CD00601B4
:1023E0000501A6A31ED006013C5110080BE2FF0A0E
:1023F00003E13B51940806E2050E0501A36F6DD081
:1024000010D006013C510E080AE2FF0A03E13B51DD
:10241000A00805E2020E0501A36F03D00601050125
:10242000A36B000158D006013FA10AD00501A69177
:10243000A693A56B640EA46FA68100014CD0060183
:102440000501A6A311D006013C510E080BE2FF0ABC
:1024500003E13B51A00806E2050E0501A36F3DD044
:1024600003D006010501A36B000135D005016851B9
:10247000160802E0A36B0BD006013E513C5D08E359
:1024800003E13B513D5D04E2040E0501A36F06012B
:10249000000121D006013FA108D00501A691A69315
:1024A000A56B640EA46FA68106010501A6A311D039
:1024B00006013E513C5D0AE303E13B513D5D06E20E
:1024C000050E0501A36F09D004D00601030E050116
:1024D000A36F000100D004D00501060142D700011E
:1024E00005016AA503D0020E996F06D0695105084F
:1024F00003E16A8B020E996F02D06E6B6D6B060161
:10250000349105019951685D49E027A242D0780EC7
:10251000F66E0D0EF76E000EF86E030E0601686F74
:102520000001DDEC0DF033C650F61B0E0601516FB5
:102530000001B4DC7D0EF66E0D0EF76E000EF86E27
:10254000030E0601686F0001DDEC0DF068C54FF663
:10255000370E0601506F0001F5EC0DF0840EF66E9B
:102560000D0EF76E000EF86E030E0601686F000187
:10257000DDEC0DF099C54FF6370E0601506F0001E6
:10258000F5EC0DF00A0E0601716F0001B9EC0DF0CB
:10259000050199C568F50601348105016851010AF4
:1025A000000120E0030A32E0010A49E0070AD8B43A
:1025B00090D0010AD8B49FD0150AD8B4BAD0010A75
:1025C000D8B473D1030AD8B49AD1010AD8B4FED1D1
:1025D000070AD8B438D2010AD8B458D2030AD8B4FA
:1025E000A3D2BCD2060134A105D033C653F60001F4
:1025F00088DD06010001AFEC0AF00150100805E18A
:10260000100E0501996F0001A9D2A8D2060134A1CC
:1026100014D01B6AD6BE1B8ED69E33C678F6796B55
:102620000001BCEC08F01BBED68E33C653F67BDD32
:10263000030E0501996F94D2060100018FD20601A5
:1026400034A11AD005019C919C939B6B140E9A6F38
:102650009C8106013351290DF350366B356F280EDE
:102660003525016E000E3621036E0150C70FE96E4D
:10267000050E0320EA6EEF923351290DF350366BAD
:10268000356F280E3525016E000E3621036E015080
:10269000C70FE96E050E0320EA6EEFA204D0040E08
:1026A0000501996F14D005019CA311D06A871B6A9C
:1026B000D6BE1B8ED69E33C678F60601796B000116
:1026C000D6EC08F01BBED68E040E0501996F0001F2
:1026D00045D2060134A108D005019C919C939B6BC7
:1026E000C80E9A6F9C81060105019CA302D0050EBD
:1026F000996F000133D2060134A108D005019C91E5
:102700009C939B6B0A0E9A6F9C81060105019CA30A
:102710000ED033C653F6000119DD0501A291A29334
:10272000130EA16F880EA06FA281100E996F000189
:1027300015D2060134A144D03351000A000103E050
:10274000010A08E00DD004010E990F99C08AC89AB9
:10275000000106D004010E9B0F9BC08CC89C000199
:102760000501A86B9C919C830601349305016ABB0B
:1027700004D06AB302D06AA503D0060134830501F0
:102780009FA304D0060134A318D00501060134A389
:1027900003D00501AB2B06010501AB51010806E290
:1027A000AB6BEA0E9B6F600E9A6F04D0750E9B6F39
:1027B000300E9A6F9C819C9306010001CFD10601D7
:1027C0000501A2A305D033C639F60001CDDC050111
:1027D0009CA359D06A990001AFEC0AF0015010088F
:1027E00050E10501A82D01D002D000014AD0060118
:1027F0003351290DF350366B356F1C0E3525016EA4
:10280000000E3621036E0150C70FE96E050E03203E
:10281000EA6EECC436F6ED52EFC435F6365306E1F7
:1028200035515A08D8A002D000012BD03351290DC0
:10283000F350366B356F1C0E3525016E000E3621B8
:10284000036E0150C70FE96E050E0320EA6EECC45B
:1028500036F6ED52EFC435F636510108D8B002D045
:1028600000010FD006E135510808D8B002D00001B0
:1028700008D0110E0501996FA36B6A6B7C91000162
:102880006DD10FD005010001AFEC0AF00150100826
:1028900008E10501A82D01D002D0000102D06A890B
:1028A00000010501A86B000159D1AFEC0AF00150FD
:1028B000100805E0020E0501996F52D100010501D3
:1028C000A82D01D003D0020E996F4AD1060134A180
:1028D0000FD033C653F6000114DC33C658F65BDC68
:1028E00005019C919C939B6B320E9A6F9C81060113
:1028F00005019CA302D0120E996F00012FD1AFECFD
:102900000AF00150100805E0020E0501996F28D168
:1029100000010501A82D01D003D0020E996F20D12E
:10292000060134A133D03351000A000103E0010A4B
:102930000AE011D004010F999E8E0E890D99C09A5C
:10294000C89A000108D004010F9B9E8E0E8B0D9B30
:10295000C09CC89C000106013351290DF350366B11
:10296000356F280E3525016E000E3621036E01509D
:10297000C70FE96E050E0320EA6EEF9205019C91E8
:102980009C939B6B640E9A6F9C8106013351290DB9
:10299000F350366B356F280E3525016E000E36214B
:1029A000036E0150C70FE96E050E0320EA6EEFA219
:1029B00004D0130E0501996F07D005019CA304D024
:1029C0006A87020E996FCCD00001C8D0AFEC0AF034
:1029D0000150100805E0020E0501996FC1D00001F9
:1029E0000501A82D01D003D0020E996FB9D00601C0
:1029F00034A10FD005019C919C939B6B640E9A6F40
:102A00009C819F919F930B0E9E6FB80E9D6F9F812F
:102A1000060105019CA315D00601335304E0000E06
:102A2000D1AE010E03D0000ED1AC010E000A06E0BB
:102A300005016A83020E996F93D00601140E0501F9
:102A4000996F00018BD0AFEC0AF00150100805E03F
:102A5000020E0501996F84D000010501A82D01D057
:102A600003D0020E996F7CD0060134A108D0050175
:102A70009C919C939B6B640E9A6F9C81060105014F
:102A80009CA302D0150E996F000168D0AFEC0AF03C
:102A90000150100805E0020E0501996F61D0000198
:102AA0000501A82D01D003D0020E996F59D006015F
:102AB00034A11AD03351290DF350366B356F280EDF
:102AC0003525016E000E3621036E0150C70FE96EE9
:102AD000050E0320EA6EEF9205019C919C939B6B7F
:102AE000640E9A6F9C8106013351290DF350366BA9
:102AF000356F280E3525016E000E3621036E01500C
:102B0000C70FE96E050E0320EA6EEFA204D0160E81
:102B10000501996F07D005019CA304D06A87020EB6
:102B2000996F1ED000011AD0AFEC0AF001501008C6
:102B300005E0020E0501996F13D000010501A82DD3
:102B400001D003D0020E996F0BD0060134A105D03D
:102B500005019C919C93AB6B0601000103D005011C
:102B6000CED40001010E0601336F3351290DF3500D
:102B7000366B356F140E3525016E000E3621036E4F
:102B80000150C70FE96E050E0320EA6EECC475F51F
:102B9000ED52EFC474F50501C631036EC531026E06
:102BA000C431016EC331006E033202320132003291
:102BB0000332023201320032033202320132003279
:102BC0000332023201320032033202320132003269
:102BD00000C576F501C577F57651C35F7751C45BC3
:102BE000000EC55BC65B06013351290DF350366BF1
:102BF000356F160E3525016E000E3621036E01501D
:102C0000C70FE96E050E0320EA6EECC403F5ED5222
:102C1000EFC400F503C501F5026A036A01AE02D0F4
:102C2000020603060501C3510026C4510122C55105
:102C30000222C651032203C5C6F502C5C5F501C56A
:102C4000C4F500C5C3F571511008D8B0EBD006012A
:102C50003351290DF350366B356F160E3525016E45
:102C6000000E3621036E0150C70FE96E050E0320DA
:102C7000EA6EECC436F6ED52EFC435F636C63CF6D5
:102C800035C63BF6C1C53EF6C0C53DF63F910501D0
:102C9000BA51725D05E0BAC572F506013F810501C2
:102CA0007251000A00010EE0010A22E0030A50E01E
:102CB000010AD8B470D0070AD8B481D0010AD8B4B8
:102CC0009FD09ED005017151160803E1030EBA6F23
:102CD0000CD006013C510E0809E2FF0A03E13B510A
:102CE000A00804E2010E0501BA6F0601000188D0B8
:102CF00006013FA10AD00501BD91BD93BC6B640ED6
:102D0000BB6FBD8100017CD006010501BDA31ED0B3
:102D100006013C5110080BE2FF0A03E13B51940805
:102D200006E2050E0501BA6F6DD010D006013C51C8
:102D30000E080AE2FF0A03E13B51A00805E2020E79
:102D40000501BA6F03D006010501BA6B000158D026
:102D500006013FA10AD00501BD91BD93BC6B640E75
:102D6000BB6FBD8100014CD006010501BDA311D090
:102D700006013C510E080BE2FF0A03E13B51A0089B
:102D800006E2050E0501BA6F3DD003D0060105012C
:102D9000BA6B000135D005017151160802E0BA6B1B
:102DA0000BD006013E513C5D08E303E13B513D5D24
:102DB00004E2040E0501BA6F0601000121D00601EC
:102DC0003FA108D00501BD91BD93BC6B640EBB6FE4
:102DD000BD8106010501BDA311D006013E513C5D38
:102DE0000AE303E13B513D5D06E2050E0501BA6FC2
:102DF00009D004D00601030E0501BA6F000100D00E
:102E000004D00501060142D70001050173A503D0D6
:102E1000020EB06F06D07251050803E1738B020EEB
:102E2000B06F02D0776B766B060134910501B0511B
:102E3000715D4AE027A243D0780EF66E0D0EF76E54
:102E4000000EF86E030E0601686F0001DDEC0DF058
:102E500033C650F61B0E0601516F00014EEC0FF009
:102E60007D0EF66E0D0EF76E000EF86E030E060167
:102E7000686F0001DDEC0DF071C54FF6370E0601ED
:102E8000506F0001F5EC0DF0840EF66E0D0EF76E2E
:102E9000000EF86E030E0601686F0001DDEC0DF008
:102EA000B0C54FF6370E0601506F0001F5EC0DF07E
:102EB0000A0E0601716F0001B9EC0DF00501B0C5F5
:102EC00071F50601348105017151010A000120E00C
:102ED000030A33E0010A4BE0070AD8B492D0010A92
:102EE000D8B4A1D0150AD8B4BDD0010AD8B477D1CE
:102EF000030AD8B4A0D1010AD8B404D2070AD8B4BE
:102F00003ED2010AD8B45ED2030AD8B4A9D2C2D242
:102F1000060134A106D033C653F6000181EC10F04F
:102F200006010001AFEC0AF00150100805E1100E97
:102F30000501B06F0001AED2ADD2060134A115D0AB
:102F40001B6AD6BE1B8ED69E33C678F6796B0001FF
:102F5000BCEC08F01BBED68E33C653F693EC10F0D3
:102F6000030E0501B06F98D20601000193D206014D
:102F700034A11AD00501B391B393B26B140EB16FA3
:102F8000B38106013351290DF350366B356F280E8E
:102F90003525016E000E3621036E0150C70FE96E14
:102FA000050E0320EA6EEF923351290DF350366B74
:102FB000356F280E3525016E000E3621036E015047
:102FC000C70FE96E050E0320EA6EEFA204D0040ECF
:102FD0000501B06F14D00501B3A311D073871B6A2C
:102FE000D6BE1B8ED69E33C678F60601796B0001DD
:102FF000D6EC08F01BBED68E040E0501B06F0001A2
:1030000049D2060134A108D00501B391B393B26B44
:10301000C80EB16FB38106010501B3A302D0050E3E
:10302000B06F000137D2060134A108D00501B39179
:10303000B393B26B0A0EB16FB38106010501B3A35E
:103040000FD033C653F60001A6EC10F00501B9917C
:10305000B993130EB86F880EB76FB981100EB06FA9
:10306000000118D2060134A144D03351000A0001F6
:1030700003E0010A08E00DD004010E990F99C08AFF
:10308000C89A000106D004010E9B0F9BC08CC89CFF
:1030900000010501BF6BB391B383060134930501B1
:1030A00073BB04D073B302D073A503D0060134837D
:1030B0000501B6A304D0060134A318D0050106010A
:1030C00034A303D00501C22B06010501C25101083A
:1030D00006E2C26BEA0EB26F600EB16F04D0750EDD
:1030E000B26F300EB16FB381B39306010001D2D13C
:1030F00006010501B9A306D033C639F60001B4ECC8
:1031000010F00501B3A359D073990001AFEC0AF098
:103110000150100850E10501BF2D01D002D000017F
:103120004AD006013351290DF350366B356F1C0E12
:103130003525016E000E3621036E0150C70FE96E72
:10314000050E0320EA6EECC436F6ED52EFC435F6F8
:10315000365306E135515A08D8A002D000012BD0D1
:103160003351290DF350366B356F1C0E3525016E2A
:10317000000E3621036E0150C70FE96E050E0320C5
:10318000EA6EECC436F6ED52EFC435F6365101085E
:10319000D8B002D000010FD006E135510808D8B0F0
:1031A00002D0000108D0110E0501B06FBA6B736B2D
:1031B0007C9100016FD10FD005010001AFEC0AF046
:1031C0000150100808E10501BF2D01D002D0000117
:1031D00002D0738900010501BF6B00015BD1AFEC28
:1031E0000AF00150100805E0020E0501B06F54D13D
:1031F00000010501BF2D01D003D0020EB06F4CD1EC
:10320000060134A111D033C653F6000181EC10F051
:1032100033C658F6CBEC10F00501B391B393B26B03
:10322000320EB16FB38106010501B3A302D0120EB5
:10323000B06F00012FD1AFEC0AF00150100805E08B
:10324000020E0501B06F28D100010501BF2D01D08C
:1032500003D0020EB06F20D1060134A133D0335118
:10326000000A000103E0010A0AE011D004010F99ED
:103270009E8E0E890D99C09AC89A000108D004014B
:103280000F9B9E8E0E8B0D9BC09CC89C000106015F
:103290003351290DF350366B356F280E3525016EED
:1032A000000E3621036E0150C70FE96E050E032094
:1032B000EA6EEF920501B391B393B26B640EB16FF6
:1032C000B38106013351290DF350366B356F280E4B
:1032D0003525016E000E3621036E0150C70FE96ED1
:1032E000050E0320EA6EEFA204D0130E0501B06FA5
:1032F00007D00501B3A304D07387020EB06FCCD002
:103300000001C8D0AFEC0AF00150100805E0020E31
:103310000501B06FC1D000010501BF2D01D003D060
:10332000020EB06FB9D0060134A10FD00501B391E0
:10333000B393B26B640EB16FB381B691B6930B0EBB
:10334000B56FB80EB46FB68106010501B3A315D0F1
:103350000601335304E0000ED1AE010E03D0000E7F
:10336000D1AC010E000A06E005017383020EB06FB6
:1033700093D00601140E0501B06F00018BD0AFECA5
:103380000AF00150100805E0020E0501B06F84D06C
:1033900000010501BF2D01D003D0020EB06F7CD01B
:1033A000060134A108D00501B391B393B26B640E4A
:1033B000B16FB38106010501B3A302D0150EB06F42
:1033C000000168D0AFEC0AF00150100805E0020ED1
:1033D0000501B06F61D000010501BF2D01D003D000
:1033E000020EB06F59D0060134A11AD03351290D05
:1033F000F350366B356F280E3525016E000E3621E1
:10340000036E0150C70FE96E050E0320EA6EEF92BE
:103410000501B391B393B26B640EB16FB381060132
:103420003351290DF350366B356F280E3525016E5B
:10343000000E3621036E0150C70FE96E050E032002
:10344000EA6EEFA204D0160E0501B06F07D0050199
:10345000B3A304D07387020EB06F1ED000011AD040
:10346000AFEC0AF00150100805E0020E0501B06F44
:1034700013D000010501BF2D01D003D0020EB06FA3
:103480000BD0060134A105D00501B391B393C26BF3
:103490000601000103D00501C7D40001B4EC0AF015
:1034A000E2EF2CF0E4EF2CF034C643F512000900F3
:1034B000F55211E0F6C45AF6F7C45BF6F8C45CF6B0
:1034C000F5C471F6B9EC0DF05AC6F6F45BC6F7F424
:1034D0005CC6F8F4ECD712002A0E0601716F0001E9
:1034E000B9EC0DF0200E0601716F0001B9EC0DF082
:1034F000000EF66E020EF76E000EF86ED8DF0A0EA2
:103500000601716F0001B9EC0DF012002A0E0601E0
:10351000716F0001B9EC0DF03E0E0601716F0001F4
:10352000B9EC0DF01200326A33802A0E0601716F79
:103530000001B9EC0DF00A0E0601716F0001B9EC43
:103540000DF0CADFE3DF05EF2DF0036A465046ECCD
:1035500000F0016E0601345D09E1462A46500E086E
:1035600004E1466A010E016E04D001D0466A000EE5
:10357000016E000153EF2AF04FC655F64EC654F6C1
:103580000601525302E1535323E051C6EAF450C6F8
:10359000E9F4EF521DE055C603F55451542BD8B44D
:1035A000552B566F03C557F651C6EAF45051502BB0
:1035B000D8B4512BE96EEFC458F603C5EAF456C6E9
:1035C000E9F458C6EFF45251D8B453075207D9D78B
:1035D000525302E153530DE055C6EAF45451542BB3
:1035E000D8B4552BE96EEF6A5251D8B4530752073D
:1035F000EFD74EC601F54FC602F500017CEF27F06C
:1036000006014F51010A000109E0030A15E0120A00
:1036100021E0010A2DE0030A39E046D0050EEA6EEA
:10362000510EE96E000EB5EC01F00A000900F550EC
:10363000EE6E0009FBE145D0050EEA6E510EE96E13
:10364000000EC4EC01F00A000900F550EE6E00090E
:10365000FBE137D0050EEA6E510EE96E000ED5EC97
:1036600001F00A000900F550EE6E0009FBE129D0D7
:10367000050EEA6E510EE96E000EE5EC01F00A004F
:103680000900F550EE6E0009FBE11BD0050EEA6E55
:10369000510EE96E000EF6EC01F00A000900F5503B
:1036A000EE6E0009FBE10DD0050EEA6E510EE96EDB
:1036B000000E07EC02F00A000900F550EE6E00095A
:1036C000FBE1510E016E050E026EBAEF27F0EF52CC
:1036D00010E0EAC451F6E9C450F6EFC471F6B9EC53
:1036E0000DF051C6EAF450C6E9F4E92AD8B4EA2A42
:1036F000EED71200060164512F0807E26451390821
:1037000004E3300E645D676F03D0000E016E08D0D5
:1037100066C6EAF465C6E9F467C6EFF4010E016E09
:103720000001120006016C6B6D6B010E6E6F050ED1
:10373000DA6ED96A060E716F640E706F060EEA6E4D
:10374000680EE96E71C6E2F470C6E1F46EC66FF6FB
:10375000D890E550EE02F3506C23F4506D236F2F98
:10376000F7D76CC6DEF46DC66CF66D6BD8B06D2BFA
:10377000702BD8B4712B6E2B6E510508DFE1000160
:103780001200060164512F0807E26451390804E36E
:10379000300E645D676F17D06451600807E26451B2
:1037A000660804E3570E645D676F0DD064514008EE
:1037B00007E26451460804E3370E645D676F03D087
:1037C000000E016E08D066C6EAF465C6E9F467C665
:1037D000EFF4010E016E0001120055C65DF654C6ED
:1037E0005CF606015E91626B616B606B5F6B5DC640
:1037F000EAF45CC6E9F4EFC463F65A510A0844E1FE
:1038000063512B0809E15C2BD8B45D2B5DC6EAF44B
:103810005CC6E9F4EFC463F663C664F6060E666F31
:103820005B0E656F000166DF015201E12BD062C6BD
:1038300067F661C666F660C665F65FC664F60601A1
:103840006B6B6A6B696B0A0E686F00016BDF03C5F7
:1038500062F602C561F601C560F600C55FF60601B5
:103860005B515F27000E6023612362235E815C2B26
:10387000D8B45D2B5DC6EAF45CC6E9F4EFC463F628
:10388000CBD7000134D006015A5110082FE163C68E
:1038900064F6060E666F5B0E656F000172DF015203
:1038A00001E125D006015F376037613762375F3746
:1038B0006037613762375F376037613762375F374C
:1038C000603761376237F00E5F175B515F27000E7C
:1038D0006023612362235E815C2BD8B45D2B5DC6BF
:1038E000EAF45CC6E9F4EFC463F6D1D7000106013F
:1038F0005EA119D057C6EAF456C6E9F45FC6EFF4E4
:1039000060C6ECF461C6ECF462C6ECF459C6EAF4A5
:1039100058C6E9F45DC6ECF4ED525CC6EFF4010E56
:10392000016E0CD00BD059C6EAF458C6E9F455C65E
:10393000ECF4ED5254C6EFF4000E016E00011200DB
:103940002CC5EAF42BC5E9F4060150C6EFF4E92AC8
:10395000D8B4EA2AEF6A2B2AD8B42C2A0001120024
:1039600006014FBF11D00F0E006E4E3900160A0E21
:10397000005C03E2300E002602D04F51002600C545
:1039800050F60001DDDF06010F0E4E170A0E4E5DE8
:1039900002E2300E02D04F9F4F514E274EC650F6D6
:1039A0000001CEDF12004750006E48C503F51F0E20
:1039B000485C04E13E0E005CD8B45CD01B0E035C96
:1039C00004E13F0E005CD8B463D01E0E035C04E13A
:1039D0003F0E005CD8B46AD01F0E035C04E1370EC2
:1039E000005CD8B471D01E0E035C04E1370E005C9D
:1039F000D8B478D00F0E035C04E13F0E005CD8B45D
:103A00007FD01F0E035C04E13C0E005CD8B486D06E
:103A10001F0E035C04E13B0E005CD8B48DD01F0E7A
:103A2000035C04E13F0E005CD8B494D01F0E035C2D
:103A300004E1BF0E005CD8B49BD01F0E035C04E110
:103A40007F0E005CD8B4A2D01C0E035C04E13F0ED4
:103A5000005CD8B4A9D01D0E035C04E12F0E005CFD
:103A6000D8B4B0D01F0E035C04E11F0E005CD8B4C4
:103A7000B7D0C4D0080EEA6E1E0EE96E000E58ECE8
:103A800000F00A000900F550EE6E0009FBE1D5D008
:103A9000080EEA6E1E0EE96E000E6BEC00F00A00D6
:103AA0000900F550EE6E0009FBE1C7D0080EEA6E82
:103AB0001E0EE96E000E7EEC00F00A000900F550C3
:103AC000EE6E0009FBE1B9D0080EEA6E1E0EE96E3B
:103AD000000E93EC00F00A000900F550EE6E0009AC
:103AE000FBE1ABD0080EEA6E1E0EE96E000EA4ECF0
:103AF00000F00A000900F550EE6E0009FBE19DD0D0
:103B0000080EEA6E1E0EE96E000EB6EC00F00A001A
:103B10000900F550EE6E0009FBE18FD0080EEA6E49
:103B20001E0EE96E000EC9EC00F00A000900F55007
:103B3000EE6E0009FBE181D0080EEA6E1E0EE96E02
:103B4000000EDBEC00F00A000900F550EE6E0009F3
:103B5000FBE173D0080EEA6E1E0EE96E000EEEEC6D
:103B600000F00A000900F550EE6E0009FBE165D097
:103B7000080EEA6E1E0EE96E000E21EC01F00A003E
:103B80000900F550EE6E0009FBE157D0080EEA6E11
:103B90001E0EE96E000E33EC01F00A000900F5502C
:103BA000EE6E0009FBE149D0080EEA6E1E0EE96ECA
:103BB000000E45EC01F00A000900F550EE6E000918
:103BC000FBE13BD0080EEA6E1E0EE96E000E57ECCC
:103BD00001F00A000900F550EE6E0009FBE12DD05E
:103BE000080EEA6E1E0EE96E000E67EC01F00A0088
:103BF0000900F550EE6E0009FBE11FD0080EEA6ED9
:103C00001E0EE96E000E7CEC01F00A000900F55072
:103C1000EE6E0009FBE1080E2C6E270E2B6E48C5D8
:103C20004EF6370E06014F6F00019ADE47C54EF67D
:103C3000370E06014F6F000193DE1E0E016E080E57
:103C4000026EECEF28F0050EEA6E340EE96E59C6EE
:103C50002EF658C62DF65EEC05F0015094EF1EF0DE
:103C6000060158530DE1596BD1BC592B540EF66E19
:103C7000110EF76E000EF86E000119DC0CD0060173
:103C8000596BD1BE592B5E0EF66E110EF76E000EFB
:103C9000F86E00010CDC060159530DE04F0E716FF8
:103CA0000001B9EC0DF04E0E0601716F0001B9EC88
:103CB0000DF00AD00601680EF66E110EF76E000EBA
:103CC000F86E000157EC1AF0120006014E91010E39
:103CD000506F4E95516BC80E526F080E536F020E07
:103CE000F66E100EF76E000EF86E000157EC1AF02B
:103CF00006014E934E954E97000178510400050140
:103D000098AF0BD0989F06014EB106D0502F04D02B
:103D1000C80E506F512B4E850501060E0601596FD6
:103D20004F0E586F00018FD7015214E006014F511A
:103D3000200807E1532B5351070801E2536B4E87CC
:103D400008D04F511B0804E10001FF0003D0060119
:103D50004E83000106014EA707D0516B4E854E9150
:103D6000BE88C698C08EC89E5351F80FD8B0EED00A
:103D7000080F0001AAEF1FF006014EA70AD03A0E65
:103D8000F66E100EF76E000EF86E000157EC1AF08A
:103D9000060151B102D0BE9801D0BE88C698D6D0D7
:103DA000000106014EA70AD04A0EF66E100EF76EFD
:103DB000000EF86E000157EC1AF0060151B102D066
:103DC000C09E01D0C08EC89EC1D0000106014EA782
:103DD00011D05A0EF66E100EF76E000EF86E00013E
:103DE00057EC1AF00601586B0001CBEC10F00601FD
:103DF000506B07D04EA505D04E81586B000130DFC7
:103E00000601A4D0000106014EA719D07E0EF66E61
:103E1000100EF76E000EF86E000157EC1AF01B6AD8
:103E2000D6BE1B8ED69E0601786B010E796F0001FF
:103E3000D6EC08F01BBED68E0601506B07D04EA5FF
:103E400005D04E81586B00010BDF06017FD00001C9
:103E500006014EA70AD0AC0EF66E100EF76E000EDD
:103E6000F86E000157EC1AF006011B6AD6BE1B8ED5
:103E7000D69E786B010E796F0001BCEC08F01BBE7A
:103E8000D68E060163D0000106014EA712D0D80ECF
:103E9000F66E100EF76E000EF86E000157EC1AF079
:103EA000010E0601586F0001CBEC10F00601506BBB
:103EB00008D04EA506D04E81010E586F0001D0DE0D
:103EC000060144D0000106014EA719D0FC0EF66E83
:103ED000100EF76E000EF86E000157EC1AF01B6A18
:103EE000D6BE1B8ED69E010E0601786F796F00013B
:103EF000D6EC08F01BBED68E0601506B08D04EA53E
:103F000006D04E81010E586F0001AADE06011ED0B8
:103F1000000106014EA70AD02A0EF66E110EF76EAA
:103F2000000EF86E000157EC1AF006011B6AD6BEAF
:103F30001B8ED69E010E786F796F0001BCEC08F0E5
:103F40001BBED68E060102D000010601D2D60001AA
:103F500058EF29F0E824F76AF736750FF66E3F0E32
:103F6000F722000EF86EFB6E0A00F550FA6E08009C
:103F7000F550F96E783DA23DCC3D063E503E883E60
:103F8000C63E123FEAC470F6E9C46FF6060169AF97
:103F900008D06F8F6FA96F2B681F691F682BD8B46B
:103FA000692B6939F0096B6F6B27E20F6C6F320F69
:103FB0006E6F69510F0B6C276C276E27E90F6D6FC1
:103FC0006D276D2768390F0B6D276E276D376E379C
:103FD0006E1F6E3768510F0B6E276B37070E6A6FB7
:103FE0000A0E6D076E27FDE36C076D27FDE36B0777
:103FF0006C27FDE36A076B27FDE3060EEA6E6A0E87
:10400000E96E070E6F156F9DED526F1507E16FB9E1
:10401000EE526FB903D0200E006E21D0E926000EBB
:10402000EA22E9506E0804E1EA50060801E16F8DCA
:10403000EF50006E08E16FBD06D06FB91ED06FB7AC
:1040400002D0200E0BD06FAF06D02D0E006EED50BB
:104050006F9D6F9F04D06F876F99300E0026EAC462
:1040600069F6E9C468F600C571F60001B9EC0DF017
:1040700069C6EAF468C6E9F40601EE506FADD1D71F
:104080000001120006015691D8905435576FC7822F
:10409000030E006E0400002EFDD7C784030E006ED1
:1040A0000400002EFDD7BF92C792030E006E0400DD
:1040B000002EFDD7BF94C79457C665F6010E666FF4
:1040C000060E686F550E676F00017AEC0CF0C79210
:1040D0000000C784CFA4FED7030E006E0400002E9C
:1040E000FDD700D00000C782030E006E0400002E32
:1040F000FDD7015203E1060156810001000E0601C1
:1041000056B1010E016E00011200080E0601666F25
:1041100000C567F6C782030E006E0400002EFDD7AF
:10412000C784CFA4FED7CFB2D880CFA2D890013613
:10413000030E006E0400002EFDD7C794BF94662FB7
:10414000E9D7C782030E006E0400002EFDD7BF9290
:104150006751D8A4C7920000C784CFA4FED7030E2E
:10416000006E0400002EFDD7BF94C794030E006EAE
:104170000400002EFDD7BF92C7920001D9EF20F0B6
:1041800064C6EAF463C6E9F40601622B61510109D1
:10419000696F000139EC0CF0015010E10601620773
:1041A0000BE0622D02D0006A02D0010E006E000109
:1041B000ACD701C5EEF4F2D7000E0001016E06EF98
:1041C00021F006015F91D89058350109606FC782D0
:1041D000030E006E0400002EFDD7C784030E006E90
:1041E0000400002EFDD7BF92C792030E006E04009C
:1041F000002EFDD7BF94C79460C661F6040E626FAF
:10420000060E646F5B0E636F0001BAD7C7920000A1
:10421000C784CFA4FED7030E006E0400002EFDD786
:1042200000D00000C782030E006E0400002EFDD7F0
:10423000015203E106015F81000106015FA10CD07C
:104240005AC6EAF459C6E9F45BC6EFF45CC6ECF46E
:104250005DC6ECF45EC6ECF4000E5FB1010E016EBB
:1042600000011200D8B204D0060EEA6E6E0EE96E9E
:10427000006A016A026A036A06016E6B6F6B706BFB
:10428000716B6D516C116B116A112CE0200E726F05
:10429000D89066376737683769376E376F3770374A
:1042A00071376D51715D08E16C51705D05E16B51C5
:1042B0006F5D02E16A516E5D0FE36A516E5F6B5193
:1042C000D8A06B3D6F5F6C51D8A06C3D705F6D5195
:1042D000D8A06D3D715FD8800036013602360336B6
:1042E000722FD6D76EC6EFF46FC6ECF470C6ECF43E
:1042F00071C6ECF400011200E95006015E6F3B0E3E
:10430000656F9A0E646FCA0E636F626B0A0E606F00
:10431000D882060EEA6E5A0EE96E5DC669F65CC674
:1043200068F65BC667F65AC666F665C66DF664C67D
:104330006CF663C66BF662C66AF6000193DF015045
:10434000005213E106016051010AD8A402D0000115
:104350000CD05E510CE00F0B605D01E010E25EBF1F
:104360000ED05EBD04D0200E03D006015E6B300E71
:10437000002600C571F60001B9EC0DF00601D892D7
:1043800065C669F664C668F663C667F662C666F611
:104390006D6B6C6B6B6B0A0E6A6F000163DF03C59C
:1043A00065F602C564F601C563F600C562F606014E
:1043B000602FAED70001120006014E51000A000125
:1043C00037E0030AD8B4AED0070AD8B4B0D01B0A7D
:1043D000D8B4B3D03F0AD8B4B6D0090AD8B4B9D04B
:1043E000030AD8B473D2010AD8B4D7D2070AD8B412
:1043F00049D3010AD8B4BCD3030AD8B42EEF26F0AF
:104400001A0AD8B4A4EF26F0090AD8B4C2EF26F0ED
:10441000030AD8B4C7EF26F0620AD8B4CCEF26F06E
:10442000AE0EF66E0D0EF76E000EF86E57EC1AF02B
:10443000BE0EF66E0D0EF76E000EF86E57EC1AF00B
:10444000C60EF66E0D0EF76E000EF86E57EC1AF0F3
:10445000DC0EF66E0D0EF76E000EF86E57EC1AF0CD
:10446000EC0EF66E0D0EF76E000EF86E57EC1AF0AD
:10447000040EF66E0E0EF76E000EF86E57EC1AF084
:104480001A0EF66E0E0EF76E000EF86E57EC1AF05E
:104490002C0EF66E0E0EF76E000EF86E57EC1AF03C
:1044A000480EF66E0E0EF76E000EF86E57EC1AF010
:1044B000640EF66E0E0EF76E000EF86E57EC1AF0E4
:1044C000800EF66E0E0EF76E000EF86E57EC1AF0B8
:1044D0009C0EF66E0E0EF76E000EF86E57EC1AF08C
:1044E000B80EF66E0E0EF76E000EF86E57EC1AF060
:1044F000D40EF66E0E0EF76E000EF86E57EC1AF034
:10450000F40EF66E0E0EF76E000EF86E57EC1AF003
:10451000140EF66E0F0EF76E000EF86E57EC1AF0D2
:10452000E9EF26F00601196B0001E9EF26F0010E14
:104530000601196F0001E9EF26F019C658F6CBEC19
:1045400010F0E9EF26F019C653F6A6EC10F0E9EFEB
:1045500026F0300E06011925536F1951290DF3501D
:10456000556B546F140E5425016E000E5521036EC9
:104570000150C70FE96E050E0320EA6EECC455F634
:10458000ED52EFC454F61951290DF350576B566F85
:10459000160E5625016E000E5721036E0150C70FEF
:1045A000E96E050E0320EA6EECC457F6ED52EFC437
:1045B00056F61951290DF350596B586F180E58259E
:1045C000016E000E5921036E0150C70FE96E050EF2
:1045D0000320EA6EECC459F6ED52EFC458F61951B7
:1045E000290DF3505B6B5A6F1A0E5A25016E000E9F
:1045F0005B21036E0150C70FE96E050E0320EA6EC2
:10460000ECC45BF6ED52EFC45AF61951290DF35084
:104610005D6B5C6F1C0E5C25016E000E5D21036EF0
:104620000150C70FE96E050E0320EA6EECC45DF67B
:10463000ED52EFC45CF61951290DF3505F6B5E6FBC
:104640001E0E5E25016E000E5F21036E0150C70F26
:10465000E96E050E0320EA6EECC45FF6ED52EFC47E
:104660005EF61951290DF350616B606F200E6025C5
:10467000016E000E6121036E0150C70FE96E050E39
:104680000320EA6EECC461F6ED52EFC460F61951F6
:10469000290DF350636B626F220E6225016E000ECE
:1046A0006321036E0150C70FE96E050E0320EA6E09
:1046B000ECC463F6ED52EFC462F61951290DF350C4
:1046C000656B646F240E6425016E000E6521036E18
:1046D0000150C70FE96E050E0320EA6EECC465F6C3
:1046E000ED52EFC464F61951290DF350676B666FF4
:1046F000260E6625016E000E6721036E0150C70F5E
:10470000E96E050E0320EA6EECC467F6ED52EFC4C5
:1047100066F6430E716F0001B9EC0DF053C671F6E9
:10472000B9EC0DF0330EF66E0F0EF76E000EF86E4C
:10473000040E0601686F0001DDEC0DF0100EE96E4D
:1047400055C669F654C668F68CEC0FF03A0EF66E54
:104750000F0EF76E000EF86E040E0601686F000172
:10476000DDEC0DF0100EE96E57C669F656C668F618
:1047700009DC410EF66E0F0EF76E000EF86E070E96
:104780000601686F0001DDEC0DF0100EE96E59C6F0
:1047900069F658C668F6C2EC1FF04B0EF66E0F0EA7
:1047A000F76E000EF86E050E0601686F0001DDEC75
:1047B0000DF0100EE96E5BC669F65AC668F68CEC11
:1047C0000FF0530EF66E0F0EF76E000EF86E050E1C
:1047D0000601686F0001DDEC0DF0100EE96E5DC69C
:1047E00069F65CC668F68CEC0FF05B0EF66E0F0E89
:1047F000F76E000EF86E050E0601686F0001DDEC25
:104800000DF0100EE96E5FC669F65EC668F6C2EC82
:104810001FF0630EF66E0F0EF76E000EF86E050EAB
:104820000601686F0001DDEC0DF0100EE96E61C647
:1048300069F660C668F68CEC0FF06B0EF66E0F0E24
:10484000F76E000EF86E050E0601686F0001DDECD4
:104850000DF0100EE96E63C669F662C668F6C2EC2A
:104860001FF0730EF66E0F0EF76E000EF86E050E4B
:104870000601686F0001DDEC0DF0100EE96E65C6F3
:1048800069F664C668F6C2EC1FF07B0EF66E0F0E7A
:10489000F76E000EF86E050E0601686F0001DDEC84
:1048A0000DF0100EE96E67C669F666C668F6C2ECD2
:1048B0001FF0200E0601716F0001B9EC0DF00A0E19
:1048C0000601716F0001B9EC0DF083D20601195396
:1048D00002E0630E01D0600E536F546F1B0E556FD4
:1048E000000142EC20F00601195302E0630E01D0F2
:1048F000600E536F1951290DF350556B546FC70E4D
:104900005425016E050E5521036E01C556F6576FED
:1049100053C658F65A6F01C559F6000152DC300EE5
:1049200006011925536F1951290DF350556B546F1A
:10493000C70E5425E96E050E5521EA6EEFC456F6F2
:10494000ECC457F6ECC458F6ECC459F6430E716F3C
:104950000001B9EC0DF053C671F6B9EC0DF0890EFB
:10496000F66E0F0EF76E000EF86E060E0601686FFB
:104970000001DDEC0DF0410EE96E59C65DF658C63A
:104980005CF657C65BF656C65AF6B6DC0A0E06014A
:10499000716F0001B9EC0DF01CD20601195302E051
:1049A000630E01D0600E536F546F1C0E556F0001E3
:1049B00042EC20F00601195302E0630E01D0600EB4
:1049C000536F1951290DF350556B546F040E542534
:1049D000016E000E5521036E0150C70F016E050ECA
:1049E000032201C554F603C555F653C658F603C550
:1049F0005AF601C559F60001E1EC20F0300E06012F
:104A00001925536F1951290DF350556B546F040E2E
:104A10005425016E000E5521036E0150C70FE96E3B
:104A2000050E0320EA6EEFC454F6ECC455F6ECC450
:104A300056F6ECC457F6430E716F0001B9EC0DF059
:104A400053C671F6B9EC0DF0970EF66E0F0EF76EB9
:104A5000000EF86E060E0601686F0001DDEC0DF029
:104A6000410EE96E57C65DF656C65CF655C65BF656
:104A700054C65AF641DC0A0E0601716F0001B9EC0A
:104A80000DF0A7D10601195302E0630E01D0600EAC
:104A9000536F546F1D0E556F000142EC20F006015C
:104AA000195302E0630E01D0600E536F1951290DA6
:104AB000F350556B546F080E5425016E000E5521AE
:104AC000036E0150C70F016E050E032201C554F697
:104AD00003C555F653C658F603C55AF601C559F62F
:104AE0000001E1EC20F0300E06011925536F195139
:104AF000290DF350556B546F080E5425016E000EAE
:104B00005521036E0150C70FE96E050E0320EA6EB2
:104B1000EFC454F6ECC455F6ECC456F6ECC457F6A4
:104B2000430E716F0001B9EC0DF053C671F6B9EC8C
:104B30000DF0A50EF66E0F0EF76E000EF86E060E57
:104B40000601686F0001DDEC0DF0410EE96E57C6FD
:104B50005DF656C65CF655C65BF654C65AF67CEC56
:104B600021F00A0E0601716F0001B9EC0DF031D190
:104B70000601195302E0630E01D0600E536F546FAB
:104B80001E0E556F000142EC20F00601195302E0A1
:104B9000630E01D0600E536F1951290DF350556B00
:104BA000546F0C0E5425016E000E5521036E0150FA
:104BB000C70F016E050E032201C554F603C555F655
:104BC00053C658F603C55AF601C559F60001E1EC83
:104BD00020F0300E06011925536F1951290DF3509D
:104BE000556B546F0C0E5425016E000E5521036E4B
:104BF0000150C70FE96E050E0320EA6EEFC454F6AC
:104C0000ECC455F6ECC456F6ECC457F6430E716F7F
:104C10000001B9EC0DF053C671F6B9EC0DF0B30E0E
:104C2000F66E0F0EF76E000EF86E060E0601686F38
:104C30000001DDEC0DF0410EE96E57C65DF656C67B
:104C40005CF655C65BF654C65AF67CEC21F00A0EAB
:104C50000601716F0001B9EC0DF0BBD006011953CC
:104C600002E0630E01D0600E536F546F1F0E556F3C
:104C7000000142EC20F00601195302E0630E01D05E
:104C8000600E536F1951290DF350556B546F100E70
:104C90005425016E000E5521036E0150C70F016EA1
:104CA000050E032201C554F603C555F653C658F642
:104CB00003C55AF601C559F60001E1EC20F0300EAB
:104CC00006011925536F1951290DF350556B546F77
:104CD000100E5425016E000E5521036E0150C70FB2
:104CE000E96E050E0320EA6EEFC454F6ECC455F6E7
:104CF000ECC456F6ECC457F6430E716F0001B9ECE4
:104D00000DF053C671F6B9EC0DF0C10EF66E0F0E34
:104D1000F76E000EF86E060E0601686F0001DDECFE
:104D20000DF0410EE96E57C65DF656C65CF655C6E7
:104D30005BF654C65AF67CEC21F00A0E0601716F40
:104D40000001B9EC0DF045D00601195302E0630EE5
:104D500001D0600E536F5D6F1B0E5E6F52C662F620
:104D600051C661F650C660F64FC65FF6000193EC7F
:104D70000CF0CC0EF66E0F0EF76E000EF86E57ECC0
:104D80001AF027D019C653F681EC10F022D019C6BC
:104D900053F693EC10F01DD00601195302E0630E98
:104DA00001D0600E536F5D6F0B0E5E6F52C662F6E0
:104DB00051C661F650C660F64FC65FF6000193EC2F
:104DC0000CF0D20EF66E0F0EF76E000EF86E57EC6A
:104DD0001AF0120055C65DF654C65CF606015E91E7
:104DE0005F6B5DC6EAF45CC6E9F4EFC460F65A5145
:104DF0000A082DE160512B0809E15C2BD8B45D2B2A
:104E00005DC6EAF45CC6E9F4EFC460F660C664F619
:104E1000060E666F5B0E656F00017AEC1BF00152A7
:104E200001E113D006015F510A0DF3C45FF65B5137
:104E30005F275E815C2BD8B45D2B5DC6EAF45CC64F
:104E4000E9F4EFC460F6E2D7000123D006015A511D
:104E500010081EE160C664F6060E666F5B0E656F95
:104E60000001C1EC1BF0015201E113D006015F51BA
:104E7000100DF3C45FF65B515F275E815C2BD8B4E5
:104E80005D2B5DC6EAF45CC6E9F4EFC460F6E2D7D8
:104E9000000106015EA113D057C6EAF456C6E9F434
:104EA0005FC6EFF459C6EAF458C6E9F45DC6ECF4FF
:104EB000ED525CC6EFF4010E016E0CD00BD059C65A
:104EC000EAF458C6E9F455C6ECF4ED5254C6EFF4D2
:104ED000000E016E000184EF29F0060E06014F6FEF
:104EE000380E4E6F37C651F636C650F6536B090E64
:104EF000526F0001BCEF1AF006014D9138513F0886
:104F0000D8A49FD039513F0826E13A5324E100014B
:104F1000E3EC0CF001C54EF6C80EF66E040EF76E0B
:104F2000000EF86E050E0601686F0001DDEC0DF055
:104F30004EC64FF6370E0601506F0001F5EC0DF02E
:104F40000A0E0601716F0001B9EC0DF0EFEC0FF0E5
:104F500006014D8175D0395373E100016CEC1AF0F4
:104F600006011BC601F501C54EF601C54FF600014D
:104F700000EF1BF002C54FF601C54EF6D40EF66EDB
:104F8000040EF76E000EF86E0E0E0601686F00013B
:104F9000DDEC0DF04FC6EAF44EC6E9F467EC1BF009
:104FA0000A0E0601716F0001B9EC0DF0E60EF66E07
:104FB000040EF76E000EF86E57EC1AF0080EF66E3F
:104FC000050EF76E000EF86E57EC1AF0300EF66E06
:104FD000050EF76E000EF86E57EC1AF04C0EF66EDA
:104FE000050EF76E000EF86E57EC1AF0620EF66EB4
:104FF000050EF76E000EF86E57EC1AF07E0EF66E88
:10500000050EF76E000EF86E57EC1AF0920EF66E63
:10501000050EF76E000EF86E57EC1AF0B00EF66E35
:10502000050EF76E000EF86E57EC1AF0EE0EF66EE7
:10503000050EF76E000EF86E57EC1AF006014D8162
:10504000B3D1385161080BE13951630808E13A5393
:1050500005E10001EFEC0FF006014D81A5D13851BB
:105060006408D8A46FD0395162086CE13A516708DE
:1050700069E13B5302E14D812ED03B513D082BE1CC
:10508000040E3625016E000E3721036E01C54EF663
:105090004F6F556F01C554F6060E576F410E566F90
:1050A000060E596F360E586F100E5A6F0001EDEC58
:1050B0001BF0015211E037C6EAF4060136C6E9F4E6
:1050C000EF5209E144C62AF543C629F542C628F540
:1050D00041C627F54D81000106014DA132D00C0ECD
:1050E000F66E060EF76E000EF86E040E686F000185
:1050F000DDEC0DF02AC54FF6370E0601506F0001AA
:10510000F5EC0DF029C54FF6370E0601506F000182
:10511000F5EC0DF028C54FF6370E0601506F000173
:10512000F5EC0DF027C54FF6370E0601506F000164
:10513000F5EC0DF00A0E0601716F0001B9EC0DF0EF
:10514000060132D1385168080DE1395161080AE190
:105150003A516C0807E13B51740804E13C5301E10A
:10516000FFD722D1385170082CE13951720829E15A
:105170003A51740826E13B5301E14D814DA120D005
:105180000001E3EC0CF001C54EF6160EF66E060EAD
:10519000F76E000EF86E050E0601686F0001DDEC7B
:1051A0000DF04EC64FF6370E0601506F0001F5ECBC
:1051B0000DF00A0E0601716F0001B9EC0DF0060149
:1051C000F3D03851720827E13951630824E13A538A
:1051D00021E10001D3EF1CF002C54FF601C54EF6E8
:1051E000220EF66E060EF76E000EF86E030E060126
:1051F000686F0001DDEC0DF04FC6EAF44EC6E9F42D
:1052000067EC1BF00A0E0601716F0001B9EC0DF09E
:1052100006014D81C9D0385172080CE1395173082B
:1052200009E13A51740806E13B5303E10001FF0034
:105230000601BAD03851730827E13951730824E1C7
:105240003A5321E10001AFEC0AF001C54EF62A0EF7
:10525000F66E060EF76E000EF86E030E0601686F0E
:105260000001DDEC0DF04EC64FF6370E0601506F13
:105270000001F5EC0DF00A0E0601716F0001B9ECAA
:105280000DF006014D8190D03851740814E1395168
:10529000730811E13A5174080EE13B5161080BE1CA
:1052A0003C51730808E13D5305E1000165EF1EF034
:1052B00006014D8179D038517408D8A475D039537E
:1052C0000BE14E6B526B516B506B4F6B0001DCEC82
:1052D00021F006014D8168D0010E3625016E000EC9
:1052E0003721036E01C54EF64F6F556F01C554F659
:1052F000060E576F410E566F060E596F360E586FD9
:105300000A0E5A6F000166D501524FE037C6EAF423
:10531000060136C6E9F4EF50200806E1362BD8B472
:10532000372B0001F3D7060137C603F536C6E9F47B
:1053300003C5EAF4EF520CE141C64EF6526B516BD5
:10534000506B4F6B0001DCEC21F006014D812CD03D
:1053500037C655F636C654F6060E576F450E566FCD
:10536000060E596F360E586F0A0E5A6F0001EDEC9B
:105370001BF001521AE037C6EAF4060136C6E9F41A
:10538000EF52D8B402D0000110D041C64EF648C644
:1053900052F647C651F646C650F645C64FF60001CE
:1053A000DCEC21F006014D81000106014DB10AD06F
:1053B000340EF66E060EF76E000EF86E000157EC16
:1053C0001AF0060100012EEF2AF006013591345142
:1053D0000D0802E1358130D033923451080816E1CE
:1053E000325213E0080E716F0001B9EC0DF0200E7F
:1053F0000601716F0001B9EC0DF0080E0601716F26
:105400000001B9EC0DF03206060116D034511F0828
:1054100013E234517E0810E332501D080DE034C60B
:1054200071F60001B9EC0DF03250322AE96E080E27
:10543000EA6E34C6EFF4060135A114D00A0E716F7E
:105440000001B9EC0DF032C5E9F4080EEA6EEF6A1E
:10545000080E0601376F366B00013FD5326A86ECC5
:105460001AF0060100015AEF2AF0060E06012E6F0F
:10547000330E2D6F000134EC0DF001521BE00601DC
:1054800033530CE1346B000154EC1AF00201BF9F5E
:10549000BE99BE9B050198950ED0060133C634F621
:1054A0000001A5EF1AF0015202E0FCEFFFF033C655
:1054B00034F68BD7050100010AEF2DF034C635F61E
:1054C0000601355302E0BE9801D0BE88C69800019F
:1054D0001200060134912951285D03E029C628F6FF
:1054E00034812851540A000103E01D0A12E011D052
:1054F000060134A107D02C91030E2B6FE80E2A6F02
:105500002C932C812CA303D0490E296F03D00001CA
:1055100000D0060100016BEF2DF0016A026A006AFB
:10552000036A06013B5102E13A5118E0100E3C6F4C
:10553000D89038373937003603363B51035C02E1E7
:105540003A51005C07E33A51005ED8A003063B5194
:10555000035ED880013602363C2FEAD700011200E4
:1055600006013493D6AE05D0D69CD69ED6BEFDD7C6
:105570003483060E386F330E376F4B50495C06E1AB
:105580004C504A5C03E1000E016E1DD038C603F595
:105590004F504B24E96E50504C20EA6EEFC43BF65E
:1055A00003C5EAF437C6E9F43BC6EFF44B2AD8B496
:1055B0004C2A4D504B5C05E14E504C5C02E14C6A6C
:1055C0004B6A010E016E349101B0348134A302D0D4
:1055D000C00ED61234A106D033C671F60001B9EC64
:1055E0000DF0060134B1BDD70001A6EF2EF0F86A28
:1055F000D69A078E0E01550E0201006FAA0E006F9B
:105600000091000E616F010E626F0C0E636F0D0E44
:10561000646F150E656F160E666F140E706F130EA5
:10562000716F0E0E746F230E106F370E146F380EDD
:10563000156F070E1A6F080E1C6F550E006FAA0E1D
:10564000006F0081FE0E006E030E016E020EE96E09
:10565000050EEA6EEE6A002EFDD7012EFBD7000183
:10566000B06BAF6BB36B080EB16F600EAD6F1E6A9F
:105670001F6A216A206A226A1E6A1F6AA680246A3B
:10568000236A266A256A246A236A266A256A2A6AA0
:10569000296A286A276A2C6A2B6A326A3390036A5D
:1056A000000E026E1A0E016E240E006E03C537F551
:1056B00002C536F501C535F500C534F5036A000E9F
:1056C000026E1A0E016E2A0E006E03C53BF502C56E
:1056D0003AF501C539F500C538F5036A000E026ECA
:1056E000020E016E6A0E006E03C53FF502C53EF55F
:1056F00001C53DF500C53CF533943396436A446AD1
:105700003388456A339A339C0501636B646B656B20
:10571000020E666F030E676F339E0601196B05015B
:10572000989506011A6B05019897989906011E6BCA
:10573000010E1F6F0501989B989D580E0601286F5A
:10574000540E296F2C912C930401006B086B106B85
:10575000186B206B286B0001716B726B736B706B35
:10576000756B766B776B746B2D6A3392406A466A01
:10577000496A4A6A4B6A4C6AF40E4D6E010E4E6ECF
:10578000080E506E340E4F6EBE88C698C08EC89EEE
:10579000BFEF09F0B06BAF6BB36B080EB16F600E6B
:1057A000AD6F040104690C69070E0001796F130ED7
:1057B000786F03013F6B3D6B010E3E6F7C0E3B6FBC
:1057C000C70E3C6F000EF86F0401006F086F106F7A
:1057D000186F206F286F030E0301F86F080EF56F26
:1057E000F66B0F0EFA6FEF6BEE6BE76B800EF36FDD
:1057F000830ED76F0001E4EF09F03E0E06011A6F29
:10580000010E1B6F276B266B0001C5EF0AF0D9EF65
:105810000BF0036A000E026E1A0E016E680E006E27
:1058200006013E6B02C53DF601C53CF6E8C43BF6F9
:10583000036A000E026E1B0E016E4C0E006E060116
:10584000426B02C541F601C540F6E8C43FF6036A63
:10585000000E026E1B0E016E660E006E06013A6BA4
:1058600002C539F601C538F6E8C437F60601466BBD
:10587000000102C545F601C544F6E8C443F61FEF32
:105880000CF00201889F888D88838891889B888985
:1058900004010A850201899F898D89838991899BE9
:1058A000898904010A8306012F6B2F5101083DE30A
:1058B0002F5302E0600E01D0630E306F5D6F2F0E2C
:1058C0005E6F4F0E626F700E616F650E606F6E0ED1
:1058D0005F6F000193EC0CF006012F5302E0600EA5
:1058E00001D0630E306F5D6F1F0E5E6F626B616B78
:1058F000010E606FFC0E5F6F000193EC0CF006016F
:105900002F5302E0600E01D0630E306F5D6F1D0EED
:105910005E6F626B090E616FE00E606F5F6B00017E
:1059200093EC0CF006012F2BC0D70201878F878DD7
:1059300087838791040112870201868F868D868373
:1059400086910401128912871289C896C8980201AB
:10595000906B916B926B936B9B8D800E946F959176
:10596000968D87938781869386810001E3EC0CF006
:1059700001C52FF62FC631F6060E0601336F300E25
:10598000326F0001E8EF0CF030C631F607EF0DF092
:10599000B594A584BD96AD8604010F919E8E0E81AF
:1059A0000D910F979E8E0E870D970F990E990F9B55
:1059B0000E9BC00ED61200017851040072EF0EF05B
:1059C000D9EF10F052EF1AF0050198B51FD0C78C2F
:1059D000CFAC1CD098850201BF9FC79EBF8EB00E72
:1059E000BE6FC26B8A0EC16FC06BBF8FAA0E06015D
:1059F000346F000154EC1AF018EC0DF000A003D045
:105A00001FEC0DF0F9D793EF1AF0050198A503D01C
:105A100000012BD505012D5014080CE1010E0601E3
:105A2000346F00014BDD3394050E426EDC0E416E87
:105A30003384050133A64DD0339633A806D033986E
:105A4000339A43C544F5070E456E000E33AA010E86
:105A50000601316F346F000131DD44520BE13394A4
:105A6000010E426EF40E416E338433AA01D03388A6
:105A7000337A2ED033BA18D0339444C500F545504C
:105A8000016E04E0D8900032012EFCD700A004D0B3
:105A9000010E036E900E02D0036A640E416E03C5C0
:105AA00042F53384338A14D03394455204E0010E16
:105AB000036EF40E03D0030E036EE80E416E03C5B1
:105AC00042F53384455202E1338802D04506339AC9
:105AD00005010001FED40601316B31510108D8A047
