This line prevents the file loading into a hex programmer. Use Loader method instead. 
:040000003CEF4AF097
:0800080000C504F501C505F572
:1000100002C506F5076A03C508F50001F5C409F530
:10002000F6C40AF5F7C40BF5F8C40CF5A5A41CEF4B
:1000300000F0B5B4B9EF06F0A6A022EF00F0B6B01C
:1000400032EF02F0A6A228EF00F0B6B253EF02F0B2
:10005000A9A62EEF00F0B9B647EF03F0ADA634EF36
:1000600000F0BDB606EF05F009C5F5F40AC5F6F4D3
:100070000BC5F7F40CC5F8F404C500F505C501F58A
:1000800006C502F5078E08C503F51100F76AA00F33
:10009000F66E000EF722000EF86E0900F550120001
:1000A000101112131415161718191A1B1C1D1E1FD8
:1000B00020212223242526274C4D4E4F50515253A8
:1000C0005455565758595A5B5C5D5E5F6062636475
:1000D00065666768696A6B6C6D6E6F707172737458
:1000E000F76AF40FF66E000EF722000EF86E0900A4
:1000F000F550120041435377697463680000F76A52
:10010000120FF66E010EF722000EF86E0900F55080
:10011000120045617274684C65616B61676500002F
:10012000F76A340FF66E010EF722000EF86E090022
:10013000F5501200444353776974636832345600B3
:10014000F76A540FF66E010EF722000EF86E0900E2
:10015000F550120044435377697463683438564C41
:100160005000F76A760FF66E010EF722000EF86E59
:100170000900F550120044435377697463683438BA
:1001800056485000F76A980FF66E010EF722000EDF
:10019000F86E0900F5501200496E76616C696400D2
:1001A000F76AB40FF66E010EF722000EF86E090022
:1001B000F550120053545200F76ACC0FF66E010E40
:1001C000F722000EF86E0900F55012002450535427
:1001D000524C4F414445522A313400007072743DF4
:1001E00024253032580A00002A204D6F64756C6552
:1001F000547970653A2025730A00000E016E1200D2
:10020000524F564D55582044435377697463685094
:1002100049432056312E3920323032362D30332D9D
:1002200032332031313A33323A333720436F7079E9
:10023000726967687428432932303235205354522A
:100240000000F76A560FF66E020EF722000EF86EE7
:100250000900F550120042524F574E4F55545F520D
:100260004553544152540000F76A7C0FF66E020E5B
:10027000F722000EF86E0900F5501200434F4E466B
:1002800049475F434F5252555054494F4E00F76A09
:10029000A20FF66E020EF722000EF86E0900F5505E
:1002A0001200494E544552525550545F46524F4DDC
:1002B0005F534C4545500000F76ACC0FF66E020EB6
:1002C000F722000EF86E0900F55012004D434C5213
:1002D0005F46524F4D5F52554E00F76AEE0FF66E75
:1002E000020EF722000EF86E0900F55012004D4381
:1002F0004C525F46524F4D5F534C45455000F76A94
:10030000120FF66E030EF722000EF86E0900F5507C
:1003100012004D454D4F52595F56494F4C4154497B
:100320004F4E0000F76A380FF66E030EF722000EEC
:10033000F86E0900F55012004E4F524D414C5F507F
:100340004F5745525F555000F76A5C0FF66E030E2B
:10035000F722000EF86E0900F55012005245534581
:10036000545F494E535452554354494F4E00F76A17
:10037000820FF66E030EF722000EF86E0900F5509C
:100380001200524553544152545F4E4F4E450000A7
:10039000F76AA40FF66E030EF722000EF86E09003E
:1003A000F5501200535441434B5F4F564552464C53
:1003B0004F570000F76AC80FF66E030EF722000EC3
:1003C000F86E0900F5501200535441434B5F554EEF
:1003D000444552464C4F5700F76AEC0FF66E030E39
:1003E000F722000EF86E0900F55012005744545FD2
:1003F00046524F4D5F534C4545500000F76A100F71
:10040000F66E040EF722000EF86E0900F550120089
:100410005744545F54494D454F555400F76A300FC7
:10042000F66E040EF722000EF86E0900F550120069
:100430005744545F57494E444F575F56494F4C41BC
:1004400054494F4E0000F76A5A0FF66E040EF72219
:10045000000EF86E0900F5501200556E6B6E6F7746
:100460006E2024000A0EEA6EC80EE96E3750E926A7
:10047000000EEA220201C5C239F5B4C2EFF439A276
:1004800004D0BE99C383C593BE89372A630ED88032
:10049000375401E2376A3850375C01E13B82B6904D
:1004A000000134EF00F000013F503D5C05E13E509B
:1004B0003C5C02E1A69216D00B0EEA6E2C0EE96EA1
:1004C0003E50E9263F50EA22EFC4B6F23E2AD8B4A5
:1004D0003F2A3F50010804E305E13E508F0802E245
:1004E0003F6A3E6AB69234EF00F02A206173202002
:1004F00020202020202053686F7720616C6C2061C1
:100500006E616C6F672076616C7565730A002A20D6
:100510006462675B3D3C6D3E5D204765742F73658B
:1005200074206465627567206D61736B2C20696E41
:10053000206865780A002A2064632020202020207B
:1005400020204765742044435377697463682063AF
:100550006F6E6669670A00002A2068616C7420204B
:100560002020202048616C7420287669612057443F
:1005700054290A002A207072742020202020202074
:1005800047657420706F72740A002A2072632020FD
:1005900020202020202052657374617274206361D2
:1005A0007573650A00002A207273742020202020B1
:1005B000202052657365740A00002A20736320208E
:1005C0002020202020204765742053797374656DA6
:1005D000436F6E6669670A002A207373202020200B
:1005E000202020204765742053797374656D5374FF
:1005F0006174650A00002A20743C6E3E205B3C70EA
:100600003E5D20446F2074657374206E756D626565
:1006100072203C6E3E2077697468206F7074696F39
:100620006E616C20706172616D65746572203C70E2
:100630003E0A00002A207473746173202020202059
:10064000446F20617373656D626C79207465737497
:100650000A006462673D256C580A00007072743DA0
:1006600024253032580A000072633D25730A0000C9
:1006700073733D253032580A00002A205479706582
:10068000203F20666F722068656C702E0A000001A2
:1006900005018F51010A00011BE0030A4FE0010A26
:1006A000D8B482D0070AD8B4B1D0010AD8B4E0D007
:1006B000030AD8B40BD1010AD8B436D10F0AD8B482
:1006C00069D1100E0301EC6F010E05018F6F97D1F8
:1006D00068C5D7F667C5D6F605016231036E61318C
:1006E000026E6031016E5F30006E03320232013201
:1006F0000032033202320132003200C567F501C513
:1007000068F567515F5E6851605B000E615B625B1C
:100710000301F3B1FED7EBC303F5EAC301F50150C2
:100720005F26035005016023000E61236223110E32
:100730000301EC6F020E05018F6F61D16AC5D9F616
:1007400069C5D8F605016631036E6531026E643104
:10075000016E6331006E0332023201320032033225
:1007600002320132003200C569F501C56AF56951EE
:10077000635F6A51645B000E655B665B0301F3B106
:10078000FED7EBC303F5EAC301F50150050163276A
:1007900003506423000E652366231C0E0301EC6FD7
:1007A000030E05018F6F2BD105016E31036E6D3184
:1007B000026E6C31016E6B31006E03320232013217
:1007C0000032033202320132003200C573F501C536
:1007D00074F573516B5F74516C5B000E6D5B6E5BF7
:1007E0000301F3B1FED7EBC303F5EAC301F50150F2
:1007F00005016B2703506C23000E6D236E23290E19
:100800000301EC6F040E05018F6FF9D00501723101
:10081000036E7131026E7031016E6F31006E033202
:10082000023201320032033202320132003200C59C
:1008300075F501C576F575516F5F7651705B000EE9
:10084000715B725B0301F3B1FED7EBC303F5EAC33F
:1008500001F5015005016F2703507023000E71232D
:100860007223160E0301EC6F050E05018F6FC7D0C2
:1008700005017A31036E7931026E7831016E77317C
:10088000006E033202320132003200C57FF501C52D
:1008900080F57F51775F8051785B000E795B7A5BE2
:1008A0000301F3B1FED7EBC303F5EAC301F5015031
:1008B0000501772703507823000E79237A23180E39
:1008C0000301EC6F060E05018F6F99D005017E3193
:1008D000036E7D31026E7C31016E7B31006E03321E
:1008E00002320132003200C581F501C582F5815125
:1008F0007B5F82517C5B000E7D5B7E5B0301F3B10D
:10090000FED7EBC303F5EAC301F5015005017B27D0
:1009100003507C23000E7D237E23120E0301EC6F17
:10092000070E05018F6F6BD005018631036E85318F
:10093000026E8431016E8331006E03320232013265
:10094000003203320232013200320332023201320B
:10095000003200C587F501C588F58751835F88514E
:10096000845B000E855B865B0301F3B1FED7EBC3AE
:1009700003F5EAC301F501500501832703508423E1
:10098000000E85238623150E0301EC6F080E05016A
:100990008F6F35D005018C31036E8B31026E8A3139
:1009A000016E8931006E03320232013200320332AD
:1009B000023201320032033202320132003200C50B
:1009C0008DF501C58EF58D51895F8E518A5B000EC4
:1009D0008B5B8C5B0301F3B1FED7EBC303F5EAC37A
:1009E00001F501500501892703508A23000E8B234E
:1009F0008C23100E0301EC6F010E05018F6F0301B4
:100A0000F3810000B996000134EF00F00001050108
:100A1000DEA311D006014D51D8B44E074D07D8B40E
:100A200002D0050108D04E53D8B402D0050103D03E
:100A30000501DE93DE85CEA109D0CC51D8B4CD0717
:100A4000CC2F04D0CD5302E1CE91CE83D6A109D0D4
:100A5000D451D8B4D507D42F04D0D55302E1D691C0
:100A6000D68358A804D0DD2F02D05898588A0601A2
:100A70006F2BD8B4702B7051020811E2FF0A03E10A
:100A80006F51E7080CE2E80E6F5F030E705B010E1A
:100A90006B27D8B06C2BD8B46D2BD8B46E2B73A148
:100AA00009D07151D8B47207712F04D0725302E18A
:100AB000739173830501E2A104D0DF2F02D0E2839A
:100AC000E291E6A104D0E32F02D0E683E691DE8B2B
:100AD000BD96000134EF00F0D8C657F55650575C6C
:100AE00002E15D6A07D0575203E1010E5D6E02D04C
:100AF000020E5D6E5A6A5890DDEF06F0DCC6EAF42D
:100B00000601DBC6E9F4EFC4C7F5ECC4C8F5ECC4D4
:100B1000C9F5ECC4CAF558840001F1EF05F05D5049
:100B20000208D8B461D058B004D0D8C659F558805E
:100B30000AD05A50310807E35AC5E9F4080EEA6EA4
:100B4000D8C6EFF45A2A5D50010A03E0010A02E018
:100B50004BD04AD05950210A05E0120A06E0730A28
:100B600029E041D0FCEFFFF03ED05A5222E0010EC6
:100B7000080100255A5CD8B402D000011AD05A509E
:100B8000040816E1080E0601DA6F010ED96FDAC605
:100B9000DCF6D9C6DBF6DCC6E2F4DBC6E1F4E6C47B
:100BA00054F6E6C455F6E6C456F60501DE8908019A
:100BB000000119D05A5215E0010E080100255A5CB7
:100BC000D8B402D000010DD05A5005080BE1080E30
:100BD0000601DA6F010ED96FDAC6DCF6DB6F0001B1
:100BE0008DD70801000100D0E3EF06F05750060151
:100BF000D85D02E0020E5D6E5C6A5B6A0001F5EF93
:100C000006F0B00E016E050E026E25EF06F006012D
:100C1000D86B5D500208D8B49CD05C52D8A48CD05C
:100C20005D50010A000103E0010A02E084D083D094
:100C30005950320A09E0060A22E0AD0A50E0B90A2A
:100C400063E0030A6AE076D0DCD702C5EBF601C5A3
:100C5000EAF6080EEA6E330EE96EEBC6E2F4EAC677
:100C6000E1F4170E016EE6C4EEF4012EFCD7170E68
:100C70000801326F010E32255C6E00015BD0050168
:100C8000E8C501F501C5DAF6010E0601DB6F090EB4
:100C9000DC6FDD6BDE6B070EE06FEA0EDF6F030EBD
:100CA000E16F170EE26F0B0EE36F200EE46F250E5F
:100CB000E56F080EEA6E330EE96E060EE26EDA0E8E
:100CC000E16E100E016EE6C4EEF4012EFCD7100E9C
:100CD0000801326F010E32255C6E00012BD0080E28
:100CE000EA6E330EE96E000ED0EC00F00A00090047
:100CF000F550EE6E0009FBE1040E0801326F010EA3
:100D000032255C6E000116D0070E0801326F040E0A
:100D1000336F020E5C6E00010DD0030E0801326FBE
:100D20003D0E336F0D0E346F0A0E356F010E3225F6
:100D30005C6E000100D006015C505B5C0AE2036A55
:100D40005B50320FE96E080E0320EA6EEFC4D8F64E
:100D50005B2AD8C601F50001F8EF06F0020199B14F
:100D60008B519985D8C68CF29A6B94990001FDEF4E
:100D700006F00001020198B703D05E6A98B95E8E52
:100D80005E505E2A0601D66FD6517F081EE302012F
:100D9000959599B102D09AA7FCD798B78B5198A78F
:100DA0008E519A6B94990601D76FD65308E1D8906B
:100DB000D733D7C6D8F600018FD605D00601D7C6DF
:100DC000D8F60001ACD619D00601D65180080EE144
:100DD000020198B78B5198A78E510601D76FD89012
:100DE000D733D7C6D8F6000101D7060100010FD7C7
:100DF00001C5D7F6D7C6D8F6B1D734EF00F02057E3
:100E0000443A20436D643D24253032580A0020576F
:100E1000443A20446174613D24253032580A000070
:100E200057523A20416464723D2425303258000004
:100E30002054410020476C6F62616C0020496E763F
:100E4000616C696400002052443A20446174613D41
:100E500024253032580A000052523A20416464720C
:100E60003D2425303258000020496E76616C69645B
:100E700000004952513A2053746174653D24253075
:100E80003258000020577254413D24253032580A10
:100E90000000205772446174613D24253032580AA5
:100EA000000020526454413D24253032580A00008D
:100EB0000A4661696C206174206C696E6520256C3E
:100EC000753A2057616E743D256C7520476F743DEF
:100ED000256C75000A4661696C206174206C696E2E
:100EE0006520256C753A2057616E743D256C642031
:100EF000476F743D256C640054657374696E673A7E
:100F0000000020416C6C20476F6F6400416E616C83
:100F10006F67496E3A0A0000204F757470757456F9
:100F20006F6C746167655B25755D0000204F75749B
:100F300070757443757272656E745B25755D000023
:100F4000204F757470757443757272656E74526556
:100F500066002052656C617953746174655B257518
:100F60005D20202000002050434254656D70657262
:100F70006174757265202000496E76616C69642029
:100F8000746573743A0A000054657374733A0A0006
:100F900020312053746F70206E6F726D616C206F02
:100FA0007065726174696F6E0A0020322052657339
:100FB000756D65206E6F726D616C206F706572610A
:100FC00074696F6E0A00203320436F6E74726F6C09
:100FD000204368302028646566290A0020342043B5
:100FE0006F6E74726F6C204368310A003130204696
:100FF00045543A2047657420736174757261746951
:101000006F6E0A003131204645543A2053657420F2
:101010003D2064697361626C65640A003132204668
:1010200045543A20536574203D20656E61626C65BD
:10103000640A0000323020496C696D204765740AEB
:101040000000323120496C696D20536574203D20C9
:101050003C6D413E2C20696E206D410A0000333109
:101060002052656C61793A20536574203D20636C91
:101070006F7365640A0033322052656C61793A20DF
:10108000536574203D206F70656E0A003333205223
:10109000656C61793A20536574203D203C64757419
:1010A000793E2C20696E2070657263656E740A004B
:1010B0007361745B25755D3D25630A00496C696D3C
:1010C0005B25755D3D256C756D4120257525250ACF
:1010D0000000496C696D5B25755D3D256C756D4142
:1010E00020257525250A000053775B25755D202492
:1010F000253032583D3E24253032580A0000436FD7
:101100006E6669675B25755D3A0020496C696D3DC7
:10111000256C756D4100204F6E3D257500000D0A50
:101120002400505354524353564E414D00002C540A
:10113000696D65002C542F64444300002C4F5630D9
:101140002F6D56002C4F43302F6D41002C4F5631E0
:101150002F6D56002C4F43312F6D41005053545288
:1011600043535656414C00005754413A20436D6456
:101170003D496E766F6B654C6F616465720A000065
:101180005754413A20436D643D5374617475734DF7
:1011900032500A005754413A20436D643D44435352
:1011A00077697463684368616E6E656C436F6E66E1
:1011B00069675365740A00005254413A20436D64D4
:1011C0003D53746174757350324D0A005254413A64
:1011D00020436D643D4964656E744765740A000080
:1011E0005254413A20436D643D4D46525F49440A92
:1011F00000005254413A20436D643D485749440A27
:1012000000005254413A2053657269616C46726F16
:101210006D4C0000506F72743D253032582041648F
:1012200064723D253032580A00002323204D54209B
:101230004C5639302020434D20202020434D522051
:1012400020202020204F434D202020204F434D526E
:101250002020204F43430A00203C3D005353204DA3
:10126000533A2053533D242530325820464D3D24D7
:101270002530346C580A000053532025633D3E2529
:10128000630A000054657374206D6F64652E2050EE
:1012900072657373203C53706163653E20746F20E8
:1012A000636F6E74696E75652C206F72203C457398
:1012B000633E20746F20657869743A000A50434297
:1012C00054656D70657261747572653A20787878CE
:1012D00078782E7844656743000025382E316644BF
:1012E000656743000A52656C61795B305D204F7021
:1012F000656E2E2E2E000A52656C61795B305D2082
:10130000436C6F73656448502E2E2E000A52656C34
:1013100061795B305D20436C6F7365644C502E2E99
:101320002E000A52656C61795B315D204F70656EED
:101330002E2E2E000A52656C61795B315D20436C64
:101340006F73656448502E2E2E000A52656C6179C9
:101350005B315D20436C6F7365644C502E2E2E0004
:101360000A43757272656E744C696D69745B305DA9
:1013700020202030252500000A43757272656E74A6
:101380004C696D69745B305D202035302525000087
:101390000A43757272656E744C696D69745B305D79
:1013A00020313030252500000A43757272656E7455
:1013B0004C696D69745B315D20202030252500006B
:1013C0000A43757272656E744C696D69745B315D48
:1013D00020203530252500000A43757272656E7431
:1013E0004C696D69745B315D20313030252500001A
:1013F0000A46455430456E61626C65643A2053611B
:101400007475726174696F6E3D2E00000A46455412
:1014100031456E61626C65643A2053617475726126
:1014200074696F6E3D2E0000ECC4FAF4ECC4FBF45A
:10143000ED52ED52EFC4E8F4F96E1200D850600B93
:10144000006E0038016E0132070E0116F1B00194F2
:10145000F1A00184F1A40196F1B40186F1A20198F2
:10146000F1B20188F184F182F190F0C400F5F0A2AC
:10147000009000A201843F0EF06E01C579F600C510
:1014800078F64AEF4BF0060188513F0B0301EC6FF1
:1014900004006A0E006E002EFED7F3810000F3B147
:1014A000FED7EBC38AF6EAC389F606018A516608BD
:1014B00024E303E189517E0820E38A51330810E3D5
:1014C00003E189513E080CE38A51190806E303E160
:1014D00089519E0802E38B6B02D0010E8B6F0CD0FA
:1014E0008A514C0807E303E18951DE0803E3020E49
:1014F0008B6F02D0030E8B6F20D08A51990811E3B5
:1015000003E18951BE080DE38A51800807E303E136
:1015100089511E0803E3040E8B6F02D0050E8B6FFA
:101520000CD08A51B30807E303E189515E0803E355
:10153000060E8B6F02D0070E8B6F8BC601F5000174
:10154000120084C688F69FDF01340601876F873753
:101550008737F80E871785C688F6000194DF0601E5
:1015600087510110866F86C601F500018BEF4BF0A5
:101570000601846B8451020815E38451190DF35060
:10158000866B856FE90E8525E96E050E8621EA6E6C
:101590000501E851EF5C03E1060104D005010601F5
:1015A000842BE8D78451190DF350036AE90FE16EDB
:1015B000050E0320E26E050EEA6E1E0EE96E190E90
:1015C000016EE6C4EEF4012EFCD70001ACEF4BF047
:1015D00006014FC601F500011200A594050EEA6E42
:1015E000B00EE96E050EE26E990EE16E170E016EF9
:1015F000E6C4EEF4012EFCD7A5841200E9DF01C594
:10160000A9F50501AB6BAA6BAD6BAC6BAF6BAE6BA9
:101610000601846B8451010848E38451080DF3509E
:10162000866B856F990E8525E96E050E8621EA6E1B
:10163000EC6AED52EF6A8451080DF350866B856FAA
:10164000020E8525016E000E8621036E0150990F52
:10165000E96E050E0320EA6EEC6AED52EF6A8451E2
:10166000080DF350866B856F040E8525016E000E04
:101670008621036E0150990FE96E050E0320EA6E74
:10168000EF6A8451080DF350866B856F050E852532
:10169000016E000E8621036E0150990FE96E050E52
:1016A0000320EA6EEF6A842BB5D7846B845101085E
:1016B00049E38451080DF350866B856FCB0E852569
:1016C000E96E050E8621EA6E010EEF6E8451080D5B
:1016D000F350866B856F030E8525016E000E862103
:1016E000036E0150CB0FE96E050E0320EA6EEF90FA
:1016F0008451080DF350866B856F030E8525016EAE
:10170000000E8621036E0150CB0FE96E050E0320FB
:10171000EA6EEF928451080DF350866B856F040ECC
:101720008527000E8623030E8525016E000E862177
:10173000036E0150CB0FE96E050E0320EA6EEF6ACF
:10174000842BB4D7000149DF1CEF4CF093C661F63F
:1017500092C660F691C65FF690C65EF697C665F6CD
:1017600096C664F695C663F694C662F69BC669F69D
:101770009AC668F699C667F698C666F654EF4CF0B6
:101780000501E7C501F500011200060186513F0879
:1017900011E388C603F587C6E9F403C5EAF4036AD2
:1017A0008651000146EC00F0EF6E010E016E0AD08A
:1017B00009D0060188C6EAF487C6E9F4EF6A000E8C
:1017C000016E0001C5EF4CF086C656F5D890563430
:1017D0000601E8C490F20001C9EF4CF0010E006E62
:1017E0003850375CD8B4006A120004003850375CB7
:1017F000FCE00A0EEA6EC80EE96E3850E926000ECB
:10180000EA22EFC401F5382A630ED880385401E289
:10181000386A1200E3DF00A015D083C6EAF482C65E
:10182000E9F4EAC4C0F6E9C4BFF60001DEDFC0C6D1
:10183000EAF4BFC6E9F4015001C5EFF4010E016EF0
:1018400003D002D0000E016E12000601BE6BA6B2DC
:10185000010EBE6FA6923D503F5C04E314E13E5082
:101860003C5C11E33E503C5C006E3F503D58036EC3
:101870000050710F016E010E0358026E025213E107
:10188000015211E112D03C503E5C006E3D503F5879
:10189000036E0050FF0F016E000E0358026E0252DD
:1018A00002E1015202E0016A02D0010E016EBEB1F6
:1018B000A68200017DEF0CF00B0EEA6E2C0EE96E95
:1018C0003C50E9263D50EA22BEC6EFF43C2AD8B48B
:1018D0003D2A3D50010804E305E13C508F0802E237
:1018E0003D6A3C6A3E503C5C04E13F503D5CD8B4EC
:1018F0003B84A68282EF0CF0A8D701B007D082C645
:10190000BEF6DAD7010E016E03D002D0000E016ED2
:101910001200010E016E120091EF0CF078510400DC
:10192000FBD712000601BC510A080EE1060EEA6E52
:10193000620EE96E836B0D0E826F000175DD015240
:1019400004E1ECDF0601F2D70001060EEA6E620E3A
:10195000E96E0601836BBCC682F6000165DD0152AB
:1019600002E1DCDFF2D712000900F6C4B0F6F7C4DA
:10197000B1F6F8C4B2F6F5C4BCF6D4DFB0C6F6F4DE
:10198000B1C6F7F4B2C6F8F40601AF2F01D002D009
:101990000001EAD7000112000601A3BF11D00F0E0B
:1019A000006EA23900160A0E005C03E2300E00261B
:1019B00002D0A351002600C5BCF60001B3DF06012A
:1019C0000F0EA2170A0EA25D02E2300E02D0A39FF4
:1019D000A351A227A2C6BCF60001A4DF1200A9965B
:1019E00088C5A3F687C5A2F6A9860601A2C601F599
:1019F000A3C602F5000112000601A5C603F5031EE9
:101A0000A451FF0A5717035058170001120006018E
:101A1000A4515713A551581300011200E0DF02C56D
:101A20008AF601C589F60601A56B100EA46F0001A8
:101A3000E3DF06018A513C0804E30BE18951CC083D
:101A400008E28A5142080BE2FF0A03E18951330898
:101A500006E2A56B100EA46F0001D9DF0601050197
:101A6000DEA749D0E8C501F50150100A000105E0E4
:101A7000010A22E0030A20E03DD00601A56B020E18
:101A8000A46F0001B9DF060152A306D0A56B020EB8
:101A9000A46F0001BCDF0601A56B080EA46F000156
:101AA000ABDF060152A706D0A56B080EA46F00019C
:101AB000AEDF060100011ED00601A56B010EA46F6A
:101AC00000019ADF060152A106D0A56B010EA46F9A
:101AD00000019DDF0601A56B040EA46F00018CDFE1
:101AE000060152A506D0A56B040EA46F00018FDF7E
:101AF0000601000105010001120006018B915751FA
:101B000089158C6F58518A158D6F8C5302E18D5356
:101B100001E08B81000E8BB1010E016E000197EF89
:101B20000DF006018A6B1F0E896F0001E6D7015088
:101B30001200060189910501DEA709D00601515165
:101B40001008D8B402D0050102D089810501000E29
:101B5000060189B1010E016E000112000501DEA926
:101B60003DD0A59456C653F655C652F654C651F606
:101B7000DE99A584DE8740A631D05C0EF66E120E8B
:101B8000F76E000EF86E0B0E0601AF6F0001ECDE73
:101B900051C6A2F6370E0601A36F0001FDDE6B0EE3
:101BA000F66E120EF76E000EF86E050E0601AF6FA0
:101BB0000001DADE53C6A2F6370E0601A36F00015C
:101BC000EBDE52C6A2F6370E0601A36F0001E4DE7B
:101BD0000A0E0601BC6F0001A5DE05010601889111
:101BE00050514F5D25E040A020D0780EF66E120EC9
:101BF000F76E000EF86E030EAF6F0001B5DE4FC634
:101C0000BCF690DE3D0E0601BC6F00018BDE3E0E81
:101C10000601BC6F000186DE50C6BCF683DE0A0EEC
:101C20000601BC6F00017EDE060150C64FF68881BA
:101C30004F51010A000107E0030A1EE0120A35E0D5
:101C4000130A45E04DD0060188A10BD00501DE93B3
:101C5000030E06014E6FE80E4D6F0501DE95DE8323
:101C600006010501DEA506D0020E0601506F000137
:101C700037D00501000134D0060188A103D0050149
:101C8000DE9706010001CADE4CDF015205E0030EBB
:101C90000601506F26D000014CDF015205E0100E06
:101CA0000601506F00011CD01BD0B8DE3ADF015294
:101CB00005E0030E0601506F14D000013ADF015217
:101CC00005E1020E0601506F0CD0000109D0A6DE1E
:101CD00028DF015205E1010E0601506F000100D01E
:101CE00006010001D3EF4CF00601AA51016AA95D7B
:101CF00003E2A9C600F50CD0006A080EAB6FA93745
:101D00000036AA51005CD8B0006E0136AB2FF7D771
:101D1000000112000150A7C6A9F6640E0601AA6FC1
:101D20000001E2DF00C5A7F60150300E08E1060110
:101D3000A8A30FD0A8B70DD0A8B9200E04D00601D3
:101D4000A897A899A881012601C5BCF60001EADD83
:101D50000601A7C6A9F60A0EAA6F0001C5DF00C5D5
:101D6000A7F60150300E08E10601A8B70AD0A8A1D5
:101D700008D0A8B9200E0001012601C5BCF6D2DDAD
:101D80000601300EA727A7C6BCF60001CBDD120066
:101D9000EAC4B2F6E9C4B1F60601AB39F009AD6F99
:101DA000AD27E20FAE6F320FB06FAB510F0BAE2706
:101DB000AE27B027E90FAF6FAF27AF27AA390F0BB8
:101DC000AF27B027AF37B037B01FB037AA510F0BCE
:101DD000B027AD37070EAC6F0A0EAF07B027FDE393
:101DE000AE07AF27FDE3AD07AE27FDE3AC07AD2798
:101DF000FDE3060EEA6EAC0EE96E070EB115B19D5D
:101E0000E926000EEA22E950B00804E1EA5006088B
:101E100001E1B18DEF50006E08E1B1BD06D0B1B95E
:101E200015D0B1B702D0200E03D0B187B199300ED2
:101E30000026EAC4ABF6E9C4AAF600C5BCF6000168
:101E400071DDABC6EAF4AAC6E9F40601EE50B1AD05
:101E5000DAD70001120006019F6B9F510108D8A03C
:101E600082D0FE0EF66E100EF76E000EF86E070EA4
:101E7000AF6F000179DD9FC6A7F61B0E0601A86FA4
:101E8000000148DF5D0E0601BC6F00014BDD3A0E1C
:101E90000601BC6F000146DD06019F51080DF3509D
:101EA000A16BA06F040EA027000EA123010EA02598
:101EB000016E000EA121036E0150CB0FE96E050EDD
:101EC0000320EA6EECC4A1F6ED52EFC4A0F60A0EB0
:101ED000F66E110EF76E000EF86E060EAF6F000173
:101EE00043DD100EE96EA1C6ABF6A0C6AAF650DF20
:101EF0006D0E0601BC6F000115DD410E0601BC6FC1
:101F0000000110DD06019F51080DF350A16BA06F79
:101F1000040EA027000EA123030EA025016E000EC3
:101F2000A121036E0150CB0FE96E050E0320EA6E6E
:101F3000EFC4A0F6160EF66E110EF76E000EF86ED8
:101F4000040EAF6F000110DDA0C6A7F61B0E060140
:101F5000A86F0001DFDE0A0E0601BC6F0001E2DCA3
:101F600006019F2B7AD700011200A9968EC5AAF60A
:101F70008DC5A9F6A9860601A9C601F5AAC602F56E
:101F800000011200060157C601F558C602F500010E
:101F90006AEF14F08E0E006EC0C601F5BFC602F5E2
:101FA000036A015209E102C501F5026A080E005EEA
:101FB000015202E1006A08D0D89001BE04D0023676
:101FC00001360006F9D7019E12000601C251D8B4AD
:101FD00071D0006EC651D8B46DD0002604E3810ED6
:101FE000002668E204D07F0E005E64E363E0C3C6AF
:101FF000CAF6C751CA1BC38FC78FC551C903F4C4E2
:10200000CCF6C451C803F4C403F5F3C4CBF6C9033A
:10201000F350CC27F450CB23000E0322C551C80344
:10202000F350CC27F450CB23000E026A0322022285
:10203000C351C903F350CB27F4500322000E0222F0
:10204000C351C803F3500326F4500222000E016A64
:102050000122C551C703F350CB27F4500322000ED1
:1020600002220122C451C703F3500326F450022276
:10207000000E0122C351C703F3500226F45001227F
:10208000002A01BE05D0CB370336023601360006E2
:10209000000ECBAF0AD0032A02220122015005E133
:1020A000025003E1035001E1002ACABF018ECAAF0A
:1020B000019E04D0006A016A026A036A00011200EC
:1020C000800ED8A202D00601CB1B0601D06BD16BCB
:1020D000C7C6CFF6CB51CF1BC651D8B4DFD0CE6F19
:1020E000006ECA51D8B4E3D0CE5FD8B483D03EE3FB
:1020F000CBC6D4F6D48FCCC6D3F6CDC6D2F6D16B30
:10210000D890D433D333D233D133CE2FF8D7CFAF07
:1021100003D0D081E0D0D091CE91D089060EEA6E66
:10212000C90EE96EEBD0D099CFBF0AD0CEA113D0A3
:10213000D433D333D233D133002AD8B4C7D00BD061
:10214000D4BF0CD0D890D137D237D337D43700068C
:10215000D8B4BCD0F5D7D08D6DD0D09DC7C6CFF642
:10216000C7AF02D0D48FABD0D49FA9D0CAC6CEF609
:10217000CAC600F5C651CE5FC7C6D4F6D48FC8C64E
:10218000D3F6C9C6D2F6D16BD890D433D333D23379
:10219000D133CE2FF8D7CFAF03D0D0839CD0D093FC
:1021A000CE91D08B060EEA6ECD0EE96EA7D0D09BF5
:1021B000CFBF0AD0CEA113D0D433D333D233D1334F
:1021C000002AD8B483D00BD0D4BF0CD0D890D1374C
:1021D000D237D337D4370006D8B478D0F5D7D08FDC
:1021E00029D0D09FCBC6CFF6CBAF02D0D48F67D04B
:1021F000D49F65D0CBC6D4F6D48FCCC6D3F6CDC68B
:10220000D2F6CFAF04D0D49FD08565D0D095D16B16
:10221000CE91060EEA6EC90EE96E70D0CFBF1CD00B
:10222000C7C6CFF6CEA106D0D433D333D233D13301
:10223000002A4CE0D1AF0BD0D22B09E1D32B07E120
:10224000D42B05E1D433D333D233002A3FE0D0BDC1
:1022500084D7D0BFC6D71CD0800ED41BD4AF04D037
:102260003AD0CBC6CFF60AD0C7C6CFF6D45306E1D4
:10227000D35304E1D25302E1006A21D0D4BF08D085
:10228000D890D137D237D337D437002EF7D71ED0D6
:10229000CFAF02D0D48F13D0D49F11D0CAC600F5CF
:1022A000CBC6D4F6CCC6D3F6CDC6D2F608D0C6C6B9
:1022B00000F5C7C6D4F6C8C6D3F6C9C6D2F6D4C68A
:1022C00001F5D3C602F5D2C603F534D0006A016A1F
:1022D000026A036A2FD0D16BD21FD31FD41FD11F24
:1022E000D12B05E1D22B03E1D32B01E1D42BD0B1CB
:1022F00012D7D0B354D7D0B589D7B3D7EF50D227A0
:1023000005E3D32B03E1D42BD8B4CE81ED52EF50AB
:10231000D32703E3D42BD8B4CE81ED52EF50EFBED8
:1023200001D0800AD427D8B0CE81D0B9FCD6D0BB9A
:102330003ED774D700011200C3C6CAF60601C751C2
:10234000CA1BCAAF05D0D894D890C3BFD8802FD0AD
:10235000C3C6CAF6C6C6CBF6C251CB5F06E0CAAF4B
:1023600026D0D850010AD86E22D0C7C6CBF6C351AA
:10237000CB5F06E0CAAF1BD0D850010AD86E17D089
:10238000C8C6CBF6C451CB5F06E0CAAF10D0D85058
:10239000010AD86E0CD0C9C6CBF6C551CB5F06E09A
:1023A000CAAF05D0D850010AD86E01D0D89000012C
:1023B00012008E0E006E0601C251005EC3C602F509
:1023C000C4C601F5028E005209E0D890025202E123
:1023D000015204E002320132002EF7D7C3AF05D01C
:1023E000011E021E012AD8B4022A00011200000EAA
:1023F0000601A7AF010E016E015239E0C56BFE0E5A
:10240000C46F7F0EC36F8D0EC26FA9C6C9F6A8C672
:10241000C8F6A7C6C7F6A6C6C6F600018DDF01E25C
:1024200006E17F0E0601AB6FAA6920D00001D892A9
:10243000A9C6C9F6A8C6C8F6A7C6C7F6A6C6C6F6F0
:102440000601CD6BCC6BCB6B7E0ECA6F000138DE04
:1024500003C5C5F602C5C4F601C5C3F600C5C2F67C
:10246000A8DF02C5ABF601C5AAF6060137D0A9C69A
:10247000C5F6A8C6C4F6A7C6C3F6A6C6C2F6C96BFB
:10248000C86B800EC76F8E0EC66F000155DF01E26C
:1024900006E1800E0601AB6FAA6B20D00001D88246
:1024A000A9C6C9F6A8C6C8F6A7C6C7F6A6C6C6F680
:1024B0000601CD6BCC6BCB6B7E0ECA6F000100DECC
:1024C00003C5C5F602C5C4F601C5C3F600C5C2F60C
:1024D00070DF02C5ABF601C5AAF60601AAC601F572
:1024E000ABC602F500011200000E0601B3AF010EEB
:1024F000016E015237E0C56BC4697F0EC36F8E0E4B
:10250000C26FB5C6C9F6B4C6C8F6B3C6C7F6B2C67A
:10251000C6F6000111DF01E205E10601B769B669FF
:1025200020D00001D892B5C6C9F6B4C6C8F6B3C665
:10253000C7F6B2C6C6F60601CD6BCC6BCB6B7E0E72
:10254000CA6F0001BDDD03C5C5F602C5C4F601C5ED
:10255000C3F600C5C2F62DDF02C5B7F601C5B6F653
:10256000060102D0B76BB66BB6C601F5B7C602F569
:1025700000011200A996D8900601A235036A670FE0
:10258000E96E050E0320EA6EECC4A4F6ED52EFC42A
:10259000A3F6A986A3C601F5A4C602F500011200A0
:1025A000A996D8900601A235036A730FE96E050E4D
:1025B0000320EA6EECC4A4F6ED52EFC4A3F6A9869C
:1025C000A3C601F5A4C602F5000112000601AA5136
:1025D000000A000103E0010A0AE011D00601AB5332
:1025E00002E1BF9401D0BF84C794000108D0060166
:1025F000AB5302E1C19401D0C184C994000112001F
:102600000601B251010809E2FF0A03E1B151800855
:1026100004E2020EB26F800EB16FB051000A0001E9
:1026200003E0010A0FE01BD0B2C692F5B1C691F5E6
:1026300092C58AF491C589F494C58CF493C58BF442
:1026400087840DD0B2C694F5B1C693F592C58AF4CD
:1026500091C589F494C58CF493C58BF487847CEF81
:1026600013F0ADC6C0F6ACC6BFF694DC03C5B1F638
:1026700002C5B0F601C5AFF600C5AEF60601C56BE2
:10268000C46B200EC36F880EC26F2AC5C9F629C558
:10269000C8F628C5C7F627C5C6F6000196DCB1C640
:1026A000C5F6B0C6C4F6AFC6C3F6AEC6C2F603C51D
:1026B000C9F602C5C8F601C5C7F600C5C6F685DC71
:1026C00003C5B1F602C5B0F601C5AFF600C5AEF65A
:1026D00003C5B5F602C5B4F601C5B3F600C5B2F63A
:1026E00003DF02C5AFF601C5AEF6ABC6B0F602C554
:1026F000B2F601C5B1F684D712000601AA516408EA
:1027000002E2640EAA6FA951000A000103E0010A67
:102710000BE013D0AAC6E1F56C6AE1C56BF46E6AF2
:10272000E5C56DF4698409D0AAC6E5F56C6AE1C512
:102730006BF46E6AE5C56DF4698412000601A4515C
:10274000000A000103E0010A10E01DD00501E2A526
:102750000AD0E291E293E0C5A9F60601AA6B000156
:10276000CCDF0501E29500010ED00501E6A50AD0F7
:10277000E691E693E4C5A9F60601AA6B0001BDDF68
:102780000501E695000112000601A951000A0001A9
:1027900003E0010A07E00CD0C7820601AA91CFB27C
:1027A000AA8108D0C9820601AA91D1B2AA8102D019
:1027B0000601AA91000EAAB1010E016E00011200DD
:1027C0000601A451000A000103E0010A18E02DD01F
:1027D0000501E2B512D0E2B110D0E2B30ED0E29121
:1027E000E293C80EDF6FE281E0C5A9F6640E060130
:1027F000AA6F000182DF0501E285000116D0050104
:10280000E6B512D0E6B110D0E6B30ED0E691E6936D
:10281000C80EE36FE681E4C5A9F6640E0601AA6F4F
:1028200000016BDF0501E6850001120058A41FD0EE
:10283000A5940501C751000A000103E0010A0AE05E
:1028400011D0CAC5D2F5C9C5D1F5C8C5D0F5C7C51F
:10285000CFF508D0CAC5DAF5C9C5D9F5C8C5D8F5C8
:10286000C7C5D7F55894A58440B42BEC0FF0B5EC50
:102870000FF002C596F501C595F543A006D0380EB8
:102880000501966F400E956F0001050196513D08B8
:102890000EE2FF0A03E19551800809E20601A56BEB
:1028A000200EA46F000107EC0DF008D00501060111
:1028B000A56B200EA46F0001FCEC0CF0EFEC0CF00B
:1028C00002C598F501C597F5E8EC0AF001C5A9F530
:1028D000C2EF0FF002C5ABF501C5AAF596C5C0F66B
:1028E00095C5BFF6CAEC0FF003C58BF602C58AF694
:1028F00001C589F600C588F603C5C5F602C5C4F64C
:1029000001C5C3F600C5C2F6800E0601C96FC86BCB
:10291000C76B7B0EC66F0001E5EC0FF003C58BF6AD
:1029200002C58AF601C589F600C588F6D89203C5A6
:10293000C9F602C5C8F601C5C7F600C5C6F6060148
:10294000CD6BCC6BFA0ECB6F870ECA6F000160ECBB
:1029500010F003C58BF602C58AF601C589F600C5DD
:1029600088F603C5A9F602C5A8F601C5A7F600C5F5
:10297000A6F63DDD02C5ADF501C5ACF598C5C0F6BE
:1029800097C5BFF6CAEC0FF003C58BF602C58AF6F1
:1029900001C589F600C588F603C5C5F602C5C4F6AB
:1029A00001C5C3F600C5C2F6800E0601C96FC86B2B
:1029B000C76B7B0EC66F0001E5EC0FF003C58BF60D
:1029C00002C58AF601C589F600C588F603C5B5F6C5
:1029D00002C5B4F601C5B3F600C5B2F685DD02C581
:1029E000AFF501C5AEF50601886B88C6A2F60001F9
:1029F000C1DD02C58BF601C58AF688C6A2F6D0DD18
:102A000002C58DF601C58CF68BC6C0F68AC6BFF628
:102A1000CAEC0FF003C591F602C590F601C58FF61A
:102A200000C58EF603C5C5F602C5C4F601C5C3F6DA
:102A300000C5C2F6800E0601C96FC86BC76B7F0E5A
:102A4000C66F0001E5EC0FF003C591F602C590F6E4
:102A500001C58FF600C58EF603C5B5F602C5B4F6FE
:102A600001C5B3F600C5B2F63FDD02C59AF501C552
:102A700099F58DC6C0F68CC6BFF6CAEC0FF003C53B
:102A800091F602C590F601C58FF600C58EF603C516
:102A9000C5F602C5C4F601C5C3F600C5C2F62EC50B
:102AA000C9F62DC5C8F62CC5C7F62BC5C6F6E5EC8C
:102AB0000FF003C591F602C590F601C58FF600C56B
:102AC0008EF6D89203C5C9F602C5C8F601C5C7F689
:102AD00000C5C6F636C5CDF635C5CCF634C5CBF641
:102AE00033C5CAF660EC10F003C591F602C590F646
:102AF00001C58FF600C58EF603C5A9F602C5A8F676
:102B000001C5A7F600C5A6F672DC02C59CF501C595
:102B10009BF5060189910501CB519D5D4AE040A2DC
:102B200043D0E80EF66E100EF76E000EF86E030E30
:102B30000601AF6F0001B4EC0CF088C6A7F61B0EBF
:102B40000601A86F00018AEC0EF0ED0EF66E100E75
:102B5000F76E000EF86E030E0601AF6F0001B4ECC5
:102B60000CF09DC5A2F6370E0601A36F0001CCEC58
:102B70000CF0F40EF66E100EF76E000EF86E030EEB
:102B80000601AF6F0001B4EC0CF0CBC5A2F6370E16
:102B90000601A36F0001CCEC0CF00A0E0601BC6F1D
:102BA000000192EC0CF00501CBC59DF50601898171
:102BB00005019D51010A000114E0030A31E0120AE7
:102BC0005CE0010AD8B4CED0030AD8B400D1010A1F
:102BD000D8B44AD1330AD8B49AD1010AD8B4BFD1F3
:102BE000F9D1060189A110D088C6AAF6AB6B000105
:102BF000EDDC88C6ABF60601AD6BAC6B000131DDD8
:102C000088C6A4F69BDD06010001E8EC0AF001503D
:102C1000100805E1100E0501CB6F0001DBD1DAD100
:102C2000060189A11BD088C6AAF6AB6B0001CEDCD9
:102C300088C6ABF60601AD6BAC6B000112DD050179
:102C4000CE91CE939EA905D0130ECD6F880ECC6F7A
:102C500003D0CD6B140ECC6FCE8106010501CEA33F
:102C60000AD088C6A4F6000169DD100E0501CB6FFD
:102C70000001B0D105010001ADD1060189A10AD042
:102C80000501D26BCE91CE93040ECD6FB00ECC6FFA
:102C9000CE81060188C6A9F6000176DD015204E165
:102CA00005019E9703D0000105019E87CEA30ED09B
:102CB00006018B51010808E303E18A51F30804E39C
:102CC00005019E9103D0060105019E810001E8ECFB
:102CD0000AF00150100843E10501D22D01D002D0C5
:102CE00000013DD096513E08D8B002D0000137D047
:102CF00006E195518008D8B002D0000130D09EA7DF
:102D000002D000012CD09EA102D0000128D09E9BB1
:102D1000D1C5C0F6D0C5BFF60001CAEC0FF026C57C
:102D2000C5F625C5C4F624C5C3F623C5C2F603C53A
:102D3000C9F602C5C8F601C5C7F600C5C6F69CECC3
:102D400011F003E305019E8B000105019EBB08D035
:102D50009E939E959E99110ECB6F00013BD105016C
:102D6000000138D1E8EC0AF00150100805E0020E2D
:102D70000501CB6F30D100010501D22D01D003D068
:102D8000020ECB6F28D196513D0808E2FF0A03E1FD
:102D90009551800803E2020ECB6F1DD1060189A177
:102DA0000CD088C6A4F600010BDD0501CE91CE93B0
:102DB000CD6B140ECC6FCE8106010501CEA305D0DC
:102DC000120ECB6F000106D10501000103D1E8EC22
:102DD0000AF00150100805E0020E0501CB6FFBD090
:102DE00000010501D22D01D003D0020ECB6FF3D02C
:102DF00096513D0808E2FF0A03E19551800803E27D
:102E0000020ECB6FE8D0060189A118D088C6ABF6B8
:102E1000070EAD6FD00EAC6F000123DC88C6AAF69A
:102E2000010E0601AB6F0001E6EC12F00501CE9138
:102E3000CE93CD6B640ECC6FCE8106010501CEA37F
:102E400011D006018B5109080AE303E18A51C30836
:102E500006E305019E83020ECB6FBDD00601130E63
:102E60000501CB6F0001B6D0E8EC0AF00150100864
:102E700005E0020E0501CB6FAED000010501D22D99
:102E800001D003D0020ECB6FA6D096513D0808E2C8
:102E9000FF0A03E19551800803E2020ECB6F9BD03D
:102EA000060189A112D088C6ABF6D1C5ADF6D0C552
:102EB000ACF6000131EC13F00501CE91CE93010E7A
:102EC000CD6F180ECC6FCE81060188C6A9F6000121
:102ED0005BDC015213E0225006018B5DD8B002D0BA
:102EE00000010CD006E121508A5DD8B002D000016B
:102EF00005D0200E0501CB6F00016CD00501CEA3DB
:102F000004D09E85020ECB6F66D0000163D0E8EC42
:102F10000AF00150100805E0020E0501CB6F5BD0EE
:102F200000010501D22D01D003D0020ECB6F53D08A
:102F300096513D0808E2FF0A03E19551800803E23B
:102F4000020ECB6F48D088C6A9F600011DDC0152E5
:102F500005E1210E0501CB6F3ED000013BD0E8EC2E
:102F60000AF00150100805E0020E0501CB6F33D0C6
:102F700000010501D22D01D003D0020ECB6F2BD062
:102F800096513D0808E2FF0A03E19551800803E2EB
:102F9000020ECB6F20D0060189A108D00501CE9189
:102FA000CE93CD6B640ECC6FCE81060188C6A9F698
:102FB0000001C4EC13F0015205E0200E0501CB6FB7
:102FC000000108D00501CEA304D09E89020ECB6F6C
:102FD00002D000010501010E0601886F88C6A2F625
:102FE0000001BAEC12F002C58BF601C58AF688C65C
:102FF000A2F6D0EC12F002C58DF601C58CF68BC698
:10300000C0F68AC6BFF6CAEC0FF003C591F602C53A
:1030100090F601C58FF600C58EF603C5C5F602C54C
:10302000C4F601C5C3F600C5C2F6800E0601C96F1D
:10303000C86BC76B7F0EC66F0001E5EC0FF003C5D0
:1030400091F602C590F601C58FF600C58EF603C550
:10305000B5F602C5B4F601C5B3F600C5B2F674EC18
:1030600012F002C5A2F501C5A1F58DC6C0F68CC649
:10307000BFF6CAEC0FF003C591F602C590F601C584
:103080008FF600C58EF603C5C5F602C5C4F601C5A8
:10309000C3F600C5C2F62EC5C9F62DC5C8F62CC5A7
:1030A000C7F62BC5C6F6E5EC0FF003C591F602C5D1
:1030B00090F601C58FF600C58EF6D89203C5C9F605
:1030C00002C5C8F601C5C7F600C5C6F636C5CDF6B9
:1030D00035C5CCF634C5CBF633C5CAF660EC10F076
:1030E00003C591F602C590F601C58FF600C58EF6B0
:1030F00003C5A9F602C5A8F601C5A7F600C5A6F640
:10310000F7EC11F002C5A4F501C5A3F506018991FC
:103110000501D351A55D4AE040A243D0E80EF66E0A
:10312000100EF76E000EF86E030E0601AF6F000171
:10313000B4EC0CF088C6A7F61B0E0601A86F0001C0
:103140008AEC0EF0ED0EF66E100EF76E000EF86EB5
:10315000030E0601AF6F0001B4EC0CF0A5C5A2F69A
:10316000370E0601A36F0001CCEC0CF0F40EF66EE6
:10317000100EF76E000EF86E030E0601AF6F000121
:10318000B4EC0CF0D3C5A2F6370E0601A36F000114
:10319000CCEC0CF00A0E0601BC6F000192EC0CF0B6
:1031A0000501D3C5A5F5060189810501A551010ACF
:1031B000000114E0030A34E0120A62E0010AD8B404
:1031C000D5D0030AD8B408D1010AD8B453D1330AF0
:1031D000D8B4A4D1010AD8B4CAD104D2060189A1B5
:1031E00013D088C6AAF6AB6B0001E6EC12F088C6D5
:1031F000ABF60601AD6BAC6B000131EC13F088C689
:10320000A4F69EEC13F006010001E8EC0AF0015070
:10321000100805E1100E0501D36F0001E3D1E2D1E2
:10322000060189A11DD088C6AAF6AB6B0001E6ECA9
:1032300012F088C6ABF60601AD6BAC6B000131EC49
:1032400013F00501D691D693A6A905D0130ED56F1C
:10325000880ED46F03D0D56B140ED46FD6810601BF
:103260000501D6A30BD088C6A4F600019EEC13F08E
:10327000100E0501D36F0001B5D105010001B2D1D7
:10328000060189A10AD00501DA6BD691D693040E06
:10329000D56FB00ED46FD681060188C6A9F600019D
:1032A000C4EC13F0015204E10501A69703D000011C
:1032B0000501A687D6A30ED006018B51010808E3AD
:1032C00003E18A51F30804E30501A69103D0060146
:1032D0000501A6810001E8EC0AF00150100843E165
:1032E0000501DA2D01D002D000013DD096513E08F3
:1032F000D8B002D0000137D006E195518008D8B08F
:1033000002D0000130D0A6A702D000012CD0A6A187
:1033100002D0000128D0A69BD9C5C0F6D8C5BFF6FB
:103320000001CAEC0FF026C5C5F625C5C4F624C5B4
:10333000C3F623C5C2F603C5C9F602C5C8F601C562
:10334000C7F600C5C6F69CEC11F003E30501A68B99
:1033500000010501A6BB08D0A693A695A699110E5B
:10336000D36F00013FD1050100013CD1E8EC0AF028
:103370000150100805E0020E0501D36F34D10001A1
:103380000501DA2D01D003D0020ED36F2CD1965156
:103390003D0808E2FF0A03E19551800803E2020EAE
:1033A000D36F21D1060189A10DD088C6A4F60001F2
:1033B000E0EC13F00501D691D693D56B140ED46FC3
:1033C000D68106010501D6A305D0120ED36F0001E8
:1033D00009D10501000106D1E8EC0AF001501008FE
:1033E00005E0020E0501D36FFED000010501DA2DC4
:1033F00001D003D0020ED36FF6D096513D0808E2FB
:10340000FF0A03E19551800803E2020ED36FEBD06F
:10341000060189A119D088C6ABF6070EAD6FD00E94
:10342000AC6F000131EC13F088C6AAF6010E06015C
:10343000AB6F0001E6EC12F00501D691D693D56B87
:10344000640ED46FD68106010501D6A311D0060102
:103450008B5109080AE303E18A51C30806E3050119
:10346000A683020ED36FBFD00601130E0501D36FE2
:103470000001B8D0E8EC0AF00150100805E0020E97
:103480000501D36FB0D000010501DA2D01D003D0C2
:10349000020ED36FA8D096513D0808E2FF0A03E15F
:1034A0009551800803E2020ED36F9DD0060189A1D9
:1034B00012D088C6ABF6D9C5ADF6D8C5ACF60001BA
:1034C00031EC13F00501D691D693010ED56F180E8D
:1034D000D46FD681060188C6A9F60001C4EC13F0AA
:1034E000015213E0225006018B5DD8B002D00001DA
:1034F0000CD006E121508A5DD8B002D0000105D081
:10350000200E0501D36F00016DD00501D6A304D0B4
:10351000A685020ED36F67D0000164D0E8EC0AF0F4
:103520000150100805E0020E0501D36F5CD00001C8
:103530000501DA2D01D003D0020ED36F54D096517D
:103540003D0808E2FF0A03E19551800803E2020EFC
:10355000D36F49D088C6A9F60001C4EC13F001521C
:1035600005E1210E0501D36F3ED000013BD0E8EC10
:103570000AF00150100805E0020E0501D36F33D0A8
:1035800000010501DA2D01D003D0020ED36F2BD03C
:1035900096513D0808E2FF0A03E19551800803E2D5
:1035A000020ED36F20D0060189A108D00501D69163
:1035B000D693D56B640ED46FD681060188C6A9F662
:1035C0000001C4EC13F0015205E0200E0501D36F99
:1035D000000108D00501D6A304D0A689020ED36F3E
:1035E00002D0000105010001EDEC0AF0DDEF4CF026
:1035F00089C674F612000900F55211E0F6C4A9F666
:10360000F7C4AAF6F8C4ABF6F5C4BCF692EC0CF01D
:10361000A9C6F6F4AAC6F7F4ABC6F8F4ECD71200C4
:103620002A0E0601BC6F000192EC0CF0200E060180
:10363000BC6F000192EC0CF0000EF66E020EF76EFD
:10364000000EF86ED8DF0A0E0601BC6F000192EC86
:103650000CF012002A0E0601BC6F000192EC0CF077
:103660003E0E0601BC6F000192EC0CF01200060148
:103670005D6B0501DE8D2A0E0601BC6F000192EC28
:103680000CF00A0E0601BC6F000192EC0CF0C8DFD2
:10369000E1DFFDEF4CF0036A060177510001DCEC3D
:1036A00000F0016E0601895D09E1772B77510E0864
:1036B00004E1776B010E016E04D001D0776B000E30
:1036C000016E0001D2EF45F0A0C6A6F69FC6A5F692
:1036D0000601A35302E1A45323E0A2C6EAF4A1C663
:1036E000E9F4EF521DE0A6C603F5A551A52BD8B409
:1036F000A62BA76F03C5A8F6A2C6EAF4A151A12B79
:10370000D8B4A22BE96EEFC4A9F603C5EAF4A7C6A4
:10371000E9F4A9C6EFF4A351D8B4A407A307D9D7F5
:10372000A35302E1A4530DE0A6C6EAF4A551A52BCC
:10373000D8B4A62BE96EEF6AA351D8B4A407A307A7
:10374000EFD79FC601F5A0C602F50001E8EF41F0F2
:103750000601A051010A000109E0030A15E0120A5E
:1037600021E0010A2DE0030A39E046D0050EEA6E99
:10377000470EE96E000E70EC00F00A000900F550EB
:10378000EE6E0009FBE145D0050EEA6E470EE96ECC
:10379000000E7FEC00F00A000900F550EE6E000903
:1037A000FBE137D0050EEA6E470EE96E000E90EC95
:1037B00000F00A000900F550EE6E0009FBE129D087
:1037C000050EEA6E470EE96E000EA0EC00F00A004E
:1037D0000900F550EE6E0009FBE11BD0050EEA6E04
:1037E000470EE96E000EB1EC00F00A000900F5503A
:1037F000EE6E0009FBE10DD0050EEA6E470EE96E94
:10380000000EC2EC00F00A000900F550EE6E00094F
:10381000FBE1470E016E050E026E27EF42F0EF52FC
:1038200010E0EAC4A2F6E9C4A1F6EFC4BCF692EC3B
:103830000CF0A2C6EAF4A1C6E9F4E92AD8B4EA2A4F
:10384000EED712000601A651A45D03E1A751A55DC4
:103850003DE0B00EF66E0E0EF76E000EF86E0E0E18
:10386000AF6F0001B4EC0CF0100EE96EA9C6ABF618
:10387000A8C6AAF6C8EC0EF0C10EF66E0E0EF76ED4
:10388000000EF86E070E0601AF6F0001B4EC0CF0ED
:10389000100EE96EA5C6ABF6A4C6AAF6C8EC0EF0EB
:1038A000CB0EF66E0E0EF76E000EF86E050E0601CC
:1038B000AF6F0001B4EC0CF0100EE96EA7C6ABF6CA
:1038C000A6C6AAF6C8EC0EF0588206010001120046
:1038D000EAC4B2F6E9C4B1F60601ABAF08D0B18FC5
:1038E000B1A9B12BAA1FAB1FAA2BD8B4AB2BAB39F4
:1038F000F009AD6FAD27E20FAE6F320FB06FAB5175
:103900000F0BAE27AE27B027E90FAF6FAF27AF275A
:10391000AA390F0BAF27B027AF37B037B01FB0377A
:10392000AA510F0BB027AD37070EAC6F0A0EAF07C9
:10393000B027FDE3AE07AF27FDE3AD07AE27FDE3FC
:10394000AC07AD27FDE3060EEA6EAC0EE96E070E7E
:10395000B115B19DED52B11507E1B1B9EE52B1B952
:1039600003D0200E006E21D0E926000EEA22E95095
:10397000B00804E1EA50060801E1B18DEF50006E95
:1039800008E1B1BD06D0B1B91ED0B1B702D0200E4A
:103990000BD0B1AF06D02D0E006EED50B19DB19F92
:1039A00004D0B187B199300E0026EAC4ABF6E9C461
:1039B000AAF600C5BCF6000192EC0CF0ABC6EAF426
:1039C000AAC6E9F40601EE50B1ADD1D7000112004C
:1039D0000601A651A45D03E1A751A55D3BE0D40E0D
:1039E000F66E0E0EF76E000EF86E0E0EAF6F000143
:1039F000B4EC0CF0100EE96EA9C6ABF6A8C6AAF698
:103A0000C8EC0EF0E50EF66E0E0EF76E000EF86EB8
:103A1000070E0601AF6F0001B4EC0CF0100EE96E5A
:103A2000A5C6ABF6A4C6AAF653DFEF0EF66E0E0ED1
:103A3000F76E000EF86E050E0601AF6F0001B4ECD4
:103A40000CF0100EE96EA7C6ABF6A6C6AAF640DFCC
:103A500058820601000112005892F80EF66E0E0E02
:103A6000F76E000EF86EC7DD0601B56BB46BB36B75
:103A7000B26B000174EC12F002C5A3F601C5A2F608
:103A80000601A56BA46B02C5A7F601C5A6F6A96B36
:103A9000B60EA86F0001D6DE9C0E0601B56F400E73
:103AA000B46F1C0EB36F8C0EB26F000174EC12F089
:103AB00002C5A3F601C5A2F6270E0601A56F100EDA
:103AC000A46F02C5A7F601C5A6F6A96BB70EA86F2D
:103AD0000001B8DEC30E0601B56F500EB46F430E81
:103AE000B36F8E0EB26F000174EC12F002C5A3F634
:103AF00001C5A2F6C30E0601A56F510EA46F02C543
:103B0000A7F601C5A6F6A96BB80EA86F00019ADE4C
:103B10000601B56BB46BB36B8F0EB26F000174EC22
:103B200012F002C5A3F601C5A2F60601A569A469B3
:103B300002C5A7F601C5A6F6A96BB90EA86F0001CC
:103B400081DE0601A56BA46BA76BA66BA96BBA0EF1
:103B5000A86F000177DE270E0601A56F100EA46F77
:103B6000270EA76F100EA66FA96BBB0EA86F0001E2
:103B700069DEC30E0601A56F4F0EA46FC30EA76FBB
:103B80004F0EA66FA96BBC0EA86F00015BDEFD0E89
:103B90000601A56FE70EA46FFD0EA76FE70EA66FD7
:103BA000A96BBD0EA86F00014DDE0501E8C501F54A
:103BB0000150100A000108E0010A06E0030AD8B427
:103BC0002CEF24F07FEF2AF00601C56BC46BC36BAA
:103BD000C26B2EC5C9F62DC5C8F62CC5C7F62BC5B8
:103BE000C6F60001E5EC0FF003C5A5F602C5A4F684
:103BF00001C5A3F600C5A2F6D89203C5C9F602C551
:103C0000C8F601C5C7F600C5C6F636C5CDF635C53A
:103C1000CCF634C5CBF633C5CAF660EC10F003C55C
:103C2000A5F602C5A4F601C5A3F600C5A2F603C514
:103C3000A9F602C5A8F601C5A7F600C5A6F6F7ECD9
:103C400011F002C5A3F601C5A2F6F90E0601A56F93
:103C5000550EA46F02C5A7F601C5A6F6A96BC40E42
:103C6000A86F0001B5DE0601C56B400EC46F1C0EC7
:103C7000C36F8C0EC26F2EC5C9F62DC5C8F62CC5F4
:103C8000C7F62BC5C6F60001E5EC0FF003C5A5F697
:103C900002C5A4F601C5A3F600C5A2F6D89203C5D5
:103CA000C9F602C5C8F601C5C7F600C5C6F636C5D1
:103CB000CDF635C5CCF634C5CBF633C5CAF660ECC7
:103CC00010F003C5A5F602C5A4F601C5A3F600C50C
:103CD000A2F603C5A9F602C5A8F601C5A7F600C558
:103CE000A6F6F7EC11F002C5A3F601C5A2F6FD0E8B
:103CF0000601A56F670EA46F02C5A7F601C5A6F65B
:103D0000A96BC50EA86F000163DE0601C56B500EDE
:103D1000C46F430EC36F8E0EC26F2EC5C9F62DC57C
:103D2000C8F62CC5C7F62BC5C6F60001E5EC0FF0AA
:103D300003C5A5F602C5A4F601C5A3F600C5A2F603
:103D4000D89203C5C9F602C5C8F601C5C7F600C5B5
:103D5000C6F636C5CDF635C5CCF634C5CBF633C57B
:103D6000CAF660EC10F003C5A5F602C5A4F601C5BD
:103D7000A3F600C5A2F603C5A9F602C5A8F601C5BB
:103D8000A7F600C5A6F6F7EC11F002C5A3F601C52B
:103D9000A2F60D0E0601A56FAE0EA46F02C5A7F622
:103DA00001C5A6F6A96BC60EA86F00014BDD060182
:103DB000C56BC4697F0EC36F8E0EC26F2EC5C9F668
:103DC0002DC5C8F62CC5C7F62BC5C6F60001E5EC17
:103DD0000FF003C5A5F602C5A4F601C5A3F600C5FC
:103DE000A2F6D89203C5C9F602C5C8F601C5C7F642
:103DF00000C5C6F636C5CDF635C5CCF634C5CBF60E
:103E000033C5CAF660EC10F003C5A5F602C5A4F6EA
:103E100001C5A3F600C5A2F603C5A9F602C5A8F61A
:103E200001C5A7F600C5A6F6F7EC11F002C5A3F68A
:103E300001C5A2F6140E0601A56FA46B02C5A7F674
:103E400001C5A6F6A96BC70EA86F0001FBDCD882DE
:103E50000601C96BC86BE10EC76F890EC66F36C508
:103E6000CDF635C5CCF634C5CBF633C5CAF6000160
:103E700060EC10F003C5A5F602C5A4F601C5A3F6D3
:103E800000C5A2F603C5C5F602C5C4F601C5C3F652
:103E900000C5C2F632C5C9F631C5C8F630C5C7F689
:103EA0002FC5C6F6E5EC0FF003C5A5F602C5A4F6CE
:103EB00001C5A3F600C5A2F60601C56BC46BC36BB2
:103EC000C26B03C5C9F602C5C8F601C5C7F600C571
:103ED000C6F600019CEC11F002E2D8A4A5D0D8826D
:103EE0000601C96BC86BE10EC76F890EC66F36C578
:103EF000CDF635C5CCF634C5CBF633C5CAF60001D0
:103F000060EC10F003C5A5F602C5A4F601C5A3F642
:103F100000C5A2F603C5C5F602C5C4F601C5C3F6C1
:103F200000C5C2F632C5C9F631C5C8F630C5C7F6F8
:103F30002FC5C6F6E5EC0FF003C5A5F602C5A4F63D
:103F400001C5A3F600C5A2F60601C56BC4697F0EC4
:103F5000C36F8E0EC26F03C5C9F602C5C8F601C590
:103F6000C7F600C5C6F600019CEC11F001E207E1BE
:103F70008E0E006E7F0E016E0268036A47D0D882F3
:103F80000601C96BC86BE10EC76F890EC66F36C5D7
:103F9000CDF635C5CCF634C5CBF633C5CAF600012F
:103FA00060EC10F003C5A5F602C5A4F601C5A3F6A2
:103FB00000C5A2F603C5C5F602C5C4F601C5C3F621
:103FC00000C5C2F632C5C9F631C5C8F630C5C7F658
:103FD0002FC5C6F6E5EC0FF003C5A5F602C5A4F69D
:103FE00001C5A3F600C5A2F6D89203C5C9F602C55D
:103FF000C8F601C5C7F600C5C6F60601CD6BCC6B89
:10400000CB6B7E0ECA6F000160EC10F003C5C5F6E5
:1040100002C5C4F601C5C3F600C5C2F6D9EC11F05D
:1040200002C503F5015002D0036A000E0601A26F1B
:1040300003C5A3F6A56BA46B03C5A7F6A66FA96B72
:10404000C80EA86F000122EC1CF0D8820601C96BD3
:10405000C86B960EC76F880EC66F36C5CDF635C5D0
:10406000CCF634C5CBF633C5CAF6000160EC10F0CF
:1040700003C5A5F602C5A4F601C5A3F600C5A2F6C0
:1040800003C5C5F602C5C4F601C5C3F600C5C2F630
:1040900032C5C9F631C5C8F630C5C7F62FC5C6F654
:1040A000E5EC0FF003C5A5F602C5A4F601C5A3F61D
:1040B00000C5A2F60601C56BC46BC36BC26B03C51A
:1040C000C9F602C5C8F601C5C7F600C5C6F60001A7
:1040D0009CEC11F002E2D8A4A5D0D8820601C96BED
:1040E000C86B960EC76F880EC66F36C5CDF635C540
:1040F000CCF634C5CBF633C5CAF6000160EC10F03F
:1041000003C5A5F602C5A4F601C5A3F600C5A2F62F
:1041100003C5C5F602C5C4F601C5C3F600C5C2F69F
:1041200032C5C9F631C5C8F630C5C7F62FC5C6F6C3
:10413000E5EC0FF003C5A5F602C5A4F601C5A3F68C
:1041400000C5A2F60601C56BC4697F0EC36F8E0E53
:10415000C26F03C5C9F602C5C8F601C5C7F600C5DA
:10416000C6F600019CEC11F001E207E18E0E006E34
:104170007F0E016E0268036A47D0D8820601C96BC0
:10418000C86B960EC76F880EC66F36C5CDF635C59F
:10419000CCF634C5CBF633C5CAF6000160EC10F09E
:1041A00003C5A5F602C5A4F601C5A3F600C5A2F68F
:1041B00003C5C5F602C5C4F601C5C3F600C5C2F6FF
:1041C00032C5C9F631C5C8F630C5C7F62FC5C6F623
:1041D000E5EC0FF003C5A5F602C5A4F601C5A3F6EC
:1041E00000C5A2F6D89203C5C9F602C5C8F601C536
:1041F000C7F600C5C6F60601CD6BCC6BCB6B7E0E49
:10420000CA6F000160EC10F003C5C5F602C5C4F624
:1042100001C5C3F600C5C2F6D9EC11F002C503F51D
:10422000015002D0036A000E0601A26F03C5A3F677
:10423000290EA56F800EA46F03C5A7F6A2C6A6F629
:10424000A96BC90EA86F000122EC1CF0D8820601F0
:10425000C96BC86B7A0EC76F890EC66F36C5CDF6AF
:1042600035C5CCF634C5CBF633C5CAF6000160ECD3
:1042700010F003C5A5F602C5A4F601C5A3F600C556
:10428000A2F603C5C5F602C5C4F601C5C3F600C54E
:10429000C2F632C5C9F631C5C8F630C5C7F62FC556
:1042A000C6F6E5EC0FF003C5A5F602C5A4F601C5F8
:1042B000A3F600C5A2F60601C56BC46BC36BC26B47
:1042C00003C5C9F602C5C8F601C5C7F600C5C6F6DE
:1042D00000019CEC11F002E2D8A4A5D0D88206011E
:1042E000C96BC86B7A0EC76F890EC66F36C5CDF61F
:1042F00035C5CCF634C5CBF633C5CAF6000160EC43
:1043000010F003C5A5F602C5A4F601C5A3F600C5C5
:10431000A2F603C5C5F602C5C4F601C5C3F600C5BD
:10432000C2F632C5C9F631C5C8F630C5C7F62FC5C5
:10433000C6F6E5EC0FF003C5A5F602C5A4F601C567
:10434000A3F600C5A2F60601C56BC4697F0EC36F54
:104350008E0EC26F03C5C9F602C5C8F601C5C7F601
:1043600000C5C6F600019CEC11F001E207E18E0EDB
:10437000006E7F0E016E0268036A47D0D882060184
:10438000C96BC86B7A0EC76F890EC66F36C5CDF67E
:1043900035C5CCF634C5CBF633C5CAF6000160ECA2
:1043A00010F003C5A5F602C5A4F601C5A3F600C525
:1043B000A2F603C5C5F602C5C4F601C5C3F600C51D
:1043C000C2F632C5C9F631C5C8F630C5C7F62FC525
:1043D000C6F6E5EC0FF003C5A5F602C5A4F601C5C7
:1043E000A3F600C5A2F6D89203C5C9F602C5C8F661
:1043F00001C5C7F600C5C6F60601CD6BCC6BCB6B0D
:104400007E0ECA6F000160EC10F003C5C5F602C550
:10441000C4F601C5C3F600C5C2F6D9EC11F002C559
:1044200003F5015002D0036A000E0601A26F03C516
:10443000A3F68A0EA56FA46903C5A7F6A2C6A6F6C1
:10444000A96BCA0EA86F000122EC1CF0D8820601ED
:10445000C96BC86B7A0EC76F8A0EC66F36C5CDF6AC
:1044600035C5CCF634C5CBF633C5CAF6000160ECD1
:1044700010F003C5A5F602C5A4F601C5A3F600C554
:10448000A2F603C5C5F602C5C4F601C5C3F600C54C
:10449000C2F632C5C9F631C5C8F630C5C7F62FC554
:1044A000C6F6E5EC0FF003C5A5F602C5A4F601C5F6
:1044B000A3F600C5A2F60601C56BC46BC36BC26B45
:1044C00003C5C9F602C5C8F601C5C7F600C5C6F6DC
:1044D00000019CEC11F002E2D8A4A5D0D88206011C
:1044E000C96BC86B7A0EC76F8A0EC66F36C5CDF61C
:1044F00035C5CCF634C5CBF633C5CAF6000160EC41
:1045000010F003C5A5F602C5A4F601C5A3F600C5C3
:10451000A2F603C5C5F602C5C4F601C5C3F600C5BB
:10452000C2F632C5C9F631C5C8F630C5C7F62FC5C3
:10453000C6F6E5EC0FF003C5A5F602C5A4F601C565
:10454000A3F600C5A2F60601C56BC4697F0EC36F52
:104550008E0EC26F03C5C9F602C5C8F601C5C7F6FF
:1045600000C5C6F600019CEC11F001E207E18E0ED9
:10457000006E7F0E016E0268036A47D0D882060182
:10458000C96BC86B7A0EC76F8A0EC66F36C5CDF67B
:1045900035C5CCF634C5CBF633C5CAF6000160ECA0
:1045A00010F003C5A5F602C5A4F601C5A3F600C523
:1045B000A2F603C5C5F602C5C4F601C5C3F600C51B
:1045C000C2F632C5C9F631C5C8F630C5C7F62FC523
:1045D000C6F6E5EC0FF003C5A5F602C5A4F601C5C5
:1045E000A3F600C5A2F6D89203C5C9F602C5C8F65F
:1045F00001C5C7F600C5C6F60601CD6BCC6BCB6B0B
:104600007E0ECA6F000160EC10F003C5C5F602C54E
:10461000C4F601C5C3F600C5C2F6D9EC11F002C557
:1046200003F5015002D0036A000E0601A26F03C514
:10463000A3F6D50EA56FA46903C5A7F6A2C6A6F674
:10464000A96BCB0EA86F000122EC1CF0D8820601EA
:10465000C96B400EC86F1C0EC76F8B0EC66F36C578
:10466000CDF635C5CCF634C5CBF633C5CAF6000158
:1046700060EC10F003C5A5F602C5A4F601C5A3F6CB
:1046800000C5A2F603C5C5F602C5C4F601C5C3F64A
:1046900000C5C2F632C5C9F631C5C8F630C5C7F681
:1046A0002FC5C6F6E5EC0FF003C5A5F602C5A4F6C6
:1046B00001C5A3F600C5A2F60601C56BC46BC36BAA
:1046C000C26B03C5C9F602C5C8F601C5C7F600C569
:1046D000C6F600019CEC11F002E2D8A4A7D0D88263
:1046E0000601C96B400EC86F1C0EC76F8B0EC66FDC
:1046F00036C5CDF635C5CCF634C5CBF633C5CAF6CE
:10470000000160EC10F003C5A5F602C5A4F601C5D2
:10471000A3F600C5A2F603C5C5F602C5C4F601C5D9
:10472000C3F600C5C2F632C5C9F631C5C8F630C5F4
:10473000C7F62FC5C6F6E5EC0FF003C5A5F602C512
:10474000A4F601C5A3F600C5A2F60601C56BC469AF
:104750007F0EC36F8E0EC26F03C5C9F602C5C8F6C1
:1047600001C5C7F600C5C6F600019CEC11F001E2D8
:1047700007E18E0E006E7F0E016E0268036A48D05C
:10478000D8820601C96B400EC86F1C0EC76F8B0E16
:10479000C66F36C5CDF635C5CCF634C5CBF633C5B8
:1047A000CAF6000160EC10F003C5A5F602C5A4F638
:1047B00001C5A3F600C5A2F603C5C5F602C5C4F639
:1047C00001C5C3F600C5C2F632C5C9F631C5C8F683
:1047D00030C5C7F62FC5C6F6E5EC0FF003C5A5F644
:1047E00002C5A4F601C5A3F600C5A2F6D89203C57A
:1047F000C9F602C5C8F601C5C7F600C5C6F606016A
:10480000CD6BCC6BCB6B7E0ECA6F000160EC10F0F1
:1048100003C5C5F602C5C4F601C5C3F600C5C2F698
:10482000D9EC11F002C503F5015002D0036A000E65
:104830000601A26F03C5A3F6FB0EA56F7F0EA46F42
:1048400003C5A7F6A2C6A6F6A96BCC0EA86F0001F9
:1048500022EC1CF07FEF2AF00601C56BC46BC36B22
:10486000C26B2EC5C9F62DC5C8F62CC5C7F62BC51B
:10487000C6F60001E5EC0FF003C5A5F602C5A4F6E7
:1048800001C5A3F600C5A2F6D89203C5C9F602C5B4
:10489000C8F601C5C7F600C5C6F636C5CDF635C59E
:1048A000CCF634C5CBF633C5CAF660EC10F003C5C0
:1048B000A5F602C5A4F601C5A3F600C5A2F603C578
:1048C000A9F602C5A8F601C5A7F600C5A6F6F7EC3D
:1048D00011F002C5A3F601C5A2F6F20E0601A56FFE
:1048E000AB0EA46F02C5A7F601C5A6F6A96BD10E43
:1048F000A86F0001E8EC1CF00601C56B400EC46F08
:104900001C0EC36F8C0EC26F2EC5C9F62DC5C8F61E
:104910002CC5C7F62BC5C6F60001E5EC0FF003C5A4
:10492000A5F602C5A4F601C5A3F600C5A2F6D89265
:1049300003C5C9F602C5C8F601C5C7F600C5C6F667
:1049400036C5CDF635C5CCF634C5CBF633C5CAF67B
:1049500060EC10F003C5A5F602C5A4F601C5A3F6E8
:1049600000C5A2F603C5A9F602C5A8F601C5A7F6BB
:1049700000C5A6F6F7EC11F002C5A3F601C5A2F634
:10498000FA0E0601A56FCE0EA46F02C5A7F601C5EB
:10499000A6F6A96BD20EA86F0001E8EC1CF0060188
:1049A000C56B500EC46F430EC36F8E0EC26F2EC503
:1049B000C9F62DC5C8F62CC5C7F62BC5C6F600012D
:1049C000E5EC0FF003C5A5F602C5A4F601C5A3F6F4
:1049D00000C5A2F6D89203C5C9F602C5C8F601C53E
:1049E000C7F600C5C6F636C5CDF635C5CCF634C516
:1049F000CBF633C5CAF660EC10F003C5A5F602C5C8
:104A0000A4F601C5A3F600C5A2F603C5A9F602C522
:104A1000A8F601C5A7F600C5A6F6F7EC11F002C589
:104A2000A3F601C5A2F61B0E0601A56F5B0EA46FCF
:104A300002C5A7F601C5A6F6A96BD30EA86F0001A3
:104A400022EC1CF00601C56BC4697F0EC36F8E0E8D
:104A5000C26F2EC5C9F62DC5C8F62CC5C7F62BC525
:104A6000C6F60001E5EC0FF003C5A5F602C5A4F6F5
:104A700001C5A3F600C5A2F6D89203C5C9F602C5C2
:104A8000C8F601C5C7F600C5C6F636C5CDF635C5AC
:104A9000CCF634C5CBF633C5CAF660EC10F003C5CE
:104AA000A5F602C5A4F601C5A3F600C5A2F603C586
:104AB000A9F602C5A8F601C5A7F600C5A6F6F7EC4B
:104AC00011F002C5A3F601C5A2F6280E0601A56FD6
:104AD000A46B02C5A7F601C5A6F6A96BD40EA86FF4
:104AE000000122EC1CF0D8820601C96B800EC86F51
:104AF000D40EC76F8A0EC66F36C5CDF635C5CCF657
:104B000034C5CBF633C5CAF6000160EC10F003C51E
:104B1000A5F602C5A4F601C5A3F600C5A2F603C515
:104B2000C5F602C5C4F601C5C3F600C5C2F632C556
:104B3000C9F631C5C8F630C5C7F62FC5C6F6E5ECCF
:104B40000FF003C5A5F602C5A4F601C5A3F600C57E
:104B5000A2F60601C56BC46BC36BC26B03C5C9F675
:104B600002C5C8F601C5C7F600C5C6F600019CEC33
:104B700011F002E2D8A4A7D0D8820601C96B800E3A
:104B8000C86FD40EC76F8A0EC66F36C5CDF635C551
:104B9000CCF634C5CBF633C5CAF6000160EC10F094
:104BA00003C5A5F602C5A4F601C5A3F600C5A2F685
:104BB00003C5C5F602C5C4F601C5C3F600C5C2F6F5
:104BC00032C5C9F631C5C8F630C5C7F62FC5C6F619
:104BD000E5EC0FF003C5A5F602C5A4F601C5A3F6E2
:104BE00000C5A2F60601C56BC4697F0EC36F8E0EA9
:104BF000C26F03C5C9F602C5C8F601C5C7F600C530
:104C0000C6F600019CEC11F001E207E18E0E006E89
:104C10007F0E016E0268036A48D0D8820601C96B14
:104C2000800EC86FD40EC76F8A0EC66F36C5CDF61C
:104C300035C5CCF634C5CBF633C5CAF6000160ECF9
:104C400010F003C5A5F602C5A4F601C5A3F600C57C
:104C5000A2F603C5C5F602C5C4F601C5C3F600C574
:104C6000C2F632C5C9F631C5C8F630C5C7F62FC57C
:104C7000C6F6E5EC0FF003C5A5F602C5A4F601C51E
:104C8000A3F600C5A2F6D89203C5C9F602C5C8F6B8
:104C900001C5C7F600C5C6F60601CD6BCC6BCB6B64
:104CA0007E0ECA6F000160EC10F003C5C5F602C5A8
:104CB000C4F601C5C3F600C5C2F6D9EC11F002C5B1
:104CC00003F5015002D0036A000E0601A26F03C56E
:104CD000A3F6A56B400EA46F03C5A7F6A2C6A6F661
:104CE000A96BD50EA86F000122EC1CF0D88206013A
:104CF000C96BC86B480EC76F860EC66F36C5CDF63A
:104D000035C5CCF634C5CBF633C5CAF6000160EC28
:104D100010F003C5A5F602C5A4F601C5A3F600C5AB
:104D2000A2F603C5C5F602C5C4F601C5C3F600C5A3
:104D3000C2F632C5C9F631C5C8F630C5C7F62FC5AB
:104D4000C6F6E5EC0FF003C5A5F602C5A4F601C54D
:104D5000A3F600C5A2F60601C56BC46BC36BC26B9C
:104D600003C5C9F602C5C8F601C5C7F600C5C6F633
:104D700000019CEC11F002E2D8A4A5D0D882060173
:104D8000C96BC86B480EC76F860EC66F36C5CDF6A9
:104D900035C5CCF634C5CBF633C5CAF6000160EC98
:104DA00010F003C5A5F602C5A4F601C5A3F600C51B
:104DB000A2F603C5C5F602C5C4F601C5C3F600C513
:104DC000C2F632C5C9F631C5C8F630C5C7F62FC51B
:104DD000C6F6E5EC0FF003C5A5F602C5A4F601C5BD
:104DE000A3F600C5A2F60601C56BC4697F0EC36FAA
:104DF0008E0EC26F03C5C9F602C5C8F601C5C7F657
:104E000000C5C6F600019CEC11F001E207E18E0E30
:104E1000006E7F0E016E0268036A47D0D8820601D9
:104E2000C96BC86B480EC76F860EC66F36C5CDF608
:104E300035C5CCF634C5CBF633C5CAF6000160ECF7
:104E400010F003C5A5F602C5A4F601C5A3F600C57A
:104E5000A2F603C5C5F602C5C4F601C5C3F600C572
:104E6000C2F632C5C9F631C5C8F630C5C7F62FC57A
:104E7000C6F6E5EC0FF003C5A5F602C5A4F601C51C
:104E8000A3F600C5A2F6D89203C5C9F602C5C8F6B6
:104E900001C5C7F600C5C6F60601CD6BCC6BCB6B62
:104EA0007E0ECA6F000160EC10F003C5C5F602C5A6
:104EB000C4F601C5C3F600C5C2F6D9EC11F002C5AF
:104EC00003F5015002D0036A000E0601A26F03C56C
:104ED000A3F6430EA56FC00EA46F03C5A7F6A2C626
:104EE000A6F6A96BD60EA86F000122EC1CF0D882A2
:104EF0000601C96BC00EC86F5A0EC76F8B0EC66F06
:104F000036C5CDF635C5CCF634C5CBF633C5CAF6B5
:104F1000000160EC10F003C5A5F602C5A4F601C5BA
:104F2000A3F600C5A2F603C5C5F602C5C4F601C5C1
:104F3000C3F600C5C2F632C5C9F631C5C8F630C5DC
:104F4000C7F62FC5C6F6E5EC0FF003C5A5F602C5FA
:104F5000A4F601C5A3F600C5A2F60601C56BC46B95
:104F6000C36BC26B03C5C9F602C5C8F601C5C7F657
:104F700000C5C6F600019CEC11F002E2D8A4A7D04F
:104F8000D8820601C96BC00EC86F5A0EC76F8B0E50
:104F9000C66F36C5CDF635C5CCF634C5CBF633C5B0
:104FA000CAF6000160EC10F003C5A5F602C5A4F630
:104FB00001C5A3F600C5A2F603C5C5F602C5C4F631
:104FC00001C5C3F600C5C2F632C5C9F631C5C8F67B
:104FD00030C5C7F62FC5C6F6E5EC0FF003C5A5F63C
:104FE00002C5A4F601C5A3F600C5A2F60601C56B6D
:104FF000C4697F0EC36F8E0EC26F03C5C9F602C5AA
:10500000C8F601C5C7F600C5C6F600019CEC11F054
:1050100001E207E18E0E006E7F0E016E0268036AE8
:1050200048D0D8820601C96BC00EC86F5A0EC76F30
:105030008B0EC66F36C5CDF635C5CCF634C5CBF66E
:1050400033C5CAF6000160EC10F003C5A5F602C531
:10505000A4F601C5A3F600C5A2F603C5C5F602C5B0
:10506000C4F601C5C3F600C5C2F632C5C9F631C5DE
:10507000C8F630C5C7F62FC5C6F6E5EC0FF003C578
:10508000A5F602C5A4F601C5A3F600C5A2F6D892FE
:1050900003C5C9F602C5C8F601C5C7F600C5C6F600
:1050A0000601CD6BCC6BCB6B7E0ECA6F000160EC42
:1050B00010F003C5C5F602C5C4F601C5C3F600C5A8
:1050C000C2F6D9EC11F002C503F5015002D0036A13
:1050D000000E0601A26F03C5A3F6C30EA56F3F0E17
:1050E000A46F03C5A7F6A2C6A6F6A96BD70EA86F34
:1050F000000122EC1CF0D8820601C96B600EC86F5B
:105100001F0EC76F8C0EC66F36C5CDF635C5CCF6F3
:1051100034C5CBF633C5CAF6000160EC10F003C508
:10512000A5F602C5A4F601C5A3F600C5A2F603C5FF
:10513000C5F602C5C4F601C5C3F600C5C2F632C540
:10514000C9F631C5C8F630C5C7F62FC5C6F6E5ECB9
:105150000FF003C5A5F602C5A4F601C5A3F600C568
:10516000A2F60601C56BC46BC36BC26B03C5C9F65F
:1051700002C5C8F601C5C7F600C5C6F600019CEC1D
:1051800011F002E2D8A4A7D0D8820601C96B600E44
:10519000C86F1F0EC76F8C0EC66F36C5CDF635C5EE
:1051A000CCF634C5CBF633C5CAF6000160EC10F07E
:1051B00003C5A5F602C5A4F601C5A3F600C5A2F66F
:1051C00003C5C5F602C5C4F601C5C3F600C5C2F6DF
:1051D00032C5C9F631C5C8F630C5C7F62FC5C6F603
:1051E000E5EC0FF003C5A5F602C5A4F601C5A3F6CC
:1051F00000C5A2F60601C56BC4697F0EC36F8E0E93
:10520000C26F03C5C9F602C5C8F601C5C7F600C519
:10521000C6F600019CEC11F001E207E18E0E006E73
:105220007F0E016E0268036A48D0D8820601C96BFE
:10523000600EC86F1F0EC76F8C0EC66F36C5CDF6D9
:1052400035C5CCF634C5CBF633C5CAF6000160ECE3
:1052500010F003C5A5F602C5A4F601C5A3F600C566
:10526000A2F603C5C5F602C5C4F601C5C3F600C55E
:10527000C2F632C5C9F631C5C8F630C5C7F62FC566
:10528000C6F6E5EC0FF003C5A5F602C5A4F601C508
:10529000A3F600C5A2F6D89203C5C9F602C5C8F6A2
:1052A00001C5C7F600C5C6F60601CD6BCC6BCB6B4E
:1052B0007E0ECA6F000160EC10F003C5C5F602C592
:1052C000C4F601C5C3F600C5C2F6D9EC11F002C59B
:1052D00003F5015002D0036A000E0601A26F03C558
:1052E000A3F6A5693F0EA46F03C5A7F6A2C6A6F64E
:1052F000A96BD80EA86F000122EC1CF0D882060121
:10530000C96B800EC86F220EC76F8C0EC66F36C574
:10531000CDF635C5CCF634C5CBF633C5CAF600019B
:1053200060EC10F003C5A5F602C5A4F601C5A3F60E
:1053300000C5A2F603C5C5F602C5C4F601C5C3F68D
:1053400000C5C2F632C5C9F631C5C8F630C5C7F6C4
:105350002FC5C6F6E5EC0FF003C5A5F602C5A4F609
:1053600001C5A3F600C5A2F60601C56BC46BC36BED
:10537000C26B03C5C9F602C5C8F601C5C7F600C5AC
:10538000C6F600019CEC11F002E2D8A4A7D0D882A6
:105390000601C96B800EC86F220EC76F8C0EC66FD8
:1053A00036C5CDF635C5CCF634C5CBF633C5CAF611
:1053B000000160EC10F003C5A5F602C5A4F601C516
:1053C000A3F600C5A2F603C5C5F602C5C4F601C51D
:1053D000C3F600C5C2F632C5C9F631C5C8F630C538
:1053E000C7F62FC5C6F6E5EC0FF003C5A5F602C556
:1053F000A4F601C5A3F600C5A2F60601C56BC469F3
:105400007F0EC36F8E0EC26F03C5C9F602C5C8F604
:1054100001C5C7F600C5C6F600019CEC11F001E21B
:1054200007E18E0E006E7F0E016E0268036A48D09F
:10543000D8820601C96B800EC86F220EC76F8C0E12
:10544000C66F36C5CDF635C5CCF634C5CBF633C5FB
:10545000CAF6000160EC10F003C5A5F602C5A4F67B
:1054600001C5A3F600C5A2F603C5C5F602C5C4F67C
:1054700001C5C3F600C5C2F632C5C9F631C5C8F6C6
:1054800030C5C7F62FC5C6F6E5EC0FF003C5A5F687
:1054900002C5A4F601C5A3F600C5A2F6D89203C5BD
:1054A000C9F602C5C8F601C5C7F600C5C6F60601AD
:1054B000CD6BCC6BCB6B7E0ECA6F000160EC10F035
:1054C00003C5C5F602C5C4F601C5C3F600C5C2F6DC
:1054D000D9EC11F002C503F5015002D0036A000EA9
:1054E0000601A26F03C5A3F6A569A46903C5A7F6C3
:1054F000A66FA96BD90EA86F000122EC1CF0060163
:10550000A96BA86BFA0EA76F870EA66F0001F7ECC8
:1055100011F002C5A3F601C5A2F6FE0E0601A56FA5
:105520000C0EA46F02C5A7F601C5A6F6A96BDE0E88
:10553000A86F0001E8EC1CF0C80E0601A96F7E0EF2
:10554000A86FBB0EA76F860EA66F0001F7EC11F0D7
:1055500002C5A3F601C5A2F60601A569450EA46F12
:1055600002C5A7F601C5A6F6A96BDF0EA86F00015C
:10557000E8EC1CF00601A96BA86B7A0EA76F770EFA
:10558000A66F0001F7EC11F002C5A3F601C5A2F663
:105590000601A56BA46B02C5A7F601C5A6F6A96B0B
:1055A000E00EA86F000122EC1CF0F00E0601A96FBE
:1055B000020EA86F7A0EA76F860EA66F0001F7EC99
:1055C00011F002C5A3F601C5A2F60601A56BFA0EFD
:1055D000A46F02C5A7F601C5A6F6A96BE10EA86FD8
:1055E000000122EC1CF0380E0601A96F810EA86F95
:1055F0003B0EA76F880EA66F0001F7EC11F002C5F5
:10560000A3F601C5A2F6020E0601A56FEE0EA46F69
:1056100002C5A7F601C5A6F6A96BE20EA86F0001A8
:1056200022EC1CF00601A96BC00EA86F600EA76FDC
:105630008A0EA66F0001F7EC11F002C5A3F601C5B2
:10564000A2F60E0E0601A56F0C0EA46F02C5A7F6FA
:1056500001C5A6F6A96BE30EA86F000122EC1CF0B1
:105660000601A56BA46BA76BA66BA96BE40EA86FD4
:10567000000122EC1CF01F0E0601A56F400EA46F66
:105680001F0EA76F400EA66FA96BE50EA86F000155
:1056900022EC1CF07D0E0601A56FA46BA76FA66B14
:1056A000A96BE60EA86F000122EC1CF058B208D0DE
:1056B000020EF66E0F0EF76E000EF86EFBEC1AF08F
:1056C0000A0E0601BC6F000192EC0CF0C5EF2CF045
:1056D0000601BC51B608BC6F036ABDC6C0F6BD8FDB
:1056E000D890BD33BE33BF330332023201320032B1
:1056F000BC2FF6D7C0AF0BD0001E011E021E031E2A
:10570000002AD8B4012AD8B4022AD8B4032A000146
:1057100000EF2CF0D8B204D0060EEA6EC40EE96E8B
:10572000006A016A026A036A0601C46BC56BC66B34
:10573000C76BC351C211C111C0112CE0200EC86F3C
:10574000D890BC37BD37BE37BF37C437C537C6372B
:10575000C737C351C75D08E1C251C65D05E1C151FC
:10576000C55D02E1C051C45D0FE3C051C45FC151CA
:10577000D8A0C13DC55FC251D8A0C23DC65FC351CC
:10578000D8A0C33DC75FD880003601360236033645
:10579000C82FD6D7C4C6EFF4C5C6ECF4C6C6ECF421
:1057A000C7C6ECF400011200E9500601B46FB35112
:1057B000B66F1CE0B2C6C5F6B1C6C4F6B0C6C3F635
:1057C000AFC6C2F6C96BC86B200EC76F820EC66F1C
:1057D0000001E5EC0FF003C5B2F602C5B1F601C554
:1057E000B0F600C5AFF60601B62FE4D7B2C6BFF6D5
:1057F000B1C6BEF6B0C6BDF6AFC6BCF6000168D7EE
:1058000003C5B2F602C5B1F601C5B0F600C5AFF6E4
:105810000601B2AF0DD0B407B48BAF1FB01FB11FDC
:10582000B21FAF2BD8B4B02BD8B4B12BD8B4B22B95
:105830003B0EBB6F9A0EBA6FCA0EB96FB86B0A0EE9
:10584000B66FB351D8B4B42BD882060EEA6EAF0E41
:10585000E96EB2C6BFF6B1C6BEF6B0C6BDF6AFC6FB
:10586000BCF6BBC6C3F6BAC6C2F6B9C6C1F6B8C660
:10587000C0F600014FDF0150005213E10601B329C9
:10588000B65DD8A402D000010CD0B4510DE00F0BCE
:10589000B65D01E044E2B4BF42D0B4BD05D0200EF5
:1058A00037D0200E0601B417B4AB0FD0B49BB35160
:1058B000D8A4B4070050B46F2D0EBC6F000192EC59
:1058C0000CF00601B451006EB46BB351B65D0DE13E
:1058D0000050B46F2E0EBC6F000192EC0CF006016C
:1058E000B451006E200EB417000E300EB4AB10D0C1
:1058F000B49BB351D8A4B4070050B46F2D0EBC6F45
:10590000000192EC0CF00601B451006EB46B300E45
:10591000002600C5BCF6000192EC0CF00601D892FE
:10592000BBC6BFF6BAC6BEF6B9C6BDF6B8C6BCF6AB
:10593000C36BC26BC16B0A0EC06F0001EBDE03C507
:10594000BBF602C5BAF601C5B9F600C5B8F6060140
:10595000B62F7AD700011200A996D8900601A23579
:10596000036A7F0FE96E050E0320EA6EECC4A4F60D
:10597000ED52EFC4A3F6A986A3C601F5A4C602F5AD
:10598000000199EF2FF02CEF1DF00C0EF66E0F0EAC
:10599000F76E000EF86EFBEC1AF006019F6B9F513C
:1059A0000108D8A006D19FC6A2F60001BAEC12F0F9
:1059B00002C5A1F601C5A0F6180EF66E0F0EF76E21
:1059C000000EF86E0F0E0601AF6F0001B4EC0CF084
:1059D0009FC6A7F61B0E0601A86F00018AEC0EF009
:1059E0005D0E0601BC6F000192EC0CF0200E06016A
:1059F000BC6F000192EC0CF0240E0601BC6F00019C
:105A000092EC0CF0A1C6A2F6370E0601A36F0001BE
:105A1000CCEC0CF0A0C6A2F6370E0601A36F000175
:105A2000CCEC0CF0A1C6C0F6A0C6BFF6CAEC0FF0D5
:105A300003C5A5F602C5A4F601C5A3F600C5A2F6E6
:105A400003C5C5F602C5C4F601C5C3F600C5C2F656
:105A5000800E0601C96FC86BC76B7B0EC66F000155
:105A6000E5EC0FF003C5A5F602C5A4F601C5A3F643
:105A700000C5A2F603C5C5F602C5C4F601C5C3F646
:105A800000C5C2F66F0E0601C96F120EC86F030E75
:105A9000C76F750EC66F0001E5EC0FF003C5A5F6E4
:105AA00002C5A4F601C5A3F600C5A2F6200E0601A4
:105AB000BC6F000192EC0CF0040EE96EA5C6B2F6C4
:105AC000A4C6B1F6A3C6B0F6A2C6AFF6030E060191
:105AD000B36F000169DE560E0601BC6F000192EC47
