This line prevents the file loading into a hex programmer. Use Loader method instead. 
:0400000047EF3BF09B
:0800080000C504F501C505F572
:1000100002C506F5076A03C508F50001F5C409F530
:10002000F6C40AF5F7C40BF5F8C40CF5A5A41CEF4B
:1000300000F0B5B45DEF05F0A6A022EF00F0B6B079
:1000400047EF02F0A6A228EF00F0B6B268EF02F088
:10005000A9A62EEF00F0B9B658EF03F0ADA634EF25
:1000600000F0BDB6D2EF03F009C5F5F40AC5F6F409
:100070000BC5F7F40CC5F8F404C500F505C501F58A
:1000800006C502F5078E08C503F51100F76AA00F33
:10009000F66E000EF722000EF86E0900F550120001
:1000A0000040660633033303F76ABC0FF66E000E9A
:1000B000F722000EF86E0900F5501200600966067E
:1000C000A4005200F76AD80FF66E000EF722000E59
:1000D000F86E0900F550120024505354524C4F4111
:1000E0004445522A31340000F76AFC0FF66E000EC8
:1000F000F722000EF86E0900F550120042524F57D9
:100100004E4F55545F524553544152540000F76AC4
:10011000220FF66E010EF722000EF86E0900F55060
:100120001200434F4E4649475F434F525255505479
:10013000494F4E00F76A480FF66E010EF722000E87
:10014000F86E0900F5501200494E54455252555070
:10015000545F46524F4D5F534C4545500000F76A7F
:10016000720FF66E010EF722000EF86E0900F550C0
:1001700012004D434C525F46524F4D5F52554E0058
:10018000F76A940FF66E010EF722000EF86E090062
:10019000F55012004D434C525F46524F4D5F534C49
:1001A00045455000F76AB80FF66E010EF722000EB3
:1001B000F86E0900F55012004D454D4F52595F56EB
:1001C000494F4C4154494F4E0000F76ADE0FF66E1E
:1001D000010EF722000EF86E0900F55012004E4F86
:1001E000524D414C5F504F5745525F555000707211
:1001F000743D24253032580A0000000E016E1200B2
:10020000524F564D55582045617274684C65616B6C
:100210006167655049432056312E392032303236DD
:100220002D30332D32332031313A33323A333720C7
:10023000436F7079726967687428432932303235A8
:10024000205354520000F76A5A0FF66E020EF7223E
:10025000000EF86E0900F550120052455345545FE8
:10026000494E535452554354494F4E00F76A800F3C
:10027000F66E020EF722000EF86E0900F55012001D
:10028000524553544152545F4E4F4E450000F76A59
:10029000A20FF66E020EF722000EF86E0900F5505E
:1002A0001200535441434B5F4F564552464C4F57F3
:1002B0000000F76AC60FF66E020EF722000EF86E07
:1002C0000900F5501200535441434B5F554E4445CD
:1002D00052464C4F5700F76AEA0FF66E020EF722AD
:1002E000000EF86E0900F55012005744545F465254
:1002F0004F4D5F534C4545500000F76A0E0FF66EA8
:10030000030EF722000EF86E0900F5501200574454
:10031000545F54494D454F555400F76A2E0FF66E01
:10032000030EF722000EF86E0900F5501200574434
:10033000545F57494E444F575F56494F4C415449BB
:100340004F4E0000F76A580FF66E030EF722000EAC
:10035000F86E0900F5501200556E6B6E6F776E20C7
:100360002400F76A760FF66E030EF722000EF86E81
:100370000900F55012001011121314151617181950
:100380001A1B1C1D1E1F20212223242526274C4D0D
:100390004E4F505152535455565758595A5B5C5D05
:1003A0005E5F6062636465666768696A6B6C6D6EE8
:1003B0006F7071727374F76ACA0FF66E030EF722CC
:1003C000000EF86E0900F55012004143537769742E
:1003D00063680000F76AE80FF66E030EF722000E5E
:1003E000F86E0900F550120045617274684C656141
:1003F0006B6167650000F76A0A0FF66E040EF7225C
:10040000000EF86E0900F5501200444353776974EA
:10041000636832345600F76A2A0FF66E040EF7222C
:10042000000EF86E0900F5501200444353776974CA
:1004300063683438564C5000F76A4C0FF66E040E61
:10044000F722000EF86E0900F5501200444353776E
:1004500069746368343856485000F76A6E0FF66E58
:10046000040EF722000EF86E0900F5501200496ED6
:1004700076616C696400F76A8A0FF66E040EF722E3
:10048000000EF86E0900F5501200535452000A0E87
:10049000EA6E280EE96E1E50E926000EEA220201DD
:1004A000C5C220F5B4C2EFF420A204D0BE99C38324
:1004B000C593BE891E2A630ED8801E5401E21E6AAF
:1004C0001F501E5C01E12282B690000134EF00F063
:1004D00000012650245C05E12550235C02E1A69230
:1004E00016D00A0EEA6E8C0EE96E2550E9262650CB
:1004F000EA22EFC4B6F2252AD8B4262A26500108EB
:1005000004E305E125508F0802E2266A256AB692C7
:1005100034EF00F02A204D6F64756C655479706576
:100520003A2025730A002A206173202020202020F1
:10053000202053686F7720616C6C20616E616C6F56
:10054000672076616C7565730A002A206462675BB8
:100550003D3C6D3E5D204765742F73657420646576
:10056000627567206D61736B2C20696E20686578F9
:100570000A002A20656320202020202020204765B3
:10058000742045617274684C65616B6167652063B6
:100590006F6E6669670A00002A2068616C7420200B
:1005A0002020202048616C742028766961205744FF
:1005B00054290A002A207072742020202020202034
:1005C00047657420706F72740A002A2072632020BD
:1005D0002020202020205265737461727420636192
:1005E0007573650A00002A20727374202020202071
:1005F000202052657365740A00002A20736320204E
:100600002020202020204765742053797374656D65
:10061000436F6E6669670A002A20743C6E3E205B59
:100620003C703E5D20446F2074657374206E756D60
:10063000626572203C6E3E2077697468206F70742A
:10064000696F6E616C20706172616D657465722096
:100650003C703E0A00002A207473746173202020CD
:100660002020446F20617373656D626C792074651E
:1006700073740A006462673D256C580A000070724A
:10068000743D24253032580A000072633D25730AF8
:10069000000073733D253032580A00002A20547937
:1006A0007065203F20666F722068656C702E0A00AE
:1006B000000105017651010A000108E0030A37E054
:1006C0000301EC6B010E0501766F65D00301F3B1F8
:1006D000FED7EBC36FF5EAC36EF505016B31036E10
:1006E0006A31026E6931016E6831006E0332023286
:1006F00001320032033202320132003200C56CF5A1
:1007000001C56DF56C51685F6D51695B000E6A5BE8
:100710006B5B6E5168276F516923000E6A236B2350
:10072000010E0301EC6F020E0501766F34D0050156
:100730007331036E7231026E7131016E7031006E71
:10074000033202320132003203320232013200320D
:10075000033202320132003200C574F501C575F56D
:100760007451705F7551715B000E725B735B0301B6
:10077000F3B1FED7EBC303F5EAC301F50150050160
:10078000702703507123000E722373230301EC6B57
:10079000010E0501766F0301F3810000B996000197
:1007A00034EF00F00001050177AB09D0F551D8B462
:1007B000F607F52F04D0F65302E1779B778D7BA1E6
:1007C00009D07951D8B47A07792F04D07A5302E14D
:1007D0007B917B8377A512D0FF0ED827D8A0D9278D
:1007E000D8A0DA27D8A0DB27D85308E1D95306E1EF
:1007F000DA5304E1DB5302E17795778733A409D01C
:100800004150D8B44206412E04D0425202E1339402
:100810003386FC83BD96000134EF00F076C661F5A7
:1008200005016051615D02E1666B07D0615303E130
:10083000010E666F02D0020E666F636B339C00017F
:1008400086EF05F07AC6E2F4060179C6E1F4E6C463
:10085000D5F5E6C4D6F5E6C4D7F5050177830001E2
:1008600098EF04F0050166510208D8B465D033BC96
:1008700004D076C662F5338C0DD0635131080AE39B
:10088000036A63511C0FE96E0C0E0320EA6E76C6F4
:10089000EFF4632B6651010A000103E0010A02E054
:1008A0004AD049D005016251210A000105E0120A2F
:1008B00006E0710A27E03ED0FCEFFFF03BD00501D7
:1008C00063531EE0010E0C011C250501635D18E158
:1008D0006351040815E10C0E0601786F1D0E776F49
:1008E00078C67AF677C679F67AC6E2F479C6E1F484
:1008F000E6C4FDF5E6C4FEF5E6C4FFF50501FC819E
:10090000000118D00501635314E0010E0C011C25F1
:100910000501635D0EE1635104080BE10C0E060155
:10092000786F1D0E776F78C67AF6796F00018AD7D7
:100930000501000100D0050100018CEF05F0050163
:1009400061510601765D04E0020E0501666F060145
:100950000501656B646B00019EEF05F0C30E016E2F
:10096000050E026ED3EF04F00601766B05016651A9
:100970000208D8B491D06553D8A481D06651010A39
:10098000000103E0010A02E079D078D0050162514C
:10099000320A000107E0060A21E0AD0A50E0B90A78
:1009A00063E06BD0DBD702C589F601C588F60C0E73
:1009B000EA6E4F0EE96E89C6E2F488C6E1F4120EC3
:1009C000016EE6C4EEF4012EFCD7120E0C014E6F40
:1009D000010E4E250501656F00014FD00501F4C5DC
:1009E00001F501C578F6010E0601796F090E7A6FDF
:1009F0007B6B7C6B070E7E6FEA0E7D6F030E7F6F45
:100A0000170E806F0B0E816F200E826F250E836F85
:100A10000C0EEA6E4F0EE96E060EE26E780EE16E77
:100A2000100E016EE6C4EEF4012EFCD7100E0C0180
:100A30004E6F010E4E250501656F00011ED00C0E94
:100A4000EA6E4F0EE96E000E16DD0A000900F55041
:100A5000EE6E0009FBE1040E0C014E6F010E4E25F7
:100A60000501656F000109D0090E0C014E6F040EDF
:100A70004F6F020E0501656F000100D00501655141
:100A8000645D0AE2036A64514E0FE96E0C0E0320A6
:100A9000EA6EEFC476F6642B060176C601F5000116
:100AA000A1EF05F0020199B18B51998576C68CF2C0
:100AB0009A6B94990001A6EF05F00001020198B726
:100AC00007D00501676B020198A902D00501678F65
:100AD00005016751672B0601746F74517F081EE38F
:100AE0000201959599B102D09AA7FCD798B78B517E
:100AF00098A78E519A6B94990601756F745308E10B
:100B0000D890753375C676F6000188D605D00601F3
:100B100075C676F60001A6D619D006017451800874
:100B20000EE1020198B78B5198A78E510601756F9F
:100B3000D890753375C676F6000101D7060100011D
:100B400013D701C575F675C676F6ACD734EF00F04D
:100B5000ECC4FAF4ECC4FBF4ED52ED52EFC4E8F44B
:100B6000F96E12002057443A20436D643D2425302D
:100B700032580A002057443A20446174613D2425CC
:100B80003032580A000057523A20416464723D24C2
:100B90002530325800002054410020476C6F6261BC
:100BA0006C0020496E76616C696400002052443A02
:100BB00020446174613D24253032580A00005252AD
:100BC0003A20416464723D242530325800002049A7
:100BD0006E76616C696400004952513A2053746129
:100BE00074653D2425303258000020577254413D31
:100BF00024253032580A0000205772446174613D48
:100C000024253032580A000020526454413D2425E6
:100C10003032580A00000A4661696C206174206C09
:100C2000696E6520256C753A2057616E743D256CA0
:100C30007520476F743D256C75000A4661696C200C
:100C40006174206C696E6520256C753A2057616E61
:100C5000743D256C6420476F743D256C64005465B9
:100C60007374696E673A000020416C6C20476F6FA7
:100C70006400204F50566F6C747320200000205386
:100C80007570706C7933305620200000496E7661A3
:100C90006C696420746573743A0A00005465737457
:100CA000733A0A0020312052656C6179206B312043
:100CB000636C6F73650A000020322052656C6179A5
:100CC000206B3220636C6F73650A00002033205262
:100CD000656C6179206B3320636C6F73650A00006B
:100CE00020342052656C6179206B3420636C6F7303
:100CF000650A000020352052656C6179206B352033
:100D0000636C6F73650A000033312052656C617942
:100D10003A20536574203D20636C6F7365640A004C
:100D200033322052656C61793A20536574203D203E
:100D30006F70656E0A0034312047657420562F4964
:100D40002076616C730A00003432204765742041BC
:100D5000646A2052656720536861646F772056612A
:100D60006C730A0024253032583D3E242530325819
:100D70000A00436F6E6669673A00205674683D2525
:100D80006C756D560000204D6F64653D2575000043
:100D90005754413A20436D643D496E766F6B654C04
:100DA0006F616465720A00005754413A20436D64D4
:100DB0003D5374617475734D32500A005754413A73
:100DC00020436D643D45617274684C65616B616779
:100DD00065436F6E66675365740A00005254413A6A
:100DE00020436D643D53746174757350324D0A0035
:100DF0005254413A20436D643D4964656E744765C1
:100E0000740A00005254413A20436D643D4D4652ED
:100E10005F49440A00005254413A20436D643D4802
:100E20005749440A0000506F72743D2530325820F3
:100E3000416464723D253032580A00005353204DFE
:100E4000533A2053533D242530325820464D3D24FB
:100E50002530346C580A000054657374206D6F643B
:100E6000652E205072657373203C53706163653E3C
:100E700020746F20636F6E74696E75652C206F72BD
:100E8000203C4573633E20746F20657869743A0096
:100E90000A44323320466C6173682E2E2E000A44B9
:100EA000323420466C6173682E2E2E000A4432368E
:100EB00020466C6173682E2E2E000A44323820467C
:100EC0006C6173682E2E2E000A44323920466C6104
:100ED00073682E2E2E000A44333120466C617368ED
:100EE0002E2E2E000A52656C6179204B3120436C06
:100EF0006F7365202D204438204F4E000A52656CD8
:100F00006179204B3220436C6F7365202D2044396A
:100F1000204F4E000A52656C6179204B3320436CA0
:100F20006F7365202D20443130204F4E00000A524F
:100F3000656C6179204B3420436C6F7365202D20E4
:100F4000443131204F4E00000A52656C6179204BCC
:100F50003520436C6F7365202D20443132204F4E75
:100F600000000A33305620537570706C793A20783F
:100F7000787878786D5600000A566F6C74616765F2
:100F80002043616C206F6E2D20506C65617365206D
:100F9000776169743A2D00000A4D696E20476169D6
:100FA0006E203D20254C646D56000A4C6F7720471B
:100FB00061696E203D20254C646D56000A4D6964C0
:100FC000204761696E203D20254C646D56000A4D16
:100FD0006178204761696E203D20254C646D560084
:100FE0000A496E76616C69642063616C21000A5461
:100FF000657374205061737321000A4375727265C2
:101000006E742043616C3A2D00000A4869676820BD
:10101000616E64204C6F7720526573697374616EE2
:101020006365205465737473202D20506C65617363
:1010300065207761697400000A556E6C6F616465A4
:10104000642049536F7572636520566F6C746167D5
:1010500065203D20254C756D56000A486952657320
:101060003530306E41203D20254C646D56000A48D5
:10107000695265733575412020203D20254C646DF3
:1010800056000A4C6F5265733530754120203D2063
:10109000254C646D56000A4C6F52657335303075BF
:1010A00041203D20254C646D56000A4C6F526573FB
:1010B000356D412020203D20254C646D56000A49A5
:1010C0006E76616C69642063616C21000A546573FB
:1010D00074205061737321000A47616C76616E69F8
:1010E0006320566F6C7461676520546573743A2D84
:1010F00000000A54657374205061737321000A5410
:10110000657374204661696C21000A4C65616B61EE
:10111000676520546573743A2D000A254C756B4F32
:10112000686D73000A5465737420506173732100F5
:101130000A54657374204661696C2100D850600BB5
:10114000006E0038016E0132070E0116F1B00194F5
:10115000F1A00184F1A40196F1B40186F1A20198F5
:10116000F1B20188F184F182F190F0C400F5F0A2AF
:10117000009000A201843F0EF06E01C548F500C545
:1011800047F523EF3CF013C637F512C636F511C606
:1011900035F510C634F517C63BF516C63AF515C633
:1011A00039F514C638F51BC63FF51AC63EF519C603
:1011B0003DF518C63CF5A9EF3CF0C99EC19EC69806
:1011C000BE98C99CC19CC89CC09CC89AC09A120079
:1011D0000501F7C501F50001120006014851030A97
:1011E000000107E0010A10E0030A19E0010A22E009
:1011F0002CD0CB90C380CB92C392CB94C394CB968C
:10120000C396C69ABE9A21D0CB90C390CB92C3828C
:10121000CB94C394CB96C396C69ABE9A16D0CB9065
:10122000C390CB92C392CB94C384CB96C396C69AF9
:10123000BE8A0BD0CB90C390CB92C392CB94C39475
:10124000CB96C386C69ABE8A00D048C67EF51200E9
:1012500006014851000A000109E0010A12E0030AF0
:101260001BE0010A24E0070A2DE037D0C990C180B5
:10127000C992C192C994C194C996C196C998C1989E
:101280002CD0C992C182C994C194C996C196C998FB
:10129000C198C990C19021D0C994C184C996C19602
:1012A000C998C198C990C190C992C19216D0C996E7
:1012B000C186C998C198C990C190C992C192C99478
:1012C000C1940BD0C998C188C990C190C992C192EC
:1012D000C994C194C996C19600D01200A594050E78
:1012E000EA6EC30EE96E050EE26EB10EE16E120EED
:1012F000016EE6C4EEF4012EFCD7A58412005DDF7A
:1013000067DF01C5BFF50501C16BC06BB66BB56B7F
:10131000B46BB36B770EBA6F350EB96F940EB86FAE
:10132000B76BB26B010EB16F020EC26F786B060124
:10133000486B000152DF0601486B000189DF05019F
:101340007F6B806B816B826B836B846B856B866B31
:10135000876B886B896B8A6B8B6B8C6B8D6B8E6BE1
:101360008F6B906B0B0E946FB80E936F020E956F90
:1013700096817B917B83DB6B1B0EDA6F770ED96FC7
:10138000400ED86F778577970001A8DFABEF3CF070
:101390000501F3C501F500011200060106513F08E1
:1013A00011E308C603F507C6E9F403C5EAF4036AC6
:1013B00006510001B1EC01F0EF6E010E016E0AD092
:1013C00009D0060108C6EAF407C6E9F4EF6A000E80
:1013D000016E0001DAEF3CF006C660F5D890050119
:1013E00060350601E8C490F20001DEEF3CF0010E2A
:1013F000016E1200010E006E1F501E5CD8B4006A10
:10140000120004001F501E5CFCE00A0EEA6E280E5B
:10141000E96E1F50E926000EEA22EFC401F51F2AEB
:10142000630ED8801F5401E21F6A1200E3DF00A0A0
:1014300015D003C6EAF402C6E9F4EAC452F6E9C4D8
:1014400051F60001DEDF52C6EAF451C6E9F401505C
:1014500001C5EFF4010E016E03D002D0000E016E43
:1014600012000601506BA6B2010E506FA6922450D6
:10147000265C04E314E12550235C11E32550235C32
:10148000006E26502458036E0050710F016E010E3D
:101490000358026E025213E1015211E112D023509F
:1014A000255C006E24502658036E0050FF0F016E1D
:1014B000000E0358026E025202E1015202E0016A7C
:1014C00002D0010E016E50B1A682000189EF0AF030
:1014D0000A0EEA6E8C0EE96E2350E9262450EA22A9
:1014E00050C6EFF4232AD8B4242A2450010804E378
:1014F00005E123508F0802E2246A236A2550235C09
:1015000004E12650245CD8B42284A6828EEF0AF02F
:10151000A8D701B007D002C650F6DAD7010E016E87
:1015200003D002D0000E016E12009AEF0AF078513B
:101530000400FBD7120006014E510A080FE1050E08
:10154000EA6E380EE96E036B0D0E026F0001A8EC17
:1015500005F0015204E1EBDF0601F1D70001050EB1
:10156000EA6E380EE96E0601036B4EC602F6000104
:10157000A8EC05F0015202E1DADFF1D71200090010
:10158000F6C442F6F7C443F6F8C444F6F5C44EF682
:10159000D2DF42C6F6F443C6F7F444C6F8F40601B7
:1015A000412F01D002D00001EAD70001120006014C
:1015B00023BF11D00F0E006E223900160A0E005CF8
:1015C00003E2300E002602D02351002600C54EF65D
:1015D0000001B1DF06010F0E22170A0E225D02E2A2
:1015E000300E02D0239F2351222722C64EF600013F
:1015F000A2DF120006010991050177AF06D0F9516B
:10160000100803E1060109810501000E060109B178
:10161000010E016E000112000501FCA13DD0A59450
:10162000FFC5FBF5FEC5FAF5FDC5F9F5FC91A584EE
:10163000778F27A431D03C0EF66E0E0EF76E000E9B
:10164000F86E0B0E0601416F000199DFF9C522F615
:10165000370E0601236F0001AADF4B0EF66E0E0E49
:10166000F76E000EF86E050E0601416F000187DF70
:10167000FBC522F6370E0601236F000198DFFAC57D
:1016800022F6370E0601236F000191DF0A0E0601D4
:101690004E6F000150DF0501060108910501F85168
:1016A000F75D05E0F8C5F7F5060108810501F7517A
:1016B000010A000107E0030A19E0120A27E0130AF1
:1016C0002EE039D0060108A109D00501779B030E51
:1016D000F66FE80EF56F779D778B0601050177AD04
:1016E00003D0020EF86F28D0000125D0060108A112
:1016F00003D00501779F060100017CDF015205E060
:10170000100E0501F86F18D0000115D073DF0152DB
:1017100005E1020E0501F86F0FD000010CD00601A3
:10172000005308E1015306E1010E0501F86F0001C5
:1017300002D00601000105010001E8EF3CF009C6F6
:1017400043F512000900F55210E0F6C43DF6F7C467
:101750003EF6F8C43FF6F5C44EF6EDDE3DC6F6F4AF
:101760003EC6F7F43FC6F8F4EDD712002A0E060184
:101770004E6F0001E0DE200E06014E6F0001DBDE41
:10178000000EF66E020EF76E000EF86EDBDF0A0E2C
:1017900006014E6F0001CFDE12002A0E06014E6FC9
:1017A0000001C9DE3E0E06014E6F0001C4DE1200CC
:1017B000326A33802A0E06014E6F0001BCDE0A0E2B
:1017C00006014E6F0001B7DED1DFE7DF11EF3DF01C
:1017D000036A465062EC00F0016E0601095D09E102
:1017E000462A46500E0804E1466A010E016E04D0F6
:1017F00001D0466A000E016E000166EF2DF020C692
:1018000026F61FC625F60601235302E1245323E0E2
:1018100022C6EAF421C6E9F4EF521DE026C603F51C
:101820002551252BD8B4262B276F03C528F622C6B1
:10183000EAF42151212BD8B4222BE96EEFC429F60A
:1018400003C5EAF427C6E9F429C6EFF42351D8B456
:1018500024072307D9D7235302E124530DE026C6DA
:10186000EAF42551252BD8B4262BE96EEF6A2351D3
:10187000D8B424072307EFD71FC601F520C602F509
:1018800000017CEF2AF006012051010A000109E065
:10189000030A15E0120A21E0010A2DE0030A39E0EB
:1018A00046D0050EEA6E510EE96E000EDBEC01F03B
:1018B0000A000900F550EE6E0009FBE145D0050E67
:1018C000EA6E510EE96E000EEAEC01F00A00090022
:1018D000F550EE6E0009FBE137D0050EEA6E510EB1
:1018E000E96E000EFBEC01F00A000900F550EE6E07
:1018F0000009FBE129D0050EEA6E510EE96E000EDB
:101900000BEC02F00A000900F550EE6E0009FBE155
:101910001BD0050EEA6E510EE96E000E1CEC02F0B3
:101920000A000900F550EE6E0009FBE10DD0050E2E
:10193000EA6E510EE96E000E2DEC02F00A0009006D
:10194000F550EE6E0009FBE1510E016E050E026EC0
:10195000B8EF2AF0EF520FE0EAC422F6E9C421F60C
:10196000EFC44EF6E8DD22C6EAF421C6E9F4E92A1E
:10197000D8B4EA2AEFD7120061C668F606016551AD
:10198000681B68AF05D0D894D89061BFD8802FD09D
:1019900061C668F664C669F66051695F06E068AFC3
:1019A00026D0D850010AD86E22D065C669F661519A
:1019B000695F06E068AF1BD0D850010AD86E17D017
:1019C00066C669F66251695F06E068AF10D0D8500C
:1019D000010AD86E0CD067C669F66351695F06E0EC
:1019E00068AF05D0D850010AD86E01D0D890000158
:1019F0001200800ED8A202D00601691B06016E6B90
:101A00006F6B65C66DF669516D1B6451D8B4DFD03C
:101A10006C6F006E6851D8B4E3D06C5FD8B483D0DB
:101A20003EE369C672F6728F6AC671F66BC670F6CF
:101A30006F6BD8907233713370336F336C2FF8D76C
:101A40006DAF03D06E81E0D06E916C916E89060E01
:101A5000EA6E670EE96EEBD06E996DBF0AD06CA18D
:101A600013D07233713370336F33002AD8B4C7D0B8
:101A70000BD072BF0CD0D8906F3770377137723778
:101A80000006D8B4BCD0F5D76E8D6DD06E9D65C6FE
:101A90006DF665AF02D0728FABD0729FA9D068C6C9
:101AA0006CF668C600F564516C5F65C672F6728F9D
:101AB00066C671F667C670F66F6BD8907233713375
:101AC00070336F336C2FF8D76DAF03D06E839CD01B
:101AD0006E936C916E8B060EEA6E6B0EE96EA7D05C
:101AE0006E9B6DBF0AD06CA113D07233713370330B
:101AF0006F33002AD8B483D00BD072BF0CD0D890EB
:101B00006F377037713772370006D8B478D0F5D791
:101B10006E8F29D06E9F69C66DF669AF02D0728F45
:101B200067D0729F65D069C672F6728F6AC671F609
:101B30006BC670F66DAF04D0729F6E8565D06E95E2
:101B40006F6B6C91060EEA6E670EE96E70D06DBF1A
:101B50001CD065C66DF66CA106D07233713370333C
:101B60006F33002A4CE06FAF0BD0702B09E1712B63
:101B700007E1722B05E1723371337033002A3FE0C5
:101B80006EBD84D76EBFC6D71CD0800E721B72AFDD
:101B900004D03AD069C66DF60AD065C66DF67253A8
:101BA00006E1715304E1705302E1006A21D072BF73
:101BB00008D0D8906F37703771377237002EF7D74B
:101BC0001ED06DAF02D0728F13D0729F11D068C635
:101BD00000F569C672F66AC671F66BC670F608D073
:101BE00064C600F565C672F666C671F667C670F61D
:101BF00072C601F571C602F570C603F534D0006AED
:101C0000016A026A036A2FD06F6B701F711F721F07
:101C10006F1F6F2B05E1702B03E1712B01E1722B1C
:101C20006EB112D76EB354D76EB589D7B3D7EF5014
:101C3000702705E3712B03E1722BD8B46C81ED5250
:101C4000EF50712703E3722BD8B46C81ED52EF5043
:101C5000EFBE01D0800A7227D8B06C816EB9FCD675
:101C60006EBB3ED774D7000112008E0E006E0601C7
:101C70005D51005E5EC602F55FC601F5028E005240
:101C800009E0D890025202E1015204E0023201322E
:101C9000002EF7D75EAF05D0011E021E012AD8B470
:101CA000022A00011200000E060123AF010E016E90
:101CB000015237E0636B62697F0E616F8E0E606F59
:101CC00025C667F624C666F623C665F622C664F600
:101CD000000152DE01E205E106012769266920D0F4
:101CE0000001D89225C667F624C666F623C665F6B7
:101CF00022C664F606016B6B6A6B696B7E0E686FB9
:101D0000000177DE03C560F602C55FF601C55EF629
:101D100000C55DF6AADF02C527F601C526F6060155
:101D200002D0276B266B26C601F527C602F50001F7
:101D30001200EAC445F6E9C444F606013E39F0094A
:101D4000406F4027E20F416F320F436F3E510F0B40
:101D5000412741274327E90F426F422742273D3958
:101D60000F0B4227432742374337431F43373D5129
:101D70000F0B43274037070E3F6F0A0E42074327DA
:101D8000FDE341074227FDE340074127FDE33F070D
:101D90004027FDE3060EEA6E3F0EE96E070E44157E
:101DA000449DE926000EEA22E950430804E1EA5086
:101DB000060801E1448DEF50006E08E144BD06D0F5
:101DC00044B916D044B702D0200E03D044874499BA
:101DD000300E0026EAC43EF6E9C43DF600C54EF6D4
:101DE00000019BEC0AF03EC6EAF43DC6E9F40601A8
:101DF000EE5044ADD9D70001120006012651245DF2
:101E000003E12751255D3AE0160EF66E0C0EF76ED3
:101E1000000EF86E0E0E416F0001BFEC0AF0100EBE
:101E2000E96E29C63EF628C63DF683DF270EF66E1C
:101E30000C0EF76E000EF86E070E0601416F0001E2
:101E4000BFEC0AF0100EE96E25C63EF624C63DF63C
:101E500070DF310EF66E0C0EF76E000EF86E050E8A
:101E60000601416F0001BFEC0AF0100EE96E27C6B3
:101E70003EF626C63DF65DDF338E060100011200F8
:101E8000339E5E0EF66E0C0EF76E000EF86E5ADC88
:101E90000601256B246B800E236F8A0E226F0001D2
:101EA00002DF02C523F601C522F60601256B246B6D
:101EB00002C527F601C526F6296B7B0E286F0001A7
:101EC0009CDF0601256BC00E246FB10E236F890EB7
:101ED000226F0001E8DE02C523F601C522F6270EB7
:101EE0000601256F100E246F02C527F601C526F6E0
:101EF000296B7C0E286F000180DF0601256BA00E88
:101F0000246F060E236F890E226F0001CCDE02C5FE
:101F100023F601C522F6C30E0601256F510E246F6C
:101F200002C527F601C526F6296B7D0E286F000134
:101F300064DF0601256B246B236B8A0E226F000180
:101F4000B2DE02C523F601C522F606012569246921
:101F500002C527F601C526F6296B7E0E286F000103
:101F60004CDF0601256B246B7F0E276F2669296BDA
:101F7000286F000142DF270E0601256F100E246F27
:101F80000F0E276F020E266F296B800E286F00013F
:101F900034DFC30E0601256F4F0E246F4B0E276FE3
:101FA0000C0E266F296B810E286F000126DFFD0EB7
:101FB0000601256FE70E246F276B1F0E266F296B16
:101FC000820E286F000119DF0601256B246B236B3D
:101FD000226B000168DE02C523F601C522F6060168
:101FE000256B246B02C527F601C526F6296B840EE6
:101FF000286F000102DFC30E0601256F500E246F0B
:10200000430E236F8B0E226F00014DDE02C523F6B7
:1020100001C522F6270E0601256F100E246F02C59A
:1020200027F601C526F6296B850E286F0001E5DE2F
:10203000F40E0601256F240E246F740E236F8D0E8F
:10204000226F000130DE02C523F601C522F6C30E61
:102050000601256F510E246F02C527F601C526F62D
:10206000296B860E286F0001C8DE0601256B246BE4
:10207000200E236F8E0E226F000115DE02C523F69F
:1020800001C522F606012569246902C527F601C5A6
:1020900026F6296B870E286F0001AFDE0601256B3F
:1020A000246B276B266B296B880E286F0001A5DE39
:1020B000270E0601256F100E246F3E0E276F800E2F
:1020C000266F296B890E286F000197DEC30E06016B
:1020D000256F4F0E246F27692669296B8A0E286F9A
:1020E00000018BDEFD0E0601256FE70E246F2769C8
:1020F0002669296B8B0E286F00017FDE33BE08D066
:10210000680EF66E0C0EF76E000EF86EA2EC0BF079
:102110000A0E06014E6F00019BEC0AF050EF14F01E
:1021200005017EC501F500011200A9966DC54EF6A8
:102130006CC54DF6A98606014DC601F54EC602F5E1
:1021400000010DEF12F08E0E006E4EC601F54DC669
:1021500002F5036A015209E102C501F5026A080E9F
:10216000005E015202E1006A08D0D89001BE04D09E
:10217000023601360006F9D7019E120006016051B1
:10218000D8B471D0006E6451D8B46DD0002604E389
:10219000810E002668E204D07F0E005E64E363E0F7
:1021A00061C668F66551681B618F658F635167036F
:1021B000F4C46AF662516603F4C403F5F3C469F625
:1021C0006703F3506A27F4506923000E032263511A
:1021D0006603F3506A27F4506923000E026A032253
:1021E000022261516703F3506927F4500322000E65
:1021F000022261516603F3500326F4500222000EBE
:10220000016A012263516503F3506927F4500322E8
:10221000000E0222012262516503F3500326F4509E
:102220000222000E012261516503F3500226F45090
:102230000122002A01BE05D0693703360236013675
:102240000006000E69AF0AD0032A022201220150C3
:1022500005E1025003E1035001E1002A68BF018E4D
:1022600068AF019E04D0006A016A026A036A000135
:10227000120006016451D8B4A5D0706F6851D8B46B
:10228000A1D0705F05E37F0E7027D8B09BD006D039
:10229000810E705FD8A096D0D8B494D070C600F5E7
:1022A000016A026A036A6F6B65C66EF66E8F66C658
:1022B0006DF667C66CF6190E706F6B516C5F0DE2B0
:1022C000010E6D5F0AE26E5F08E26F5F06E26F2B40
:1022D0006E2B6D2B6B516C2728D06A516D5F12E20B
:1022E000010E6E5F0FE26F5F0DE26F2B6E2B6A5176
:1022F0006D276B516C2719E36D2B17E16E2B15E1E0
:102300006F2B13D0695180096E5F0EE2010E6F5F73
:102310000BE26F2B695180096E276A516D27E9E343
:102320006E2BE7E16F2BE5D70380702F01D00BD028
:10233000D8906C376D376E376F37D89003360236CA
:1023400001367137BAD771A106D0D8900132023266
:102350000332713302D0000635E071BF1ED0D89031
:102360006C376D376E376F376B516C5F07E2010E5C
:102370006D5F04E26E5F02E26F5F1AE36A516D5FA8
:1023800005E2010E6E5F02E26F5F12E369518009A0
:102390006E5F03E2010E6F5F0BE3032A09E1022A7D
:1023A00007E1012A05E1002A0DE001320232033281
:1023B00065C670F66951701B70AF02D0018E06D0F1
:1023C000019E04D0006A016A026A036A00011200D9
:1023D00006015751B608576F036A58C65BF6588F07
:1023E000D890583359335A33033202320132003213
:1023F000572FF6D75BAF0BD0001E011E021E031E27
:10240000002AD8B4012AD8B4022AD8B4032A000179
:10241000120086DE01C54CF688D602C54EF601C50F
:102420004DF691DE03C550F602C54FF601C54EF6D6
:1024300000C54DF603C563F602C562F601C561F637
:1024400000C560F60601676B666B656B8B0E646F8B
:10245000000194DE03C550F602C54FF601C54EF6E5
:1024600000C54DF603C567F602C566F601C565F6FB
:1024700000C564F606016B6B6A697F0E696F8E0E8C
:10248000686F0001F6DEEAC44EF6E9C44DF6D88264
:102490000601676B666B656B8A0E646F03C56BF62E
:1024A00002C56AF601C569F600C568F60001F9ECD7
:1024B0000CF04EC6EAF44DC6E9F40601636B626B9C
:1024C000800E616F7F0E606F03C567F602C566F60A
:1024D00001C565F600C564F6000150DE03C54BF684
:1024E00002C54AF601C549F600C548F606014C5139
:1024F000030A000107E0010A1EE0030A35E0010AB1
:102500004DE066D04BC667F64AC666F649C665F624
:1025100048C664F606016B6B6A6B696B800E686F68
:102520000001A7DE03C54BF602C54AF601C549F610
:1025300000C548F64DD04BC667F64AC666F649C692
:1025400065F648C664F606016B6B6A6B696B7F0EB5
:10255000686F00018EDE03C54BF602C54AF601C561
:1025600049F600C548F634D04BC663F64AC662F653
:1025700049C661F648C660F60601676B666B200EB9
:10258000656F820E646F0001F9DD03C54BF602C56D
:102590004AF601C549F600C548F61AD04BC663F69F
:1025A0004AC662F649C661F648C660F60601676B20
:1025B000666B480E656F860E646F0001DFDD03C534
:1025C0004BF602C54AF601C549F600C548F600D0EB
:1025D0004BC65AF64AC659F649C658F648C657F683
:1025E000F7DE1200B60E006E036A026A016A060187
:1025F0002A9129AF0CD02A81261F271F281F291FA7
:10260000262B05E1272B03E1282BD8B4292B2651B3
:1026100027112811291102E1006A0FD0D89001BEBC
:1026200009D02637273728372937033602360136AF
:10263000002EF4D7019E2AB1018E000186EF14F01E
:10264000D8B204D0060EEA6E560EE96E006A016A30
:10265000026A036A0601566B576B586B596B5551EA
:102660005411531152112CE0200E5A6FD8904E374E
:102670004F375037513756375737583759375551E5
:10268000595D08E15451585D05E15351575D02E130
:102690005251565D0FE35251565F5351D8A0533DEE
:1026A000575F5451D8A0543D585F5551D8A0553D5F
:1026B000595FD88000360136023603365A2FD6D7F6
:1026C00056C6EFF457C6ECF458C6ECF459C6ECF411
:1026D00000011200E9500601466F4551486F1BE0AA
:1026E00044C663F643C662F642C661F641C660F66A
:1026F000676B666B200E656F820E646F00013EDDB6
:1027000003C544F602C543F601C542F600C541F6CD
:102710000601482FE5D744C65AF643C659F642C6C5
:1027200058F641C657F6000153DE03C544F602C50C
:1027300043F601C542F600C541F6060144AF0DD08F
:102740004607468B411F421F431F441F412BD8B4ED
:10275000422BD8B4432BD8B4442B3B0E4D6F9A0E6A
:102760004C6FCA0E4B6F4A6B0A0E486F4551D8B476
:10277000462BD882060EEA6E410EE96E44C651F62B
:1027800043C650F642C64FF641C64EF64DC655F604
:102790004CC654F64BC653F64AC652F6000150DFFB
:1027A0000150005213E106014529485DD8A402D02A
:1027B00000010CD046510DE00F0B485D01E044E2F2
:1027C00046BF42D046BD05D0200E37D0200E0601B0
:1027D000461746AB0FD0469B4551D8A4460700503C
:1027E000466F2D0E4E6F00019BEC0AF0060146511C
:1027F000006E466B4551485D0DE10050466F2E0E50
:102800004E6F00019BEC0AF006014651006E200E4F
:102810004617000E300E46AB10D0469B4551D8A44B
:1028200046070050466F2D0E4E6F00019BEC0AF0DC
:1028300006014651006E466B300E002600C54EF66E
:1028400000019BEC0AF00601D8924DC651F64CC629
:1028500050F64BC64FF64AC64EF6556B546B536B4B
:102860000A0E526F0001ECDE03C54DF602C54CF6B0
:1028700001C54BF600C54AF60601482F7AD700017C
:102880001200A99675C546F674C545F6A9860601D7
:1028900045C601F546C602F50001120040EF0FF0F3
:1028A000720EF66E0C0EF76E000EF86EA2EC0BF0C8
:1028B000200E06014E6F00019BEC0AF0240E06016B
:1028C0004E6F00019BEC0AF021C622F6370E06017E
:1028D000236F0001D7EC0AF020C622F6370E06015E
:1028E000236F0001D7EC0AF094DD03C525F602C57D
:1028F00024F601C523F600C522F603C529F602C554
:1029000028F601C527F600C526F66CD603C563F682
:1029100002C562F601C561F600C560F66F0E0601DC
:10292000676F120E666F030E656F750E646F0001A0
:1029300025DC03C525F602C524F601C523F600C52E
:1029400022F6200E06014E6F00019BEC0AF0050EE8
:10295000E96E25C644F624C643F623C642F622C6CF
:1029600041F6030E0601456F0001B4DE560E060166
:102970004E6F00019BEC0AF00A0E06014E6F00013B
:102980009BEC0AF07EDF02C521F601C520F67E0E23
:10299000F66E0C0EF76E000EF86EA2EC0BF0200E29
:1029A00006014E6F00019BEC0AF0240E06014E6FEB
:1029B00000019BEC0AF021C622F6370E0601236FB8
:1029C0000001D7EC0AF020C622F6370E0601236F6D
:1029D0000001D7EC0AF021C64EF620C64DF6A3EC56
:1029E00010F003C525F602C524F601C523F600C57F
:1029F00022F603C563F602C562F601C561F600C59D
:102A000060F6A00E0601676F666B200E656F7E0E86
:102A1000646F0001BEEC10F003C525F602C524F674
:102A200001C523F600C522F603C563F602C562F6AA
:102A300001C561F600C560F66F0E0601676F120EE4
:102A4000666F030E656F750E646F0001BEEC10F0CB
:102A500003C525F602C524F601C523F600C522F6F6
:102A6000200E06014E6F00019BEC0AF0050EE96E88
:102A700025C644F624C643F623C642F622C641F6CE
:102A8000030E0601456F000125DE560E06014E6F4E
:102A900000019BEC0AF00A0E06014E6F00019BEC50
:102AA0000AF032EF2BF0060135512F0807E23551BD
:102AB000390804E3300E355D386F03D0000E016E27
:102AC00008D037C6EAF436C6E9F438C6EFF4010E8A
:102AD000016E0001120006013D6B3E6B010E3F6F5F
:102AE000050EDA6ED96A060E426F350E416F060E7C
:102AF000EA6E390EE96E42C6E2F441C6E1F43FC621
:102B000040F6D890E550EE02F3503D23F4503E23BA
:102B1000402FF7D73DC6DEF43EC63DF63E6BD8B03B
:102B20003E2B412BD8B4422B3F2B3F510508DFE110
:102B300000011200060135512F0807E2355139080E
:102B400004E3300E355D386F17D03551600807E269
:102B50003551660804E3570E355D386F0DD0355199
:102B6000400807E23551460804E3370E355D386FFB
:102B700003D0000E016E08D037C6EAF436C6E9F479
:102B800038C6EFF4010E016E0001120026C62EF6C3
:102B900025C62DF606012F91336B326B316B306BEE
:102BA0002EC6EAF42DC6E9F4EFC434F62B510A0818
:102BB00044E134512B0809E12D2BD8B42E2B2EC61D
:102BC000EAF42DC6E9F4EFC434F634C635F6060E41
:102BD000376F2C0E366F000166DF015201E12BD0FA
:102BE00033C638F632C637F631C636F630C635F655
:102BF00006013C6B3B6B3A6B0A0E396F00016BDFD1
:102C000003C533F602C532F601C531F600C530F60C
:102C100006012C513027000E3123322333232F811C
:102C20002D2BD8B42E2B2EC6EAF42DC6E9F4EFC412
:102C300034F6CBD7000134D006012B5110082FE118
:102C400034C635F6060E376F2C0E366F000172DF74
:102C5000015201E125D006013037313732373337A1
:102C60003037313732373337303731373237333720
:102C70003037313732373337F00E30172C51302799
:102C8000000E3123322333232F812D2BD8B42E2B4A
:102C90002EC6EAF42DC6E9F4EFC434F6D1D700010C
:102CA00006012FA119D028C6EAF427C6E9F430C6D8
:102CB000EFF431C6ECF432C6ECF433C6ECF42AC6B9
:102CC000EAF429C6E9F42EC6ECF4ED522DC6EFF471
:102CD000010E016E0CD00BD02AC6EAF429C6E9F425
:102CE00026C6ECF4ED5225C6EFF4000E016E00018D
:102CF000120006012251016A215D03E221C600F59E
:102D00000CD0006A080E236F213700362251005C78
:102D1000D8B0006E0136232FF7D700011200015002
:102D20001FC621F6640E0601226F0001E2DF00C516
:102D30001FF60150300E08E1060120A310D020B785
:102D40000ED020B9200E04D00601209720992081B2
:102D5000012601C54EF600019BEC0AF006011FC6D4
:102D600021F60A0E226F0001C4DF00C51FF60150D4
:102D7000300E08E1060120B70BD020A109D020B900
:102D8000200E0001012601C54EF69BEC0AF006015B
:102D9000300E1F271FC64EF600019BEC0AF00CEF09
:102DA00017F0720EF66E0D0EF76E000EF86EA2ECB6
:102DB0000BF07A0EF66E0D0EF76E000EF86E050E25
:102DC0000601416F0001BFEC0AF0100EE96E94C5D8
:102DD0003EF693C53DF699EC0EF06D0E06014E6F72
:102DE00000019BEC0AF0560E06014E6F00019BECB1
:102DF0000AF0860EF66E0D0EF76E000EF86E060ED9
:102E00000601416F0001BFEC0AF095C51FF61B0ECD
:102E10000601206F000183D70A0E06014E6F0001E4
:102E20009BEC0AF012002CC5EAF42BC5E9F406016C
:102E300021C6EFF4E92AD8B4EA2AEF6A2B2AD8B4DB
:102E40002C2A00011200060120BF11D00F0E006EC7
:102E50001F3900160A0E005C03E2300E002602D075
:102E60002051002600C521F60001DDDF06010F0E0E
:102E70001F170A0E1F5D02E2300E02D0209F205164
:102E80001F271FC621F60001CEDF12004750006E3B
:102E900048C503F51F0E485C04E13E0E005CD8B443
:102EA0005CD01B0E035C04E13F0E005CD8B463D021
:102EB0001E0E035C04E13F0E005CD8B46AD01F0E06
:102EC000035C04E1370E005CD8B471D01E0E035CC5
:102ED00004E1370E005CD8B478D00F0E035C04E137
:102EE0003F0E005CD8B47FD01F0E035C04E13C0EA3
:102EF000005CD8B486D01F0E035C04E13B0E005C7E
:102F0000D8B48DD01F0E035C04E13F0E005CD8B432
:102F100094D01F0E035C04E1BF0E005CD8B49BD0BC
:102F20001F0E035C04E17F0E005CD8B4A2D01C0E1F
:102F3000035C04E13F0E005CD8B4A9D01D0E035C15
:102F400004E12F0E005CD8B4B0D01F0E035C04E186
:102F50001F0E005CD8B4B7D0C4D0080EEA6E1E0EA7
:102F6000E96E000E74EC00F00A000900F550EE6EF8
:102F70000009FBE1D5D0080EEA6E1E0EE96E000EC8
:102F800087EC00F00A000900F550EE6E0009FBE145
:102F9000C7D0080EEA6E1E0EE96E000E9AEC00F025
:102FA0000A000900F550EE6E0009FBE1B9D0080EE9
:102FB000EA6E1E0EE96E000EAFEC00F00A0009008A
:102FC000F550EE6E0009FBE1ABD0080EEA6E1E0E66
:102FD000E96E000EC0EC00F00A000900F550EE6E3C
:102FE0000009FBE19DD0080EEA6E1E0EE96E000E90
:102FF000D2EC00F00A000900F550EE6E0009FBE18A
:103000008FD0080EEA6E1E0EE96E000EE5EC00F0A1
:103010000A000900F550EE6E0009FBE181D0080EB0
:10302000EA6E1E0EE96E000E23EC01F00A000900A4
:10303000F550EE6E0009FBE173D0080EEA6E1E0E2D
:10304000E96E000E36EC01F00A000900F550EE6E54
:103050000009FBE165D0080EEA6E1E0EE96E000E57
:1030600047EC01F00A000900F550EE6E0009FBE1A3
:1030700057D0080EEA6E1E0EE96E000E59EC01F0F4
:103080000A000900F550EE6E0009FBE149D0080E78
:10309000EA6E1E0EE96E000E6BEC01F00A000900EC
:1030A000F550EE6E0009FBE13BD0080EEA6E1E0EF5
:1030B000E96E000E7DEC01F00A000900F550EE6E9D
:1030C0000009FBE12DD0080EEA6E1E0EE96E000E1F
:1030D0008DEC01F00A000900F550EE6E0009FBE1ED
:1030E0001FD0080EEA6E1E0EE96E000EA2EC01F073
:1030F0000A000900F550EE6E0009FBE1080E2C6E87
:10310000270E2B6E48C51FF6370E0601206F0001F3
:103110009ADE47C51FF6370E0601206F000193DEC9
:103120001E0E016E080E026E00EF2CF00501B2912A
:10313000B293B295B297B29900011200050EEA6EF1
:10314000340EE96E3EC603F63DC602F6A8EC05F065
:1031500001501BEF25F006013D5308E0080E4E6FAD
:1031600000019BEC0AF006013D07F6D7000138EF9D
:1031700026F0010E0601446F3D5303E00501DC6BB0
:103180000601000109EC12F003C541F602C540F644
:1031900001C53FF600C53EF60501DC51FB0FD8B076
:1031A00055D1050F00013FEF1AF00601486B0001F1
:1031B000EDEC08F0C99EC19EC89EC08EC698BE8820
:1031C000020E0501DC6F42D1000141EC14F002C592
:1031D0004EF601C54DF6A3EC10F003C548F602C546
:1031E00047F601C546F600C545F603C563F602C5B8
:1031F00062F601C561F600C560F6A00E0601676FB4
:10320000666B200E656F7E0E646F0001BEEC10F0E1
:1032100003C560F602C55FF601C55EF600C55DF642
:1032200035EC0EF002C543F601C542F643C64EF634
:1032300042C64DF6A3EC10F003C563F602C562F674
:1032400001C561F600C560F60601676BF00E666F9A
:10325000520E656F8D0E646F0001BCEC0CF019E22C
:1032600043C64EF642C64DF6A3EC10F00601636B62
:10327000E80E626F616B8E0E606F03C567F602C564
:1032800066F601C565F600C564F60001BCEC0CF0FD
:1032900004E30501B28503D000010501B295D6D043
:1032A000000105017E51FC0FD8B0BBD0040F000116
:1032B0002BEF1AF0060141AF0FD04151FF080CE38C
:1032C00019E14051FF0808E315E13F51EC0804E320
:1032D00011E13E5177080EE241BF0FD041530AE1A0
:1032E000405308E13F51120808E2FF0A03E13E5152
:1032F000880803E20501B28106013FC686F53EC695
:1033000085F5010E486F0001EDEC08F0050189D04C
:103310000001060141AF0FD04151FF080CE316E157
:103320004051FF0808E312E13F51FF0804E30EE1BA
:103330003E5105080BE241BF0CD0415307E1405319
:1033400005E13F5303E13E51FA0803E20501B28172
:1033500006013FC684F53EC683F5020E486F0001A4
:10336000EDEC08F005015DD00001060141AF0FD082
:103370004151FF080CE316E14051FF0808E312E158
:103380003F51FF0804E30EE13E51E6080BE241BF66
:103390000CD0415307E1405305E13F5303E13E5157
:1033A000190803E20501B28106013FC682F53EC657
:1033B00081F5030E486F0001EDEC08F0050131D0F6
:1033C0000001060141AF0FD04151FF080CE316E1A7
:1033D0004051FF0808E312E13F51FF0804E30EE10A
:1033E0003E51F0080BE241BF0CD0415307E140537E
:1033F00005E13F5303E13E510F0803E20501B281AD
:1034000006013FC680F53EC67FF5486B0001EDEC36
:1034100008F0C698BE98030E0501DC6F02D00001CB
:10342000050114D000010501B2A102D0020E01D0A5
:10343000030E0601446F040E0501DC6F07D0000186
:103440000601446B050102D000010501060144C6D6
:1034500001F500011200E824F76AF736770FF66EDF
:10346000340EF722000EF86EFB6E0A00F550FA6E6D
:103470000800F550F96EB43212336A33C233E824CF
:10348000F76AF7369F0FF66E340EF722000EF86ECD
:10349000FB6E0A00F550FA6E0800F550F96EAA317D
:1034A000CA31A232263440347F0E016E050E026E00
:1034B000A7EF26F0EAC445F6E9C444F606013EAF9C
:1034C00008D0448F44A9442B3D1F3E1F3D2BD8B448
:1034D0003E2B3E39F009406F4027E20F416F320F1B
:1034E000436F3E510F0B412741274327E90F426F9E
:1034F000422742273D390F0B4227432742374337A4
:10350000431F43373D510F0B43274037070E3F6F93
:103510000A0E42074327FDE341074227FDE3400728
:103520004127FDE33F074027FDE3060EEA6E3F0E0D
:10353000E96E070E4415449DED52441507E144B968
:10354000EE5244B903D0200E006E21D0E926000EC1
:10355000EA22E950430804E1EA50060801E1448DFB
:10356000EF50006E08E144BD06D044B91ED044B708
:1035700002D0200E0BD044AF06D02D0E006EED50C1
:10358000449D449F04D044874499300E0026EAC4E9
:103590003EF6E9C43DF600C54EF600019BEC0AF08C
:1035A0003EC6EAF43DC6E9F40601EE5044ADD1D77B
:1035B000000112008E0E006E62C601F561C602F5B2
:1035C000036A01AE05D0011E021E022A01E1012A92
:1035D000015209E102C501F5026A080E005E0152BE
:1035E00002E1006A0ED0D89001BE04D00236013646
:1035F0000006F9D7060162AF02D0000102D0019E99
:10360000000112000601499148530DE14751440859
:1036100019E2FF0A08E14651060814E2FF0A03E135
:10362000455120080FE248530DE147514C080AE389
:1036300007E146514B0806E303E14551400802E328
:10364000498103D00501B2830601000E49B1010E84
:10365000016E000112000601499148530AE14753E7
:1036600008E14651110812E2FF0A03E145518D08B5
:103670000DE248530BE1475309E14651140806E3B4
:1036800003E14551820802E3499103D00501B28369
:103690000601000E49B1010E016E00011200010E7B
:1036A0000601446F3D5303E00501DD6B0601000197
:1036B00009EC12F001C53FF600C53EF60501DD51EB
:1036C000F70FD8B07AD2090F0001E2EF1DF0060122
:1036D000486B0001EDEC08F00601486B000128EC96
:1036E00009F0C99EC19EC89EC08E010E0501DD6F06
:1036F00064D20001C99CC18CC99AC18A020E05011D
:10370000DD6F5BD20001C99AC19A0501855106019E
:103710003E5D006E0501865106013F5900C591F5D9
:103720000501926FC89AC08AC89CC09CC99AC18A78
:10373000010E0601486F0001EDEC08F0030E0501D3
:10374000DD6F3BD200010501835106013E5F05019B
:10375000845106013F5B3FC662F63EC661F600013A
:1037600029DF03C563F602C562F601C561F600C52F
:1037700060F66F0E0601676F120E666F030E656FBF
:10378000750E646F0001BEEC10F003C548F602C56B
:1037900047F601C546F600C545F603C567F602C5FE
:1037A00066F601C565F600C564F6BD0E06016B6FD1
:1037B000370E6A6F060E696F6A0E686F000139EC8A
:1037C00011F003C55AF602C559F601C558F600C5F1
:1037D00057F6E8EC11F003C543F602C542F601C501
:1037E00041F600C540F63FC688F53EC687F543C69C
:1037F00048F642C647F641C646F640C645F602DFE1
:10380000010E0601486F000128EC09F00601486B23
:103810000001EDEC08F0040E0501DD6FCED10001D2
:103820000501855106013E5F0501865106013F5B9A
:103830003FC662F63EC661F60001BCDE03C563F614
:1038400002C562F601C561F600C560F66F0E06019D
:10385000676F120E666F030E656F750E646F000161
:10386000BEEC10F003C548F602C547F601C546F6A2
:1038700000C545F603C567F602C566F601C565F6DF
:1038800000C564F6AC0E06016B6FC50E6A6F270E9D
:10389000696F6D0E686F000139EC11F003C55AF6BF
:1038A00002C559F601C558F600C557F6E8EC11F007
:1038B00003C543F602C542F601C541F600C540F610
:1038C0003FC68AF53EC689F543C648F642C647F666
:1038D00041C646F640C645F695DEC89CC08CC89ADF
:1038E000C09A020E0601486F000128EC09F0020E92
:1038F0000601486F0001EDEC08F0050E0501DD6FD3
:103900005CD100010501815106013E5F0501825134
:1039100006013F5B3FC662F63EC661F600014ADE25
:1039200003C563F602C562F601C561F600C560F61F
:103930006F0E0601676F120E666F030E656F750ED0
:10394000646F0001BEEC10F003C548F602C547F6EF
:1039500001C546F600C545F603C567F602C566F61D
:1039600001C565F600C564F6170E06016B6FB70E4C
:103970006A6F510E696F700E686F000139EC11F0BB
:1039800003C55AF602C559F601C558F600C557F6E3
:10399000E8EC11F003C543F602C542F601C541F655
:1039A00000C540F63FC68CF53EC68BF543C648F6CB
:1039B00042C647F641C646F640C645F64CDE030E03
:1039C0000601486F000128EC09F0010E0601486F5E
:1039D0000001EDEC08F0060E0501DD6FEED00001F0
:1039E0000501835106013E5F0501845106013F5BDD
:1039F0003FC662F63EC661F60001DCDD03C563F634
:103A000002C562F601C561F600C560F66F0E0601DB
:103A1000676F120E666F030E656F750E646F00019F
:103A2000BEEC10F003C548F602C547F601C546F6E0
:103A300000C545F603C567F602C566F601C565F61D
:103A400000C564F66F0E06016B6F120E6A6F030EEF
:103A5000696F740E686F000139EC11F003C55AF6F6
:103A600002C559F601C558F600C557F6E8EC11F045
:103A700003C543F602C542F601C541F600C540F64E
:103A80003FC68EF53EC68DF543C648F642C647F69C
:103A900041C646F640C645F6DEDD040E0601486F17
:103AA000000128EC09F00601486B0001EDEC08F07C
:103AB000070E0501DD6F81D000010501855106016A
:103AC0003E5F0501865106013F5B3FC662F63EC67A
:103AD00061F600016FDD03C563F602C562F601C53C
:103AE00061F600C560F66F0E0601676F120E666F15
:103AF000030E656F750E646F0001BEEC10F003C518
:103B000048F602C547F601C546F600C545F603C5A9
:103B100067F602C566F601C565F600C564F60A0ECD
:103B200006016B6FD70E6A6F230E696F770E686F91
:103B3000000139EC11F003C55AF602C559F601C56A
:103B400058F600C557F6E8EC11F003C543F602C578
:103B500042F601C541F600C540F63FC690F53EC6A7
:103B60008FF543C648F642C647F641C646F640C6FC
:103B700045F671DDC99AC19AC89CC09CC99CC19C7C
:103B80000601486B0001EDEC08F00601486B0001EE
:103B900028EC09F00501B2A302D0020E01D0030EF9
:103BA0000601446F080E0501DD6F07D00001060114
:103BB000446B050102D000010501060144C601F570
:103BC00000011200E824F76AF736E50FF66E3B0EA7
:103BD000F722000EF86EFB6E0A00F550FA6E080030
:103BE000F550F96ECE36F4360637463720380439AC
:103BF000E039BA3AAE3B870E016E050E026E7FEFDA
:103C000027F0B60E006E036A026A016A06015B5174
:103C10005C115D115E1102E1006A0DD0D89001BE09
:103C200009D05B375C375D375E37033602360136C5
:103C3000002EF4D7019E000112000601566B556B51
:103C4000546B536B4A53D8A49AD04953D8A497D0F5
:103C500048515D08D8A093D004E14751BF08D8A0CF
:103C60008ED04AC65EF649C65DF648C65CF647C6C3
:103C70005BF60001C6DF03C563F602C562F601C547
:103C800061F600C560F66F0E0601676F120E666F73
:103C9000030E656F750E646F0001BEEC10F003C576
:103CA0005AF602C559F601C558F600C557F603C5C0
:103CB00067F602C566F601C565F600C564F64EC630
:103CC0006BF64DC66AF64CC669F64BC668F639EC1B
:103CD00011F003C552F602C551F601C550F600C5F4
:103CE0004FF6C00ED88006014755576F5D0E4855F8
:103CF000586F000E4955596F000E4A555A6F5E6F46
:103D000059C65DF658C65CF657C65BF6000179DF0A
:103D100003C563F602C562F601C561F600C560F62B
:103D20006F0E0601676F120E666F030E656F750EDC
:103D3000646F0001BEEC10F003C55AF602C559F6D7
:103D400001C558F600C557F603C567F602C566F605
:103D500001C565F600C564F652C66BF651C66AF633
:103D600050C669F64FC668F639EC11F003C556F631
:103D700002C555F601C554F600C553F6060156C6F0
:103D800063F655C662F654C661F653C660F6676BB5
:103D9000400E666F1C0E656F8C0E646F0001BCECEC
:103DA0000CF009E30601566B3C0E556F1C0E546F68
:103DB0008C0E536F1ED0200E0601636FBC0E626F17
:103DC0003E0E616F990E606F56C667F655C666F671
:103DD00054C665F653C664F60001BCEC0CF00AE369
:103DE000200E0601566FBC0E556F3E0E546F990E95
:103DF000536F000156C65AF655C659F654C658F6C2
:103E000053C657F6E8EC11F003C5BAF502C5B9F58B
:103E100001C5B8F500C5B7F50501BA530BE1B953B3
:103E200009E1B851270806E303E1B7510F0802E39F
:103E3000B28901D0B29900011200010E0601466F4D
:103E40003D5303E00501DE6B0601000109EC12F0B1
:103E500003C541F602C540F601C53FF600C53EF672
:103E600090EC10F00150FC0F56E2040FD7EF20F059
:103E70007FC500F580C501F5026A036A01AE02D074
:103E800002060306005006013E5F01503F5B0250F0
:103E9000405B0350415B00013ED081C500F582C507
:103EA00001F5026A036A01AE02D002060306005061
:103EB00006013E5F01503F5B0250405B0350415B97
:103EC000000129D083C500F584C501F5026A036AA3
:103ED00001AE02D002060306005006013E5F01500B
:103EE0003F5B0250405B0350415B000114D085C52D
:103EF00000F586C501F5026A036A01AE02D002062A
:103F00000306005006013E5F01503F5B0250405BDC
:103F10000350415B00013EC600F53FC601F540C6B7
:103F200002F541C603F5060141AF0DD0000ED88061
:103F30003E55006E000E3F55016E000E4055026E5C
:103F4000000E4155036E03C545F602C544F601C592
:103F500043F600C542F60501DE51FA0FD8B022D172
:103F6000060F0001EBEF20F00601486B0001EDECBD
:103F700008F0C89EC08EC99AC19AC99EC18E05011B
:103F80007799200EE26FBC0EE16F3E0EE06F980E47
:103F9000DF6F010EDE6F06D10001060145530AE115
:103FA000445308E14351E9080AE2FF0A03E14251A0
:103FB0005F0805E2030E0501DE6F3CD006014553A4
:103FC0000AE1445308E143513F082CE2FF0A03E1B0
:103FD0004251000827E2050177B920D0060141AF20
:103FE00002D005011BD041530AE1405308E13F5381
:103FF00006E13E510008D8A002D005010FD0C99CAF
:10400000C18CC89AC08A5E0E0501E26FB70EE16FDF
:104010000A0EE06F950EDF6F778902D0030EDE6F18
:1040200009D00601010E486F0001EDEC08F0020E08
:104030000501DE6FB7D00001060145530AE1445384
:1040400008E1435105082CE2FF0A03E142516608EA
:1040500027E2050177B920D0060141AF02D0050162
:104060001BD041530AE1405308E13F5306E13E5162
:104070000008D8A002D005010FD0C99CC18CC89AF5
:10408000C08A5E0E0501E26FB70EE16F0A0EE06FA7
:10409000950EDF6F778902D0030EDE6F09D006011F
:1040A000020E486F0001EDEC08F0030E0501DE6F13
:1040B00079D00001040E0501DE6F74D0000141C605
:1040C000B6F540C6B5F53FC6B4F53EC6B3F5060134
:1040D00045530DE144530BE1050194510601435D45
:1040E0003DE305E1050193510601425D37E305011A
:1040F000B6BF1DD0B65307E1B55305E1B45303E194
:10410000B351000814E245C64AF644C649F643C610
:1041100048F642C647F6E2C54EF6E1C54DF6E0C5A3
:104120004CF6DFC54BF6000188DD12D00501060113
:104130004A6B496B5D0E486FC00E476FE2C54EF685
:10414000E1C54DF6E0C54CF6DFC54BF6000175DD67
:104150000501B287020E0601466F0FD00501C2A10C
:1041600008D0050EBA6FF50EB96FE10EB86FB76BD8
:10417000B299B297030E0601466F486B0001EDEC51
:1041800008F0C99CC19CC89AC09AC89CC09C050EE6
:104190000501DE6F07D000010601466B050102D064
:1041A00000010501060146C601F500011200E824E0
:1041B000F76AF736CF0FF66E410EF722000EF86E53
:1041C000FB6E0A00F550FA6E0800F550F96EEE3EEF
:1041D000C43E9A3E703EE824F76AF736F70FF66E53
:1041E000410EF722000EF86EFB6E0A00F550FA6ED3
:1041F0000800F550F96E683F9A3F3840B440BE4021
:104200009841E9500601416F40AF0DD04107418B05
:104210003D1F3E1F3F1F401F3D2BD8B43E2BD8B43F
:104220003F2BD8B4402B3B0E486F9A0E476FCA0EF7
:10423000466F456B0A0E436FD882060EEA6E3D0E3E
:10424000E96E40C651F63FC650F63EC64FF63DC633
:104250004EF648C655F647C654F646C653F645C60A
:1042600052F6000120EC13F00150005213E1060158
:104270004351010AD8A402D000010CD041510DE0F5
:104280000F0B435D01E02EE241BF2CD041BD05D0B4
:10429000200E21D0200E0601411741AB0CD0419BCE
:1042A00000C541F62D0E4E6F00019BEC0AF0060191
:1042B00041C600F5416B300E41AB0DD0419B00C5AE
:1042C00041F62D0E4E6F00019BEC0AF0060141C62F
:1042D00000F5416B300E002600C54EF600019BEC48
:1042E0000AF00601D89248C651F647C650F646C6AF
:1042F0004FF645C64EF6556B546B536B0A0E526F14
:10430000000120EC13F003C548F602C547F601C5CD
:1043100046F600C545F60601432F8ED70001A1EFF2
:1043200028F006014C51FB0F37E2050F0001ADEFFD
:1043300022F0BD0E0601546F370E536F060E526FFA
:104340006A0E516F29D0AC0E0601546FC50E536F23
:10435000270E526F6D0E516F1FD0170E0601546F4E
:10436000B70E536F510E526F700E516F15D06F0E06
:104370000601546F120E536F030E526F740E516F7D
:104380000BD00A0E0601546FD70E536F230E526FD7
:10439000770E516F01D006014BC65EF64AC65DF638
:1043A00049C65CF648C65BF600012BDC03C563F624
:1043B00002C562F601C561F600C560F66F0E060122
:1043C000676F120E666F030E656F750E646F0001E6
:1043D000BEEC10F003C558F602C557F601C556F6F7
:1043E00000C555F603C567F602C566F601C565F654
:1043F00000C564F654C66BF653C66AF652C669F633
:1044000051C668F639EC11F003C550F602C54FF6F7
:1044100001C54EF600C54DF62B0E0601636F500E1A
:10442000626F7E0E616F970E606F50C667F64FC663
:1044300066F64EC665F64DC664F60001BCEC0CF09F
:1044400001E209E1050E0501BA6FF50EB96FE10E43
:10445000B86FB76B6CD050C663F64FC662F64EC6E7
:1044600061F64DC660F60601676B666B656B646B43
:104470000001BCEC0CF056E050C663F64FC662F685
:104480004EC661F64DC660F6200E0601676FBC0E83
:10449000666F3E0E656F980E646F0001BEEC10F003
:1044A00003C558F602C557F601C556F600C555F6C0
:1044B000D882200E0601676FBC0E666F3E0E656FD8
:1044C000980E646F50C66BF64FC66AF64EC669F614
:1044D0004DC668F60001F9EC0CF058C667F657C6F1
:1044E00066F656C665F655C664F603C56BF602C594
:1044F0006AF601C569F600C568F639EC11F003C526
:104500005AF602C559F601C558F600C557F6E8EC4B
:1045100011F003C5BAF502C5B9F501C5B8F500C576
:10452000B7F506D00501BA6BB96BB86BB76B000174
:104530000501BE6BBD6BBC6BBB6BBA530BE1B953D2
:1045400009E1B851270806E303E1B7510F0802E378
:10455000B28901D0B29900011200E824F76AF73657
:104560007B0FF66E450EF722000EF86EFB6E0A000A
:10457000F550FA6E0800F550F96E324346435A433F
:104580006E438243010E0601476F3D5303E0050170
:10459000E36B0601000109EC12F001C540F600C50D
:1045A0003FF60501E451FC0F2DE2040F00016FEF0F
:1045B00024F005017F5106013F5F0501805106018E
:1045C000405B05011FD00501815106013F5F0501D8
:1045D00082510601405B050115D00501835106019A
:1045E0003F5F050184510601405B05010BD00501C9
:1045F000855106013F5F050186510601405B0501BB
:1046000001D0050140C603F506013F5140AF08D077
:10461000000ED8803F55006E000E4055036E0050CE
:10462000456F03C546F640AF02D0466B456BE4C507
:104630003EF60501E351000A000118E0010A33E0EB
:10464000030A36E0010A39E0070A60E0010AD8B43B
:1046500086D0030AD8B488D0010AD8B49FD00F0AF4
:10466000D8B4A1D0010AD8B42DD131D10601486BFC
:104670000001EDEC08F00601486B000128EC09F0A0
:10468000C99AC19AC99CC19C0501E46BE56BC89E9F
:10469000C08EC99EC18EC99AC18AC99CC18C010EA7
:1046A000E36F18D10001020E0501E36F13D1000181
:1046B000040E0501E36F0ED10001D89006013E35CE
:1046C000036A000146EC00F00900F5C403F5016E31
:1046D00006014651035C13E303E10150455D0FE21F
:1046E0000501E4510108D8B002D0060108D0E42B3E
:1046F000E4C548F60001EDEC08F005D00601050E12
:104700000501E36F00010501E5D00001D890060125
:104710003E35036A000154EC00F00900F5C403F5CE
:10472000016E06014651035C13E303E10150455D50
:104730000FE20501E5510108D8B002D0060108D00A
:10474000E52BE5C548F6000128EC09F005D0060187
:10475000030E0501E36F00010501BCD00001060E48
:104760000501E36FB7D0000146C6E7F545C6E6F59B
:10477000E4C57CF5E5C57DF5E7C598F5E6C597F593
:104780000601486B000128EC09F0C99CC19CC99A3C
:10479000C19A070E0501E36F9DD00001080E0501C7
:1047A000E36F98D00001030E0601476F46C64EF630
:1047B00045C64DF60001A3EC10F003C563F602C533
:1047C00062F601C561F600C560F66F0E0601676FFF
:1047D000120E666F030E656F750E646F0001BEECFE
:1047E00010F003C54BF602C54AF601C549F600C5EF
:1047F00048F6E7C54EF6E6C54DF6A3EC10F003C546
:1048000063F602C562F601C561F600C560F66F0E7B
:104810000601676F120E666F030E656F750E646F8B
:104820000001BEEC10F04BC667F64AC666F649C6F4
:1048300065F648C664F603C56BF602C56AF601C59F
:1048400069F600C568F639EC11F003C544F602C5F7
:1048500043F601C542F600C541F60501E75303E101
:10486000E65164081EE2CD0E0601636FCC0E626F46
:104870004C0E616F7B0E606F44C667F643C666F6EA
:1048800042C665F641C664F60001BCEC0CF004E2D9
:10489000D8B402D0050105D0020E0601476F0DD035
:1048A000050106014B6B4A6BE7C549F6E6C548F6BC
:1048B000E5C54CF6000135DD0601090E0501E36F83
:1048C00009D000010601476B050104D00001090E63
:1048D0000501E36F060147C601F500011200E82457
:1048E000F76AF736FF0FF66E480EF722000EF86EE5
:1048F000FB6E0A00F550FA6E0800F550F96EEE45B1
:10490000DA45C645B245E9500601456F3B0E4C6F8E
:104910009A0E4B6FCA0E4A6F496B0A0E476FD882C8
:10492000060EEA6E410EE96E44C651F643C650F6D5
:1049300042C64FF641C64EF64CC655F64BC654F627
:104940004AC653F649C652F6000120EC13F0015056
:10495000005213E106014751010AD8A402D0000118
:104960000CD045510CE00F0B475D01E010E245BF54
:104970000ED045BD04D0200E03D00601456B300E8D
:10498000002600C54EF600019BEC0AF00601D89205
:104990004CC651F64BC650F64AC64FF649C64EF6BF
:1049A000556B546B536B0A0E526F000120EC13F0E1
:1049B00003C54CF602C54BF601C54AF600C549F6DB
:1049C0000601472FACD7000112EF29F00601236B37
:1049D000010E226F2093246BC80E256F100E266FD8
:1049E000580EF66E0E0EF76E000EF86E0001A2EC79
:1049F0000BF00601209120932095000178510400CE
:104A00000501FCA310D0FC9306012251D8B4230762
:104A1000222F08D0235306E1030E236FE80E226FE6
:104A2000242B20830501060E06013E6F1F0E3D6FED
:104A300000019EEF18F0015214E006011F512008FA
:104A400007E1262B26510F0801E2266B208508D0AE
:104A50001F511B0804E10001FF0003D00601208163
:104A60000001060120A503D0246B2083216B265171
:104A7000F00FD8B03DEF29F0100F000142EF29F000
:104A8000060120A50AD0900EF66E0E0EF76E000EEF
:104A9000F86E0001A2EC0BF0060124B102D0C39A1B
:104AA00001D0C38ACB9A3DEF29F00001060120A571
:104AB0000AD09E0EF66E0E0EF76E000EF86E000116
:104AC000A2EC0BF0060124B102D0C39C01D0C38C30
:104AD000CB9C3DEF29F00001060120A50AD0AC0EC9
:104AE000F66E0E0EF76E000EF86E0001A2EC0BF0E3
:104AF000060124B102D0C39E01D0C38ECB9E3DEFF0
:104B000029F00001060120A50AD0BA0EF66E0E0E9D
:104B1000F76E000EF86E0001A2EC0BF0060124B156
:104B200002D0C09001D0C080C890A7D30001060178
:104B300020A50AD0C80EF66E0E0EF76E000EF86EA7
:104B40000001A2EC0BF0060124B102D0C09201D00A
:104B5000C082C89292D30001060120A50AD0D60EC9
:104B6000F66E0E0EF76E000EF86E0001A2EC0BF062
:104B7000060124B102D0BE9C01D0BE8CC69C7DD360
:104B80000001060120A50ED00001DDEC08F0E40EC6
:104B9000F66E0E0EF76E000EF86EA2EC0BF0C99ECC
:104BA000C18E06016AD30001060120A50ED00001C6
:104BB000DDEC08F0FC0EF66E0E0EF76E000EF86ED1
:104BC000A2EC0BF0C698BE88060157D3000106017F
:104BD00020A50ED00001DDEC08F0140EF66E0F0ECD
:104BE000F76E000EF86EA2EC0BF0C99CC18C0601AA
:104BF00044D30001060120A50ED00001DDEC08F031
:104C00002E0EF66E0F0EF76E000EF86EA2EC0BF085
:104C1000C89AC08A060131D30001060120A50ED032
:104C20000001DDEC08F0480EF66E0F0EF76E000E78
:104C3000F86EA2EC0BF0C89CC08C06011ED30001DC
:104C4000060120A50ED00001DDEC08F0C89EC08E44
:104C5000620EF66E0F0EF76E000EF86EA2EC0BF001
:104C6000060120A34CD0070E3D6F0001ABEF18F0FA
:104C700041EC14F002C54EF601C54DF6A3EC10F060
:104C800003C540F602C53FF601C53EF600C53DF638
:104C900003C563F602C562F601C561F600C560F69C
:104CA000A00E0601676F666B200E656F7E0E646F47
:104CB0000001BEEC10F003C540F602C53FF601C589
:104CC0003EF600C53DF6040EE96E03C544F602C586
:104CD00043F601C542F600C541F60601456B0001E9
:104CE0006AEC13F06D0E06014E6F00019BEC0AF0AA
:104CF000560E06014E6F00019BEC0AF00601BDD274
:104D00000001060120A511D0780EF66E0F0EF76E89
:104D1000000EF86E0001A2EC0BF0010E06013D6FD3
:104D20000001B9EC18F00601A8D220A3B8D03D6B61
:104D30000001B9EC18F001C521F60601212D01D0C2
:104D4000AED02153D8B4ABD0000154EF1AF002C555
:104D500003F501C5E1F402C5E2F4060EEA6E2B0E7E
:104D6000E96E080E016EE6C4EEF4012EFCD7980E33
:104D7000F66E0F0EF76E000EF86E0C0E0601416F08
:104D80000001BFEC0AF0100EE96E32C63EF631C6E5
:104D90003DF65AEC1AF06D0E06014E6F00019BECC9
:104DA0000AF0560E06014E6F00019BEC0AF0AA0EA7
:104DB000F66E0F0EF76E000EF86E0C0E0601416FC8
:104DC0000001BFEC0AF0100EE96E30C63EF62FC6A9
:104DD0003DF65AEC1AF06D0E06014E6F00019BEC89
:104DE0000AF0560E06014E6F00019BEC0AF0BC0E55
:104DF000F66E0F0EF76E000EF86E0C0E0601416F88
:104E00000001BFEC0AF0100EE96E2EC63EF62DC66C
:104E10003DF65AEC1AF06D0E06014E6F00019BEC48
:104E20000AF0560E06014E6F00019BEC0AF0CE0E02
:104E3000F66E0F0EF76E000EF86E0C0E0601416F47
:104E40000001BFEC0AF0100EE96E2CC63EF62BC630
:104E50003DF65AEC1AF06D0E06014E6F00019BEC08
:104E60000AF0560E06014E6F00019BEC0AF0050198
:104E7000B2A10BD0E00EF66E0F0EF76E000EF86EBC
:104E80000001A2EC0BF00AD00501EE0EF66E0F0E3B
:104E9000F76E000EF86E0001A2EC0BF00601EDD1EA
:104EA0000001060120A519D0FA0EF66E0F0EF76E5E
:104EB000000EF86E0001A2EC0BF00A0EF66E100E5A
:104EC000F76E000EF86EA2EC0BF0010E06013D6FBE
:104ED00000014FEC1BF00601D0D120A3F8D03D6BB0
:104EE00000014FEC1BF001C521F60601212D01D078
:104EF000EED02153D8B4EBD00001FBEF1DF002C57A
:104F000003F501C5E1F402C5E2F4060EEA6E330EC4
:104F1000E96E0A0E016EE6C4EEF4012EFCD7380EDF
:104F2000F66E100EF76E000EF86E1C0E0601416F45
:104F30000001BFEC0AF0100EE96E92C53EF691C575
:104F40003DF699EC0EF06D0E06014E6F00019BECE4
:104F50000AF0560E06014E6F00019BEC0AF05A0E45
:104F6000F66E100EF76E000EF86E0E0E0601416F13
:104F70000001BFEC0AF0100EE96E34C63EF633C6EF
:104F80003DF65AEC1AF06D0E06014E6F00019BECD7
:104F90000AF0560E06014E6F00019BEC0AF06E0EF1
:104FA000F66E100EF76E000EF86E0E0E0601416FD3
:104FB0000001BFEC0AF0100EE96E36C63EF635C6AB
:104FC0003DF65AEC1AF06D0E06014E6F00019BEC97
:104FD0000AF0560E06014E6F00019BEC0AF0820E9D
:104FE000F66E100EF76E000EF86E0E0E0601416F93
:104FF0000001BFEC0AF0100EE96E38C63EF637C667
:105000003DF65AEC1AF06D0E06014E6F00019BEC56
:105010000AF0560E06014E6F00019BEC0AF0960E48
:10502000F66E100EF76E000EF86E0E0E0601416F52
:105030000001BFEC0AF0100EE96E3AC63EF639C622
:105040003DF65AEC1AF06D0E06014E6F00019BEC16
:105050000AF0560E06014E6F00019BEC0AF0AA0EF4
:10506000F66E100EF76E000EF86E0E0E0601416F12
:105070000001BFEC0AF0100EE96E3CC63EF63BC6DE
:105080003DF65AEC1AF06D0E06014E6F00019BECD6
:105090000AF0560E06014E6F00019BEC0AF0050166
:1050A000B2A30BD0BE0EF66E100EF76E000EF86EA9
:1050B0000001A2EC0BF00AD00501CC0EF66E100E2A
:1050C000F76E000EF86E0001A2EC0BF00601D5D0D1
:1050D0000001060120A511D0D80EF66E100EF76E55
:1050E000000EF86E0001A2EC0BF0010E06013D6F00
:1050F00000011DEC1FF00601C0D020A342D03D6B83
:1051000000011DEC1FF001C521F606012151010A25
:10511000000105E0020A22E0010A29E031D00A0E6E
:1051200006014E6F00019BEC0AF0410EE96EB6C518
:1051300040F6B5C53FF6B4C53EF6B3C53DF601EF42
:1051400021F06D0E06014E6F00019BEC0AF0560E29
:1051500006014E6F00019BEC0AF012D0F20EF66EC3
:10516000100EF76E000EF86EA2EC0BF009D0FE0EDA
:10517000F66E100EF76E000EF86EA2EC0BF000D07B
:1051800006017BD00001060120A511D00A0EF66EA3
:10519000110EF76E000EF86E0001A2EC0BF0010E7E
:1051A00006013D6F0001C2EC22F0060166D020A38B
:1051B0005FD03D6B0001C2EC22F001C521F6060173
:1051C0002151030803E02151020852E1D892BAC5E7
:1051D00051F6B9C550F6B8C54FF6B7C54EF6556B82
:1051E000546B030E536FE80E526F000120EC13F066
:1051F00003C540F602C53FF601C53EF600C53DF6C3
:105200000A0E06014E6F00019BEC0AF0410EE96E9A
:1052100040C644F63FC643F63EC642F63DC641F69A
:1052200083EF24F01E0EF66E110EF76E000EF86E70
:10523000050E0601416F0001BFEC0AF00601215185
:1052400003080BE1240EF66E110EF76E000EF86ED9
:105250000001A2EC0BF00DD00601300EF66E110E1F
:10526000F76E000EF86E0001A2EC0BF0060105D0FF
:105270000001060102D000010601FAEF24F000014E
:105280006EEF2CF0E824F76AF736A50FF66E520E93
:10529000F722000EF86EFB6E0A00F550FA6E080059
:1052A000F550F96E804AAC4AD84A044B2E4B584B05
:1052B000824BA84BCE4BF44B1A4C404C024DA24EA5
:1052C000D250865106011F51000A000117E0010A61
:1052D00066E0030A69E0010A6CE0070A6FE0010A70
:1052E00072E02C0AD8B474D0030A73E08C0EF66E08
:1052F0000C0EF76E000EF86EA2EC0BF09C0EF66E24
:105300000C0EF76E000EF86EA2EC0BF0A40EF66E0B
:105310000C0EF76E000EF86EA2EC0BF0B80EF66EE7
:105320000C0EF76E000EF86EA2EC0BF0CC0EF66EC3
:105330000C0EF76E000EF86EA2EC0BF0E00EF66E9F
:105340000C0EF76E000EF86EA2EC0BF0F40EF66E7B
:105350000C0EF76E000EF86EA2EC0BF0080EF66E57
:105360000D0EF76E000EF86EA2EC0BF0200EF66E2E
:105370000D0EF76E000EF86EA2EC0BF0360EF66E08
:105380000D0EF76E000EF86EA2EC0BF0480EF66EE6
:105390000D0EF76E000EF86EA2EC0BF01AD0DDECDD
:1053A00008F0C99EC18E15D0DDEC08F0C698BE8805
:1053B00010D0DDEC08F0C99CC18C0BD0DDEC08F0FE
:1053C000C89AC08A06D0DDEC08F0C89CC08C01D019
:1053D00000D0120026C62EF625C62DF606012F9106
:1053E000306B2EC6EAF42DC6E9F4EFC431F62B512A
:1053F0000A082DE131512B0809E12D2BD8B42E2BB1
:105400002EC6EAF42DC6E9F4EFC431F631C635F6FE
:10541000060E376F2C0E366F000153EC15F001525B
:1054200001E113D0060130510A0DF3C430F62C51BE
:1054300030272F812D2BD8B42E2B2EC6EAF42DC663
:10544000E9F4EFC431F6E2D7000123D006012B5175
:1054500010081EE131C635F6060E376F2C0E366F7A
:1054600000019AEC15F0015201E113D00601305110
:10547000100DF3C430F62C5130272F812D2BD8B4CA
:105480002E2B2EC6EAF42DC6E9F4EFC431F6E2D78E
:10549000000106012FA113D028C6EAF427C6E9F4BB
:1054A00030C6EFF42AC6EAF429C6E9F42EC6ECF4B5
:1054B000ED522DC6EFF4010E016E0CD00BD02AC6B2
:1054C000EAF429C6E9F426C6ECF4ED5225C6EFF459
:1054D000000E016E000199EF2CF0060E0601206F00
:1054E0000D0E1F6F0CC622F60BC621F6246B090E9B
:1054F000236F0001FFEF0BF006011E910D513F08D5
:10550000D8A4A5D00E513F0824E10F5322E1000199
:10551000C8EC09F001C51FF6EE0EF66E010EF76E2F
:10552000000EF86E050E0601416F0001BFEC0AF097
:105530001FC622F6370E0601236F0001D7EC0AF0D2
:105540000A0E06014E6F00019BEC0AF006011E8157
:105550007DD00E537BE10001B6EC0BF00501F4C5E4
:1055600001F501C51FF601C520F6000143EF0CF05F
:1055700002C520F601C51FF6140EF66E050EF76E75
:10558000000EF86E0E0E0601416F0001BFEC0AF02E
:1055900020C6EAF41FC6E9F4AAEC0CF00A0E0601D4
:1055A0004E6F00019BEC0AF0260EF66E050EF76EAC
:1055B000000EF86EA2EC0BF04A0EF66E050EF76EBA
:1055C000000EF86EA2EC0BF0720EF66E050EF76E82
:1055D000000EF86EA2EC0BF0980EF66E050EF76E4C
:1055E000000EF86EA2EC0BF0B40EF66E050EF76E20
:1055F000000EF86EA2EC0BF0CA0EF66E050EF76EFA
:10560000000EF86EA2EC0BF0E60EF66E050EF76ECD
:10561000000EF86EA2EC0BF0FA0EF66E050EF76EA9
:10562000000EF86EA2EC0BF0180EF66E060EF76E7A
:10563000000EF86EA2EC0BF0560EF66E060EF76E2C
:10564000000EF86EA2EC0BF006011E81C0D10D51C8
:1056500061080BE10E51730808E10F5305E10001E9
:105660004EEF14F006011E81B2D10D516408D8A48A
:105670006FD00E5162086CE10F51670869E1105359
:1056800002E11E812ED010513D082BE1040E0B25A6
:10569000016E000E0C21036E01C51FF6206F266FF0
:1056A00001C525F6060E286F160E276F060E2A6F07
:1056B0000B0E296F100E2B6F0001C6EC15F0015276
:1056C00011E00CC6EAF406010BC6E9F4EF5209E159
:1056D00019C62AF518C629F517C628F516C627F5DE
:1056E0001E81000106011EA132D0740EF66E060E58
:1056F000F76E000EF86E040E416F0001BFEC0AF069
:105700002AC522F6370E0601236F0001D7EC0AF0F6
:1057100029C522F6370E0601236F0001D7EC0AF0E7
:1057200028C522F6370E0601236F0001D7EC0AF0D8
:1057300027C522F6370E0601236F0001D7EC0AF0C9
:105740000A0E06014E6F00019BEC0AF006013FD1E4
:105750000D5164080BE10E51630808E10F5305E198
:105760000001D1EC16F006011E8131D10D516808FF
:105770000DE10E5161080AE10F516C0807E110516B
:10578000740804E1115301E1FFD721D10D517008D4
:105790002CE10E51720829E10F51740826E11053D3
:1057A00001E11E811EA120D00001C8EC09F001C555
:1057B0001FF67E0EF66E060EF76E000EF86E050EE4
:1057C0000601416F0001BFEC0AF01FC622F6370E3A
:1057D0000601236F0001D7EC0AF00A0E06014E6F96
:1057E00000019BEC0AF00601F2D00D51720827E18E
:1057F0000E51630824E10F5321E1000146EF17F039
:1058000002C520F601C51FF68A0EF66E060EF76E6B
:10581000000EF86E030E0601416F0001BFEC0AF0A6
:1058200020C6EAF41FC6E9F4AAEC0CF00A0E060141
:105830004E6F00019BEC0AF006011E81C8D00D518D
:1058400072080CE10E51730809E10F51740806E16A
:10585000105303E10001FF000601B9D00D51730898
:1058600027E10E51730824E10F5321E10001E8EC18
:1058700008F001C51FF6920EF66E060EF76E000ECA
:10588000F86E030E0601416F0001BFEC0AF01FC65F
:1058900022F6370E0601236F0001D7EC0AF00A0E3C
:1058A00006014E6F00019BEC0AF006011E818FD0AD
:1058B0000D51740816E10E51730813E10F5174086D
:1058C00010E1105161080DE1115173080AE1125302
:1058D00007E1000196EC18F0E6EF24F006011E81C6
:1058E00076D00D517408D8A472D00E530AE11F6B04
:1058F000236B226B216B206B0001E4DC06011E810F
:1059000066D0010E0B25016E000E0C21036E01C541
:105910001FF6206F266F01C525F6060E286F160E9E
:10592000276F060E2A6F0B0E296F0A0E2B6F0001D0
:1059300051D501524DE00CC6EAF406010BC6E9F45C
:10594000EF50200806E10B2BD8B40C2B0001F3D745
:1059500006010CC603F50BC6E9F403C5EAF4EF52E1
:105960000BE116C61FF6236B226B216B206B000127
:10597000A9DC06011E812BD00CC626F60BC625F627
:10598000060E286F1A0E276F060E2A6F0B0E296F50
:105990000A0E2B6F0001C6EC15F0015219E00CC67F
:1059A000EAF406010BC6E9F4EF52D8B402D00001C4
:1059B0000FD016C61FF61DC623F61CC622F61BC640
:1059C00021F61AC620F600017DDC06011E810001C9
:1059D00006011EB10AD09C0EF66E060EF76E000E82
:1059E000F86E0001A2EC0BF00601000141EF2DF072
:1059F00006010A9109510D0802E10A8130D0339263
:105A00000951080816E1325213E0080E4E6F0001EA
:105A10009BEC0AF0200E06014E6F00019BEC0AF091
:105A2000080E06014E6F00019BEC0AF032060601DB
:105A300016D009511F0813E209517E0810E33250B5
:105A40001D080DE009C64EF600019BEC0AF032502D
:105A5000322AE96E080EEA6E09C6EFF406010AA1C1
:105A600014D00A0E4E6F00019BEC0AF032C5E9F427
:105A7000080EEA6EEF6A080E06010C6F0B6B000150
:105A80002CD5326ACDEC0BF0060100016DEF2DF044
:105A9000060E0601036F080E026F000116EC0AF0F5
:105AA00001521BE0060108530CE1096B00019FEC59
:105AB0000BF00201BF9FBE99BE9B050177910ED0EE
:105AC000060108C609F60001E8EF0BF0015202E0FA
:105AD000FCEFFFF008C609F68BD70501000117EFB0
