This line prevents the file loading into a hex programmer. Use Loader method instead. 
:04000000D5EF45F003
:0800080000C504F501C505F572
:1000100002C506F5076A03C508F50001F5C409F530
:10002000F6C40AF5F7C40BF5F8C40CF5A2A01CEF52
:1000300000F0B2B034EF02F0A2A222EF00F0B2B2B0
:1000400055EF02F0A9A628EF00F0B9B682EF03F051
:10005000ADA62EEF00F0BDB660EF04F009C5F5F4D3
:100060000AC5F6F40BC5F7F40CC5F8F404C500F5A1
:1000700005C501F506C502F5078E08C503F5110093
:10008000F76A940FF66E000EF722000EF86E090064
:10009000F5501200101112131415161718191A1B07
:1000A0001C1D1E1F20212223242526274C4D4E4F88
:1000B000505152535455565758595A5B5C5D5E5FC8
:1000C0006062636465666768696A6B6C6D6E6F70A9
:1000D00071727374F76AE80FF66E000EF722000E65
:1000E000F86E0900F5501200414353776974636854
:1000F0000000F76A060FF66E010EF722000EF86E8A
:100100000900F550120045617274684C65616B61BD
:1001100067650000F76A280FF66E010EF722000EE1
:10012000F86E0900F5501200444353776974636810
:1001300032345600F76A480FF66E010EF722000EB1
:10014000F86E0900F55012004443537769746368F0
:100150003438564C5000F76A6A0FF66E010EF722DB
:10016000000EF86E0900F55012004443537769748D
:100170006368343856485000F76A8C0FF66E010EEB
:10018000F722000EF86E0900F5501200496E7661F4
:100190006C696400F76AA80FF66E010EF722000E74
:1001A000F86E0900F5501200245053545257414B39
:1001B0004555502A31380000F76ACC0FF66E010E13
:1001C000F722000EF86E0900F55012002450535427
:1001D000524C4F414445522A3134000064633D0083
:1001E000ECC4FAF4ECC4FBF4ED52ED52EFC4E8F4C5
:1001F000F96E1200000E016E1200010E016E120067
:10020000524F564D5558204D6F74686572626F613C
:1002100072645049432056312E3920323032362D07
:1002200030332D32332031313A33323A33372043B1
:100230006F707972696768742843293230323520CB
:0402400053545200C1
:0A024600F76A5A0FF66E020EF72257
:10025000000EF86E0900F550120042524F574E4FF3
:1002600055545F524553544152540000F76A800F71
:10027000F66E020EF722000EF86E0900F55012001D
:10028000434F4E4649475F434F5252555054494F92
:100290004E00F76AA60FF66E020EF722000EF86EF9
:1002A0000900F5501200494E544552525550545FC2
:1002B00046524F4D5F534C4545500000F76AD00FF2
:1002C000F66E020EF722000EF86E0900F5501200CD
:1002D0004D434C525F46524F4D5F52554E00F76AA8
:1002E000F20FF66E020EF722000EF86E0900F550BE
:1002F00012004D434C525F46524F4D5F534C4545A3
:100300005000F76A160FF66E030EF722000EF86E15
:100310000900F55012004D454D4F52595F56494F57
:100320004C4154494F4E0000F76A3C0FF66E030EE5
:10033000F722000EF86E0900F55012004E4F524D94
:10034000414C5F504F5745525F555000F76A600F60
:10035000F66E030EF722000EF86E0900F55012003B
:1003600052455345545F494E535452554354494F97
:100370004E00F76A860FF66E030EF722000EF86E37
:100380000900F5501200524553544152545F4E4FEC
:100390004E450000F76AA80FF66E030EF722000E16
:1003A000F86E0900F5501200535441434B5F4F560D
:1003B0004552464C4F570000F76ACC0FF66E030EBD
:1003C000F722000EF86E0900F55012005354414315
:1003D0004B5F554E444552464C4F5700F76AF00F5D
:1003E000F66E030EF722000EF86E0900F5501200AB
:1003F0005744545F46524F4D5F534C4545500000A3
:10040000F76A140FF66E040EF722000EF86E09005C
:10041000F55012005744545F54494D454F55540010
:10042000F76A340FF66E040EF722000EF86E09001C
:10043000F55012005744545F57494E444F575F568A
:10044000494F4C4154494F4E0000F76A5E0FF66E1B
:10045000040EF722000EF86E0900F5501200556EDA
:100460006B6E6F776E202400120EEA6EC20EE96E7C
:100470001D50E926000EEA220201B2C21FF5A1C2F8
:10048000EFF41FA204D0AB99B083B293AB891D2ABD
:10049000630ED8801D5401E21D6A1E501D5C01E1EF
:1004A0002182B29000012EEF00F000012550235C64
:1004B00005E12450225C02E1A29216D0130EEA6EEE
:1004C000260EE96E2450E9262550EA22EFC4A3F255
:1004D000242AD8B4252A2550070804E305E124502E
:1004E000CF0802E2256A246AB2922EEF00F02A2099
:1004F00061633C633E3D3C733E2053656E64204126
:100500004353776974636820636F6E6669673A2046
:100510003C633E3D6368616E6E656C203C733E3D9E
:100520007B6E7C797D0A00002A20617320202020C8
:100530002020202053686F7720616C6C20616E61F1
:100540006C6F672076616C7565730A002A2064629F
:10055000675B3D3C6D3E5D204765742F736574207D
:100560006465627567206D61736B2C20696E20680D
:1005700065780A002A2064635B3D3C636C3E5D2025
:100580004765742F736574204443537769746368B7
:1005900020636F6E6669673A0A002A2020202020B7
:1005A0002020202020203C636C3E3D437572726504
:1005B0006E744C696D69740A00002A2064633C7093
:1005C0003E2C3C633E3D3C733E2053656E642044AC
:1005D0004353776974636820636F6E6669673A0A8C
:1005E00000002A20202020202020202020203C70D5
:1005F0003E3D706F72742868657829203C633E3DEB
:100600006368616E6E656C203C733E3D7B6E7C79E9
:100610007D0A00002A2068616C74202020202020A0
:1006200048616C74202876696120574454290A0077
:100630002A20696C202020202020202053686F77FA
:10064000206C697374206F662049324320736C619B
:100650007665730A00002A20726320202020202063
:100660002020526573746172742063617573650A2A
:1006700000002A2072737420202020202020526540
:100680007365740A00002A207472692020202020DB
:1006900020205472616E73706172656E74206D6F8C
:1006A00064652077697468204932430A00002A2073
:1006B00074737461732020202020446F2061737351
:1006C000656D626C7920746573740A002A20782045
:1006D0002020202020202020457869740A006462B0
:1006E000673D256C580A000072633D25730A0000BF
:1006F0002A2054797065203F20666F722068656CEF
:10070000702E0A0000015C50010A0DE0030A3DE072
:10071000010A6DE0070AD8B49CD01B0E0301EC6FF0
:10072000010E5C6EC7D04730036E4630026E453016
:10073000016E4430006E0332023201320032033265
:10074000023201320032033202320132003200C57D
:1007500048F501C549F54850445E4950455A000ED8
:10076000465A475A0301F3B1FED7EBC303F5EAC378
:1007700001F50150442603504522000E462247222F
:100780001A0EEC6F020E5C6E95D05330036E523031
:10079000026E5130016E5030006E0332023201326F
:1007A00000320332023201320032033202320132AD
:1007B000003200C554F501C555F55450505E5550F2
:1007C000515A000E525A535A0301F3B1FED7EBC3EC
:1007D00003F5EAC301F50150502603505122000EE3
:1007E00052225322180EEC6F030E5C6E63D04D3014
:1007F000036E4C30026E4B30016E4A30006E033295
:10080000023201320032033202320132003203324C
:1008100002320132003200C54EF501C54FF54E508F
:100820004A5E4F504B5A000E4C5A4D5A0301F3B1D9
:10083000FED7EBC303F5EAC301F501504A26035086
:100840004B22000E4C224D22190EEC6F040E5C6EF2
:1008500031D05930036E5830026E5730016E563029
:10086000006E0332023201320032033202320132B0
:100870000032033202320132003200C55AF501C59E
:100880005BF55A50565E5B50575A000E585A595AEB
:100890000301F3B1FED7EBC303F5EAC301F5015041
:1008A000562603505722000E582259221B0EEC6F79
:1008B000010E5C6EF3810000B99600012EEF00F08E
:1008C000000105016FA709D07D51D8B47E077D2FA7
:1008D00004D07E5302E16F976F89972BD8B4982B81
:1008E0009851020811E2FF0A03E19751E7080CE270
:1008F000E80E975F030E985B010E9327D8B0942BF8
:10090000D8B4952BD8B4962B9BA109D09951D8B4C3
:100910009A07992F04D09A5302E19B919B836CA173
:1009200004D06B2F02D06C916C836CA504D06D2F1A
:1009300002D06C956C875DA209D06151D8B4620772
:10094000612F04D0625302E15D925D845DA604D004
:10095000632F02D05D965D886F8BBD9600012EEFF0
:1009600000F0494D574F2020202020202054413DA9
:1009700024253032582041434B3D25630000494D2A
:10098000524F2020202020202054413D2425303269
:10099000582041434B3D25630000494D57522020CC
:1009A000202020202054413D24253032582041432E
:1009B0004B3D25630A00494D536E644279746520AE
:1009C0002054413D242530325820446174613D2437
:1009D000253032582041434B3D25630A0000494DE4
:1009E00052656342797465202054413D242530329C
:1009F0005820446174613D24253032582041434BD6
:100A00003D25630A0000494D5772427974652020E4
:100A10002054413D242530325820436D643D242527
:100A200030325820446174613D24253032582041D1
:100A3000434B3D25630A0000494D5772576F72645E
:100A400020202054413D242530325820436D643D00
:100A5000242530325820446174613D242530346CA3
:100A6000582041434B3D25630A00494D5264427969
:100A7000746520202054413D242530325820436D98
:100A8000643D24253032582041434B3D256300000E
:100A9000494D5264576F726420202054413D2425F3
:100AA00030325820436D643D242530325820414374
:100AB0004B3D25630000494D426C6B57726974656C
:100AC0002054413D242530325820436D643D242577
:100AD0003032582041434B3D25630000494D426C64
:100AE0006B52656164202054413D242530325820EA
:100AF000436D643D24253032582041434B3D2563EE
:100B00000000494D577269746533322054413D24C9
:100B10002530325820436D643D242530325820441E
:100B20006174613D242530386C582041434B3D258C
:100B3000630A0000494D5265616433322054413DDF
:100B4000242530325820436D643D2425303258200E
:100B500041434B3D256300000A4661696C20617486
:100B6000206C696E6520256C753A2057616E743D66
:100B7000256C7520476F743D256C75000A466169C8
:100B80006C206174206C696E6520256C753A205765
:100B9000616E743D256C6420476F743D256C640064
:100BA00054657374696E673A000020416C6C20478D
:100BB0006F6F640020537570706C79343856202044
:100BC000000020537570706C79323456202000007C
:100BD00020537570706C79313034385600002053D2
:100BE0007570706C79313032345600007B226D7331
:100BF00067223A7B2274797065223A226A736F6E9B
:100C0000222C22747874223A226D697373696E679C
:100C100020277B27227D7D0A00007B226D736722BF
:100C20003A7B2274797065223A226A736F6E222CA5
:100C300022747874223A22696E76616C6964202786
:100C400071696427227D7D0A00007B226D73672213
:100C50003A7B2274797065223A226A736F6E222C75
:100C600022747874223A22696E76616C6964202756
:100C700071737427227D7D0A00007B226D736722C9
:100C80003A7B2274797065223A226A736F6E222C45
:100C900022747874223A22696E76616C6964202726
:100CA000716D627327227D7D0A007B226D7367223E
:100CB0003A7B2274797065223A226A736F6E222C15
:100CC00022747874223A22696E76616C69642027F6
:100CD0007161637327227D7D0A007B226D73672219
:100CE0003A7B2274797065223A226A736F6E222CE5
:100CF00022747874223A22696E76616C69642027C6
:100D00007161637327206D6F64756C65227D7D0A48
:100D100000007B226D7367223A7B22747970652212
:100D20003A226A736F6E222C22747874223A2269F6
:100D30006E76616C696420277164637327227D7D00
:100D40000A007B226D7367223A7B227479706522D8
:100D50003A226A736F6E222C22747874223A2269C6
:100D60006E76616C696420277164637327206D6FF0
:100D700064756C65227D7D0A00007B226D7367229D
:100D80003A7B2274797065223A226A736F6E222C44
:100D900022747874223A22696E76616C6964202725
:100DA00071656C7327227D7D0A007B226D7367223B
:100DB0003A7B2274797065223A226A736F6E222C14
:100DC00022747874223A22696E76616C69642027F5
:100DD00071656C7327206D6F64756C65227D7D0A6B
:100DE00000007B226D7367223A7B22747970652242
:100DF0003A226A736F6E222C22747874223A226D22
:100E0000697373696E6720277B27227D7D0A000046
:100E10007B226D7367223A7B2274797065223A22B5
:100E20006A736F6E222C22747874223A22696E766D
:100E3000616C696420277027227D7D0A00007B2277
:100E40006D7367223A7B2274797065223A226A7345
:100E50006F6E222C22747874223A22696E76616C4D
:100E600069642027636827227D7D0A007B226D73D9
:100E700067223A7B2274797065223A226A736F6E18
:100E8000222C22747874223A22696E76616C69642D
:100E90002027636C27227D7D0A007B226D736722E9
:100EA0003A7B2274797065223A226A736F6E222C23
:100EB00022747874223A22696E76616C6964202704
:100EC0006F6E27227D7D0A007B226D7367223A7B3D
:100ED0002274797065223A226A736F6E222C227412
:100EE0007874223A22696E76616C69642027736295
:100EF00027227D7D0A007B226D7367223A7B227454
:100F0000797065223A226A736F6E222C227478748B
:100F1000223A22756E6B6E6F776E206669656C641F
:100F20002027257327227D7D0A007B226D7367228F
:100F30003A7B2274797065223A226A736F6E222C92
:100F400022747874223A226D697373696E67202760
:100F50007D27227D7D0A00007B226D7367223A7B0C
:100F60002274797065223A226A736F6E222C227481
:100F70007874223A226D697373696E6720666965B9
:100F80006C642873292C20676F7420242530325814
:100F9000227D7D0A00007B226D7367223A7B2274DA
:100FA000797065223A226A736F6E222C22747874EB
:100FB000223A226D697373696E6720277B27227D31
:100FC0007D0A00007B226D7367223A7B2274797060
:100FD00065223A226A736F6E222C22747874223A48
:100FE00022696E76616C69642027636827227D7DA3
:100FF0000A007B226D7367223A7B22747970652226
:101000003A226A736F6E222C22747874223A226913
:101010006E76616C69642027636C27227D7D0A00EF
:101020007B226D7367223A7B2274797065223A22A3
:101030006A736F6E222C22747874223A22696E765B
:10104000616C696420276F6E27227D7D0A007B22F8
:101050006D7367223A7B2274797065223A226A7333
:101060006F6E222C22747874223A22756E6B6E6F2A
:10107000776E206669656C642027257327227D7D45
:101080000A007B226D7367223A7B22747970652295
:101090003A226A736F6E222C22747874223A226D7F
:1010A000697373696E6720277D27227D7D0A0000A2
:1010B0007B226D7367223A7B2274797065223A2213
:1010C0006A736F6E222C22747874223A226D6973CF
:1010D00073696E67206669656C642873292C2067C4
:1010E0006F74202425303258227D7D0A00007B2237
:1010F0006D7367223A7B2274797065223A226A7393
:101100006F6E222C22747874223A226D697373698F
:101110006E6720277B27227D7D0A00007B226D736E
:1011200067223A7B2274797065223A226A736F6E65
:10113000222C22747874223A22696E76616C69647A
:101140002027636827227D7D0A007B226D7367223A
:101150003A7B2274797065223A226A736F6E222C70
:1011600022747874223A22696E76616C6964202751
:10117000636C27227D7D0A007B226D7367223A7B98
:101180002274797065223A226A736F6E222C22745F
:101190007874223A22756E6B6E6F776E2066696581
:1011A0006C642027257327227D7D0A007B226D73C6
:1011B00067223A7B2274797065223A226A736F6ED5
:1011C000222C22747874223A226D697373696E67D7
:1011D00020277D27227D7D0A00007B226D736722F8
:1011E0003A7B2274797065223A226A736F6E222CE0
:1011F00022747874223A226D697373696E6720666F
:1012000069656C642873292C20676F74202425304D
:101210003258227D7D0A00007B226D7367223A7B63
:101220002274797065223A226A736F6E222C2274BE
:101230007874223A22756E6B6E6F776E20636D64E0
:101240002027257327227D7D0A007B226D7367226C
:101250003A7B2274797065223A226A736F6E222C6F
:1012600022747874223A226D697373696E6720273D
:101270007D27227D7D0A00007B226D7367223A7BE9
:101280002274797065223A226A736F6E222C22745E
:101290007874223A22627566666572206F7665728E
:1012A000666C6F77227D7D0A00007B226D7367225A
:1012B0003A7B2274797065223A226A736F6E222C0F
:1012C00022747874223A22756E62616C616E636575
:1012D0006420627261636B657473227D7D0A000015
:1012E000226574223A256C752E2530336C7500000A
:1012F0002C227373223A257500002C22666D223A47
:10130000256C7500227373223A2575002C22666DB8
:10131000223A256C75002C226373223A5B0022630B
:1013200068223A2575002C226373223A2575000045
:101330002C22666D223A257500002C226F76223A07
:10134000256C75002C226F69223A256C750022737A
:1013500073223A2575002C22666D223A256C7500A1
:101360002C226373223A257500002C226366223AF0
:10137000257500002C22746D223A257500002C2260
:101380006F76223A256C64002C226370223A253055
:10139000332E316500002C226C72223A256C7500C8
:1013A0002270223A257500002C227373223A25758B
:1013B00000002C22666D223A256C75002C22707478
:1013C000223A256C64002C226972223A256C750041
:1013D0002C226373223A5B00226368223A2575004F
:1013E0002C226373223A257500002C22666D223A66
:1013F000257500002C226F76223A256C75002C2270
:101400006F69223A256C6400226D6964223A7B0080
:10141000227631223A2575002C227632223A257521
:1014200000002C227633223A257500002C226279A6
:10143000223A256C75002C22626D223A2575000037
:101440002C226264223A257500002C226268223A1E
:10145000257500002C226274223A257500002C228A
:101460006273223A2575000022736964223A5B0098
:101470002270223A257500002C226164223A2575DB
:1014800000002C226877223A256C75002C22747992
:10149000223A257500002C227631223A257500006B
:1014A0002C227632223A257500002C227633223AFD
:1014B000257500002C226279223A256C75002C22B9
:1014C000626D223A257500002C226264223A25754D
:1014D00000002C226268223A257500002C226274DA
:1014E000223A257500002C226273223A25750000ED
:1014F0007D0D0A007B226D6273223A7B00007D7DA8
:101500000D0A0000226D6273223A7B002261637330
:10151000223A7B0022656C73223A7B00226463735B
:10152000223A5B007D0D0A007B22616373223A7BC5
:1015300000007D7D0D0A0000226D6273223A7B005F
:1015400022646373223A5B007D0D0A007B22656C86
:1015500073223A7B00007D7D0D0A0000546F6F20DE
:101560006D616E7920736C61766573210A004C524F
:101570002054413D2425303258204765745265730C
:10158000700A00004C522054413D2425303258202E
:10159000436F756E743D25752041646452657370A8
:1015A0003D24253032580A004C522054413D242518
:1015B00030325820476F74526573700A00004C52E5
:1015C00020526573706F6E7365733A0A0000205283
:1015D0006573703A00004C52205374696C6C20574C
:1015E000616974696E670A004C5220526573703DE0
:1015F00053656E64416761696E0A00004C52205267
:101600006573703D446F6E654661696C65640A0080
:101610004C5220526573703D53656E644E6578740C
:101620000A004C5220526573703D446F6E65476FDF
:101630006F640A0053552025753D3E25750A00004C
:101640004C532057616B6575703D242530346C58C0
:101650000A004C53204865780A004C53204F7468A8
:1016600065720A002A232300205072740000204172
:1016700064647200204857494400205665727369BB
:101680006F6E000020205479706500002A2D2D0017
:10169000202D2D2D0000202D2D2D2D00202D2D2D28
:1016A0002D00202D2D2D2D2D2D2D2D00202D2D2DDE
:1016B0002D2D2D2D2D2D2D2D2D2D2D2D2D2D2D0087
:1016C000202020004143436F6E6669675365743A7A
:1016D0000000204368616E3D25750000204F6E3D7F
:1016E0002575000020494C696D3D256C750044430B
:1016F000436F6E6669675365743A000020506F72DD
:10170000743D25750000204368616E3D257500001D
:1017100020494C696D3D256C7500204F6E3D257547
:10172000000045617274684C65616B616765436F69
:101730006E6669675365743A0000205674683D25EB
:101740006C750000204D6F64653D25750000546583
:101750007374206D6F64652E205072657373203C26
:1017600053706163653E20746F20636F6E74696EA1
:1017700075652C206F72203C4573633E20746F208A
:10178000657869743A00D850600B006E0038016EBD
:101790000132070E0116F1B00194F1A00184F1A409
:1017A0000196F1B40186F1A20198F1B20188F184A9
:1017B000F182F190F0C400F5F0A2009000A2018443
:1017C0003F0EF06E01C5A1F500C5A0F5B3EF46F0E0
:1017D0002E6A1F0E306E400E2F6E316AECEF46F00F
:1017E000BBC589F5BAC588F5B9C587F5B8C586F50D
:1017F000BFC58DF5BEC58CF5BDC58BF5BCC58AF5DD
:10180000C3C591F5C2C590F5C1C58FF5C0C58EF5AC
:101810005AEF47F00501CC513F080FE3CDC5E9F47D
:10182000CEC5EAF4036ACC51000140EC00F0EF6E43
:10183000010E016E0AD009D00501CDC5E9F4CEC56F
:10184000EAF4EF6A000E016E00011200020197999E
:10185000999F9985D6C5EAF4D5C5E9F40501D4A1C7
:1018600003D00201948D0501D4B102D00201949DF0
:1018700002018D5102E0EEC48CF2948B94BBFED732
:1018800097B907D099ABFCD78D5103E0EEC48CF229
:10189000F7D70501D4B104D0020198BBFAD703D021
:1018A000020194A7FED7016A95BB012A000112002C
:1018B0000201979999979985959D958FCFC5EAF4DF
:1018C000CEC5E9F4948B94BBFED7949D97B907D00D
:1018D00099A1FCD78BC2EEF48D5101E0F7D799B1F5
:1018E0008BC2EEF498BBFBD7016A98B702D097B9C8
:1018F000012A000112000501C651330802E2330E2D
:10190000C66FC991D890C235CB6F010EC625CC6F7A
:1019100002019699010E8D6F0501CB51FE0B02015C
:101920008F6F010E0501D46F050ED66FC30ED56FF4
:1019300000018CDF015004E002018D6B949D10D0FA
:101940000501CB51010902018F6FCCC58DF2010E4B
:101950000501CD6F080ECF6FCE6B0001A9DF02012C
:10196000015203E10501C98102010501C9A11CD091
:1019700000C8CAF5CA51C65D02E2C6C5CAF5C5C5EA
:10198000EAF4C4C5E9F4080EE26E010EE16ECA5134
:10199000016E04E0E6C4EEF4012EFCD7C7C5E9F4FD
:1019A000C8C5EAF4CAC5EFF4000EC9B1010E016E54
:1019B000000112000501C091D890BC35C16F020131
:1019C0009699010E8D6F0501C151FE0B02018F6FBB
:1019D000010E0501D46F050ED66FBD0ED56F000147
:1019E00035DF015004E002018D6B949D11D005019B
:1019F000C151010902018F6F020E8D6F010E0501A9
:101A0000CD6FBFC5CFF5BEC5CEF5000151DF0201D8
:101A1000015203E10501C0810201000E0501C0B1C0
:101A2000010E016E000138EF0EF0010E006E1E5027
:101A30001D5CD8B4006A34EF0DF004001E501D5C2C
:101A4000FCE0120EEA6EC20EE96E1E50E926000E90
:101A5000EA22EFC401F51E2A630ED8801E5401E26B
:101A60001E6A42EF0DF0E1D700A017D0ABC503F519
:101A7000AAC5E9F4ABC5EAF4EAC4E0F5E9C4DFF5C8
:101A80000001DBD7E0C5EAF4DFC5E9F4015001C588
:101A9000EFF4010E016E03D002D0000E016E1200B1
:101AA0000501E96BA2B2010EE96FA2922350255CF9
:101AB00004E314E12450225C11E32450225C006E04
:101AC00025502358036E0050310F016E070E035846
:101AD000026E025213E1015211E112D02250245C35
:101AE000006E23502558036E0050FF0F016E000E4C
:101AF0000358026E025202E1015202E0016A02D072
:101B0000010E016EE9B1A2820001A8EF0DF0130EE3
:101B1000EA6E260EE96E2250E9262350EA22E9C534
:101B2000EFF4222AD8B4232A2350070804E305E15E
:101B30002250CF0802E2236A226A2450225C04E188
:101B40002550235CD8B42184A282ADEF0DF0A8D734
:101B500001B007D0AAC5E9F5DAD7010E016E03D0AE
:101B600002D0000E016E1200B9EF0DF078510400A2
:101B7000FBD712000501DC510A080FE1050EEA6EE1
:101B80008A0EE96EAB6B0D0EAA6F0001F0EC00F04F
:101B9000015204E1EBDF0501F1D70001050EEA6E09
:101BA0008A0EE96E0501AB6BDCC5AAF50001F0EC0D
:101BB00000F0015202E1DADFF1D712000900F5521C
:101BC00010E0F6C4D1F5F7C4D2F5F8C4D3F5F5C4E6
:101BD000DCF5D0DFD1C5F6F4D2C5F7F4D3C5F8F4FF
:101BE000EDD712000501DE51E003F3C401F5F4C4A2
:101BF00000F5E103F3500026DF51E003F35000202D
:101C0000026E00011200B2C5CCF5050E0501CE6FC3
:101C1000B30ECD6F0001FEDDB3C5C2F5990E05010F
:101C2000C36F050EC56FB40EC46F050EC66FC86FC7
:101C3000B90EC76F00015FDE0152D8B470D0050144
:101C4000B95104086BE1B451530868E1B551540827
:101C500065E1B651520862E1B75360E1B3C5BCF526
:101C6000200EBD6F050EBF6FBA0EBE6F0001A2D66B
:101C7000015255E005016A51100809E15C0EF66E4B
:101C8000150EF76E000EF86E000198DF0501DF6B90
:101C90006AC5DEF5E16B2A0EE06F0001A3DF1C0EC2
:101CA00005010124E96E0C0E0220EA6EB2C5EFF4C4
:101CB000DF6B6AC5DEF5E16B2A0EE06F000192DF93
:101CC00001C5BCF5010E05010124016E000E0220C4
:101CD000036E01501C0FE96E0C0E0320EA6EB3C5B3
:101CE000EFF4DF6B6AC5DEF5E16B2A0EE06F0001F1
:101CF00079DF01C5BCF5020E05010124016E000E5D
:101D00000220036E01501C0FE96E0C0E0320EA6ED8
:101D1000BBC5ECF4ED52BAC5EFF46A2B000112001A
:101D20000501DF6BB2C5DEF5E16B2A0EE06F000145
:101D300059DF02C5B5F501C5B4F5010E0501012451
:101D4000016E000E0220036E01501C0FE96E0C0E96
:101D50000320EA6EEFC4B4F5DF6BB2C5DEF5E16BCC
:101D60002A0EE06F00013EDF01C5B5F5040E050146
:101D70000124016E000E0220036E01501C0F016E43
:101D80000C0E032201C5B5F503C5B6F5B4C5C2F501
:101D9000340EC36F03C5C5F501C5C4F5100EC66F7B
:101DA000050EC86FB30EC76F0001A5DD015206E036
:101DB0000501B3511008D8B448D100010501DF6B0B
:101DC000B2C5DEF5E16B2A0EE06F00010BDF02C544
:101DD000B5F501C5B4F5040E0501B427000EB52311
:101DE0001C0EB425E96E0C0EB521EA6EEF6ADF6BAE
:101DF000B2C5DEF5E16B2A0EE06F0001F3DE02C52D
:101E0000B5F501C5B4F5040E0501B427000EB523E0
:101E1000010EB425016E000EB521036E01501C0F9A
:101E2000E96E0C0E0320EA6EEF6ADF6BB2C5DEF5D9
:101E3000E16B2A0EE06F0001D5DE02C5B5F501C5E4
:101E4000B4F5040E0501B427000EB523020EB42527
:101E5000016E000EB521036E01501C0FE96E0C0ED1
:101E60000320EA6EEF6ADF6BB2C5DEF5E16B2A0E86
:101E7000E06F0001B7DE02C5B5F501C5B4F5040E8B
:101E80000501B427000EB523030EB425016E000E24
:101E9000B521036E01501C0FE96E0C0E0320EA6E93
:101EA000EF6ADF6BB2C5DEF5E16B2A0EE06F000171
:101EB00099DE02C5B5F501C5B4F5040E0501B427D8
:101EC000000EB523040EB425016E000EB521036E7D
:101ED00001501C0FE96E0C0E0320EA6EEF6ADF6BF7
:101EE000B2C5DEF5E16B2A0EE06F00017BDE02C5B4
:101EF000B5F501C5B4F5040E0501B427000EB523F0
:101F0000050EB425016E000EB521036E01501C0FA5
:101F1000E96E0C0E0320EA6EEC6AED52EF6ADF6B9D
:101F2000B2C5DEF5E16B2A0EE06F00015BDE02C593
:101F3000B5F501C5B4F5040E0501B427000EB523AF
:101F4000070EB425016E000EB521036E01501C0F63
:101F5000E96E0C0E0320EA6EEF6ADF6BB2C5DEF5A8
:101F6000E16B2A0EE06F00013DDE02C5B5F501C54B
:101F7000B4F5040E0501B427000EB523080EB425F0
:101F8000016E000EB521036E01501C0FE96E0C0EA0
:101F90000320EA6EEF6ADF6BB2C5DEF5E16B2A0E55
:101FA000E06F00011FDE02C5B5F501C5B4F5040EF2
:101FB0000501B427000EB523090EB425016E000EED
:101FC000B521036E01501C0FE96E0C0E0320EA6E62
:101FD000EF6ADF6BB2C5DEF5E16B2A0EE06F000140
:101FE00001DE02C5B5F501C5B4F5040E0501B4273F
:101FF000000EB5230A0EB425016E000EB521036E46
:1020000001501C0FE96E0C0E0320EA6EEF6ADF6BC5
:10201000B2C5DEF5E16B2A0EE06F0001E3DD02C51B
:10202000B5F501C5B4F5040E0501B427000EB523BE
:102030000B0EB425016E000EB521036E01501C0F6E
:10204000E96E0C0E0320EA6EEF6A000189EF10F0D2
:102050000501B26B6A51B25D3AE2DF6BB2C5DEF5E3
:10206000E16B2A0EE06F0001BDDD02C503F50150F2
:102070001C0FE16E0C0E0220E26E050EEA6EB30E2E
:10208000E96E2A0E016EE6C4EEF4012EFCD70501BE
:10209000BA5303E010016F8F0501BC51EA0812E149
:1020A000BD5107080FE1BE5103080CE1BF511708ED
:1020B00009E1C0510B0806E1C151200803E1C251FA
:1020C000250803E010016F8D0501B22BC3D7000175
:1020D0008EEF10F005016A6BB16BB1510B0807E38D
:1020E000B1C5B2F500018FDD0501B12BF6D73E0E6B
:1020F000B26F000188DD3F0E0501B26F000183DD84
:102100000501B16B6A51B15D07E2B1C5B2F50001DD
:1021100007D60501B12BF6D700019AD7B0EF10F022
:102120000501B09180517F5D03E080C57FF5B081EE
:102130007F51010A000107E0030A1AE0120A29E0B0
:10214000130A28E027D00501B0A106D06F977E6B57
:10215000C80E7D6F6F996F876FA908D00001BAD73D
:10216000020E0501806F000115D00501000112D09B
:102170000501B0A107D06F97030E7E6F200E7D6F13
:102180006F996F876FA903D0100E806F04D0000184
:1021900001D000D00501000162EF47F0B1C5B2F5F2
:1021A0001200A99649C5CCF548C5CBF5A98605010D
:1021B000CBC501F5CCC502F500011200A9964FC5AB
:1021C000CCF54EC5CBF5A9860501CBC501F5CCC52F
:1021D00002F500011200A99655C5CCF554C5CBF502
:1021E000A9860501CBC501F5CCC502F50001120099
:1021F000A9965BC5CCF55AC5CBF5A9860501CBC51B
:1022000001F5CCC502F50001120005017FC501F5FD
:10221000000112000501D051320802E2320ED06FE7
:10222000CDC500F8D0C501F8080EEA6E020EE96EC1
:10223000CFC5E2F4CEC5E1F4D051016E04E0E6C4AE
:10224000EEF4012EFCD7D191D890CC35D26F020E8E
:10225000D025D36F020196998D6F0501D251FE0BE7
:1022600002018F6F0501D46B080ED66FD56B00018C
:1022700026EC0CF0015203E10501D1810001000EB2
:102280000501D1B1010E016E000112000501B96B0B
:10229000A2B2010EB96FA2922350255C04E30AE1B9
:1022A0002450225C07E32450225C016E2550235801
:1022B000026E0DD02250245C006E23502558036E10
:1022C0000050FF0AD10F016E070E0354026EB9B120
:1022D000A28200011200E7C5AAF539DC015202E131
:1022E00045DCF9D712000900F55210E0F6C4DEF51E
:1022F000F7C4DFF5F8C4E0F5F5C4E7F5ECDFDEC5BB
:10230000F6F4DFC5F7F4E0C5F8F4EDD71200050EDA
:10231000EA6EC70EE96E050EE26E930EE16E060ED2
:10232000016EE6C4EEF4012EFCD70501C751935DA2
:10233000D8B402D00001EBD7C70E016E050E026EB5
:10234000000173EF12F00900F6C4DFF5F7C4E0F501
:10235000F8C4E1F5F5C4E7F5BEDFDFC5F6F4E0C586
:10236000F7F4E1C5F8F40501DE2F01D002D0000139
:10237000EAD700011200EAC4E6F5E9C4E5F5050173
:10238000DF39F009E16FE127E20FE26F320FE46F0E
:10239000DF510F0BE227E227E427E90FE36FE32782
:1023A000E327DE390F0BE327E427E337E437E41FA5
:1023B000E437DE510F0BE427E137070EE06F0A0E1A
:1023C000E307E427FDE3E207E327FDE3E107E22774
:1023D000FDE3E007E127FDE3050EEA6EE00EE96E9E
:1023E000070EE515E59DE926000EEA22E950E4080E
:1023F00004E1EA50050801E1E58DEF50006E08E1C7
:10240000E5BD06D0E5B915D0E5B702D0200E03D062
:10241000E587E599300E0026EAC4DFF5E9C4DEF56C
:1024200000C5E7F5000157DFDFC5EAF4DEC5E9F4D2
:102430000501EE50E5ADDAD7000112000501E151CA
:10244000016AE05D03E2E0C500F50CD0006A080E09
:10245000E26FE0370036E151005CD8B0006E013623
:10246000E22FF7D7000112000150DEC5E0F5640E3F
:102470000501E16F0001E2DF00C5DEF50150300E1D
:1024800008E10501DFA30FD0DFB70DD0DFB9200EC3
:1024900004D00501DF97DF99DF81012601C5E7F54B
:1024A000000119DF0501DEC5E0F50A0EE16F00014C
:1024B000C5DF00C5DEF50150300E08E10501DFB7CC
:1024C0000AD0DFA108D0DFB9200E0001012601C526
:1024D000E7F501DF0501300EDE27DEC5E7F5000177
:1024E000FADE120014D702C503F501C5E1F402C5F6
:1024F000E2F4050EEA6EBB0EE96E060E016EE6C44E
:10250000EEF4012EFCD7E00EF66E120EF76E000E02
:10251000F86E050E0501DE6F000115DF100EE96E85
:10252000BCC5DFF5BBC5DEF526DF2E0E0501E76F66
:102530000001D1DE0A0EE96EC0C5DFF5BFC5DEF5CC
:102540001ADF0501B9C5E9F4BAC5EAF4EFC4C1F56B
:10255000F00EF66E120EF76E000EF86E060EDE6FBF
:102560000001F1DEC1C5DEF51B0E0501DF6F0001C4
:102570007BDF010E0501B925E96E000EBA21EA6E76
:10258000ECC4C2F5ED52EFC4C1F5FA0EF66E120EB0
:10259000F76E000EF86E060EDE6F0001D4DE100E30
:1025A000E96EC2C5DFF5C1C5DEF5E5DE1200120E2B
:1025B0000501B825E96E000EB921EA6EEFC4BDF53C
:1025C000040EF66E130EF76E000EF86E050EDE6F3B
:1025D0000001B9DEBDC5DEF51B0E0501DF6F000190
:1025E00043DF130E0501B825E96E000EB921EA6E2E
:1025F000ECC4BEF5ED52EFC4BDF50C0EF66E130E35
:10260000F76E000EF86E060EDE6F00019CDE100EF7
:10261000E96EBEC5DFF5BDC5DEF5ADDE160EF66EA4
:10262000130EF76E000EF86E5EDE0501BA6BBA513E
:102630000108D8A0A6D0DF6BBAC5DEF5E16B090EA4
:10264000E06F0001F2EC0DF002C503F50150050149
:10265000B825016EB951032201C5BBF503C5BCF510
:10266000BA5305E02C0EE76F000135DE05017B0E45
:10267000E76F000130DE1E0EF66E130EF76E000ED1
:10268000F86E050E0501DE6F00015DDEBAC5DEF5F0
:102690001B0E0501DF6F0001E7DE0501BBC5E9F494
:1026A000BCC5EAF4EFC4BDF5260EF66E130EF76E48
:1026B000000EF86E060EDE6F000145DEBDC5DEF5CC
:1026C0001B0E0501DF6F0001CFDE020E0501BB25E9
:1026D000E96E000EBC21EA6EEFC4BDF5300EF66E59
:1026E000130EF76E000EF86E060EDE6F00012BDE85
:1026F000BDC5DEF51B0E0501DF6F0001B5DE030E63
:102700000501BB25E96E000EBC21EA6EECC4BEF5E6
:10271000ED52EFC4BDF53A0EF66E130EF76E000ED5
:10272000F86E060EDE6F00010EDE100EE96EBEC5FD
:10273000DFF5BDC5DEF51FDE050E0501BB25E96E23
:10274000000EBC21EA6EECC4BEF5ED52EFC4BDF53F
:10275000440EF66E130EF76E000EF86E060EDE6F68
:102760000001F1DD100EE96EBEC5DFF5BDC5DEF579
:1027700002DE7D0E0501E76F0001ADDD0501BA2B1C
:1027800056D75D0EE76F0001A6DD1200D8B204D067
:10279000050EEA6EE40EE96E006A016A026A036AD7
:1027A0000501E46BE56BE66BE76BE351E211E111C8
:1027B000E0112CE0200EE86FD890DC37DD37DE37F3
:1027C000DF37E437E537E637E737E351E75D08E120
:1027D000E251E65D05E1E151E55D02E1E051E45DD4
:1027E0000FE3E051E45FE151D8A0E13DE55FE25144
:1027F000D8A0E23DE65FE351D8A0E33DE75FD88093
:102800000036013602360336E82FD6D7E4C5EFF49A
:10281000E5C5ECF4E6C5ECF4E7C5ECF40001120004
:10282000E9500501C26FC1AF0DD0C207C28BBE1FF8
:10283000BF1FC01FC11FBE2BD8B4BF2BD8B4C02B25
:10284000D8B4C12B3B0EC96F9A0EC86FCA0EC76FA2
:10285000C66B0A0EC46FD882050EEA6EBE0EE96E14
:10286000C1C5DFF5C0C5DEF5BFC5DDF5BEC5DCF50C
:10287000C9C5E3F5C8C5E2F5C7C5E1F5C6C5E0F5CC
:10288000000184DF0150005213E10501C451010A27
:10289000D8A402D000010CD0C2510DE00F0BC45DD2
:1028A00001E02BE2C2BF29D0C2BD05D0200E1FD04F
:1028B000200E0501C217C2AB0BD0C29B00C5C2F5EA
:1028C0002D0EE76F000107DD0501C2C500F5C26BE3
:1028D000300EC2AB0CD0C29B00C5C2F52D0EE76F07
:1028E0000001F9DC0501C2C500F5C26B300E0026FF
:1028F00000C5E7F50001EFDC0501D892C9C5DFF599
:10290000C8C5DEF5C7C5DDF5C6C5DCF5E36BE26B12
:10291000E16B0A0EE06F000139DF03C5C9F502C59E
:10292000C8F501C5C7F500C5C6F50501C42F93D785
:1029300000010BEF17F0C2C5CBF5C3C5CCF50501FF
:10294000CD6BBFAF02D0CB8DCC07BF8FBE51D8B4FB
:10295000A8D07F0EBE5D61E3BE6FCE6B040ECF6F5D
:10296000D890C137C037BF37CD37CF2FF9D7040E36
:10297000BE5D08E2030EBE5DD8A48CD00A0ECD5D0C
:10298000D8A088D0030EBE5FCE2B000126D9D890E8
:102990000501C137C037BF37CD37000107D9020E57
:1029A0000501CF6FD890CD33BF33C033C133CF2FA4
:1029B000F9D7000112D9040E0501CF6FD890C233A8
:1029C000C333C433C533CF2FF9D70001EFD805D9AE
:1029D000C4C5C5F5C3C5C4F5C2C5C3F50501C26B01
:1029E0000001E4D8FAD8C3C5C5F5C2C5C4F50501D0
:1029F000C26BC36B0001DAD80501CDB7B8D7BE539F
:102A000005E1C12BC02BBF2BCD2B44D0D890C137B3
:102A1000C037BF37CD37BE07AAD7BE1FBE2B7F0E2C
:102A2000BE27CE6B040ECF6FD890C137C037BF37EB
:102A3000CD37CF2FF9D7040EBE27050EBE5D38E384
:102A40000001CBD8D8900501C137C037BF37CD378B
:102A5000D890C137C037BF37CD370001A7D8D8903D
:102A60000501C137C037BF37CD37CE2B030ECF6F2F
:102A7000D890CD33BF33C033C133CF2FF9D7030E36
:102A8000BE5FCDA9DAD7D890CD33BF33C033C133C1
:102A9000BE07D3D7BE1FBE2B030EBE272B0ECF6F94
:102AA0000AD0CD6BBF6BC06BC16BCF6BCE6B03D04D
:102AB000BE072D0ECF6FCBAD07D02D0EE76F0001F7
:102AC0000ADC0501CB9FCB9DC76BCDC5C6F5BE51BA
:102AD00005E0C86FD890C633C82FFCD7CBC5C8F562
:102AE000C751C85D2FE3300EC625E76F00016BECC0
:102AF00011F00501C75306E12E0EE76F00016BECE4
:102B000011F00501C72BBE5105E0C86FD890C6373C
:102B1000C82FFCD7C651CD5F00015FD8D890050102
:102B2000C137C037BF37CD37D890C137C037BF376F
:102B3000CD3700013BD8D8900501C137C037BF372A
:102B4000CD37C3D7450EE76F00016BEC11F00501DF
:102B5000CF5105E0E76F00016BEC11F00501C96B87
:102B6000CEC5CAF50A0ECA5F13E3C92BCA5FFDE2E0
:102B7000CA27300EC925E76F00016BEC11F0300E4B
:102B80000501CA25E76F00016BEC11F00ED00501BD
:102B9000CA27300EE76F00016BEC11F0300E050113
:102BA000CA25E76F00016BEC11F020D00501C5517B
:102BB000C12705E3C02B03E1BF2B01E1CD2BC4519D
:102BC000C02703E3BF2B01E1CD2BC351BF27D8B0F2
:102BD000CD2BC251CD270001000CCDC5C2F5BFC51C
:102BE000C3F5C0C5C4F5C1C5C5F5000C36EF17F077
:102BF000E9500501C26F3B0EC96F9A0EC86FCA0E2D
:102C0000C76FC66B0A0EC46FD882050EEA6EBE0E81
:102C1000E96EC1C5DFF5C0C5DEF5BFC5DDF5BEC5D2
:102C2000DCF5C9C5E3F5C8C5E2F5C7C5E1F5C6C51C
:102C3000E0F50001ABDD0150005213E10501C45184
:102C4000010AD8A402D000010CD0C2510CE00F0B35
:102C5000C45D01E010E2C2BF0ED0C2BD04D0200EA0
:102C600003D00501C26B300E002600C5E7F5000158
:102C70006BEC11F00501D892C9C5DFF5C8C5DEF5CA
:102C8000C7C5DDF5C6C5DCF5E36BE26BE16B0A0E8B
:102C9000E06F00017BDD03C5C9F502C5C8F501C5BC
:102CA000C7F500C5C6F50501C42FAED700015BEF1F
:102CB00017F00E0E0501B825E96E000EB921EA6E77
:102CC000EFC4BAF54E0EF66E130EF76E000EF86EE8
:102CD000050EDE6F0001A3EC11F0BAC5DEF51B0E88
:102CE0000501DF6F000134EC12F00F0E0501B8256D
:102CF000E96E000EB921EA6EECC4BBF5ED52EFC4EB
:102D0000BAF5560EF66E130EF76E000EF86E060E3E
:102D1000DE6F0001A3EC11F0100EE96EBBC5DFF50C
:102D2000BAC5DEF5BBEC11F00501B8C5E9F4B9C5CB
:102D3000EAF4EFC4BAF5600EF66E130EF76E000EED
:102D4000F86E060EDE6F0001A3EC11F0BAC5DEF5D9
:102D50001B0E0501DF6F000134EC12F0010E0501BE
:102D6000B825E96E000EB921EA6EEFC4BAF56A0E15
:102D7000F66E130EF76E000EF86E060EDE6F000193
:102D8000A3EC11F0BAC5DEF51B0E0501DF6F0001E3
:102D900034EC12F0110E0501B825E96E000EB921D0
:102DA000EA6EEFC4BAF5740EF66E130EF76E000EEF
:102DB000F86E060EDE6F0001A3EC11F0BAC5DEF569
:102DC0001B0E0501DF6F000134EC12F0020E05014D
:102DD000B825E96E000EB921EA6EEFC4BAF5ECC46D
:102DE000BBF5ECC4BCF5ECC4BDF57E0EF66E130E5F
:102DF000F76E000EF86E060EDE6F0001A3EC11F008
:102E0000410EE96EBDC5C1F5BCC5C0F5BBC5BFF57A
:102E1000BAC5BEF505D50A0E0501B825E96E000E46
:102E2000B921EA6EEFC4BAF5ECC4BBF5ECC4BCF54D
:102E3000ECC4BDF5880EF66E130EF76E000EF86E3C
:102E4000060EDE6F0001A3EC11F0BDC5C1F5BCC5D7
:102E5000C0F5BBC5BFF5BAC5BEF50501C56BC46BF2
:102E6000020EC36F010EC26F000165D5060E05018B
:102E7000B825E96E000EB921EA6EEFC4BAF5ECC4CC
:102E8000BBF5ECC4BCF5ECC4BDF5960EF66E130EA6
:102E9000F76E000EF86E060EDE6F0001A3EC11F067
:102EA000410EE96EBDC5C1F5BCC5C0F5BBC5BFF5DA
:102EB000BAC5BEF59DD61200EAC4C9F5E9C4C8F585
:102EC0000501C2AF08D0C88FC8A9C82BC11FC21F37
:102ED000C12BD8B4C22BC239F009C46FC427E20F8A
:102EE000C56F320FC76FC2510F0BC527C527C72744
:102EF000E90FC66FC627C627C1390F0BC627C727DC
:102F0000C637C737C71FC737C1510F0BC727C437CD
:102F1000070EC36F0A0EC607C727FDE3C507C627FE
:102F2000FDE3C407C527FDE3C307C427FDE3050E82
:102F3000EA6EC30EE96E070EC815C89DED52C8159E
:102F400007E1C8B9EE52C8B903D0200E006E21D0F7
:102F5000E926000EEA22E950C70804E1EA50050814
:102F600001E1C88DEF50006E08E1C8BD06D0C8B9B8
:102F70001ED0C8B702D0200E0BD0C8AF06D02D0E81
:102F8000006EED50C89DC89F04D0C887C899300E08
:102F90000026EAC4C2F5E9C4C1F500C5E7F50001A1
:102FA0006BEC11F0C2C5EAF4C1C5E9F40501EE50BD
:102FB000C8ADD1D700011200170E0501BA25E96E80
:102FC000000EBB21EA6EEFC4BFF5A00EF66E130E25
:102FD000F76E000EF86E040EDE6F0001A3EC11F028
:102FE000BFC5DEF51B0E0501DF6F000134EC12F0EA
:102FF000100E0501BA25E96E000EBB21EA6EEFC482
:10300000BFF5A80EF66E130EF76E000EF86E060EE4
:10301000DE6F0001A3EC11F0BFC5DEF51B0E05014C
:10302000DF6F000134EC12F0110E0501BA25E96ED4
:10303000000EBB21EA6EECC4C0F5ED52EFC4BFF543
:10304000B20EF66E130EF76E000EF86E060EDE6F01
:103050000001A3EC11F0100EE96EC0C5DFF5BFC58D
:10306000DEF5BBEC11F0130E0501BA25E96E000E7A
:10307000BB21EA6EECC4C0F5ED52EFC4BFF5BC0E47
:10308000F66E130EF76E000EF86E060EDE6F000180
:10309000A3EC11F0100EE96EC0C5C2F5BFC5C1F5B5
:1030A0000BDF150E0501BA25E96E000EBB21EA6E95
:1030B000ECC4C0F5ED52EFC4BFF5C60EF66E130EAC
:1030C000F76E000EF86E060EDE6F0001A3EC11F035
:1030D000100EE96EC0C5DFF5BFC5DEF5BBEC11F023
:1030E000D00EF66E130EF76E000EF86E73EC11F044
:1030F0000501BC6BBC510108D8A0B2D0DF6BBCC5C8
:10310000DEF5E16B080EE06F0001F2EC0DF002C598
:1031100003F501500501BA25016EBB51032201C51B
:10312000BDF503C5BEF5BC5306E02C0EE76F0001EC
:103130006BEC11F005017B0EE76F00016BEC11F0F9
:10314000D80EF66E130EF76E000EF86E050E050122
:10315000DE6F0001A3EC11F0BCC5DEF51B0E05010E
:10316000DF6F000134EC12F0040E0501BD25E96E9D
:10317000000EBE21EA6EEFC4BFF5E00EF66E130E30
:10318000F76E000EF86E060EDE6F0001A3EC11F074
:10319000BFC5DEF51B0E0501DF6F000134EC12F038
:1031A000050E0501BD25E96E000EBE21EA6EEFC4D5
:1031B000BFF5EA0EF66E130EF76E000EF86E060EF1
:1031C000DE6F0001A3EC11F0BFC5DEF51B0E05019B
:1031D000DF6F000134EC12F00501BDC5E9F4BEC596
:1031E000EAF4ECC4C0F5ED52EFC4BFF5F40EF66E90
:1031F000130EF76E000EF86E060EDE6F0001A3ECE4
:1032000011F0100EE96EC0C5DFF5BFC5DEF5BBECF1
:1032100011F0020E0501BD25E96E000EBE21EA6E19
:10322000ECC4C0F5ED52EFC4BFF5FE0EF66E130E02
:10323000F76E000EF86E060EDE6F0001A3EC11F0C3
:10324000100EE96EC0C5C2F5BFC5C1F535DE7D0EF5
:103250000501E76F00016BEC11F00501BC2B4AD7AB
:103260005D0EE76F00016BEC11F01200000E05011E
:103270006FBD010E016E0152D8A4BFD0000146EC13
:1032800011F002C5B9F501C5B8F50501B853D8A4C8
:10329000B4D0B953D8A4B1D07B0EE76F00016BEC6A
:1032A00011F0040EF66E150EF76E000EF86E73EC4C
:1032B00011F0100E0501BA6F6E0EB96F000172ECBD
:1032C00012F07D0E0501E76F00016BEC11F01001AB
:1032D00099A11DD02C0E0501E76F00016BEC11F0D8
:1032E0000C0EF66E150EF76E000EF86E73EC11F004
:1032F000100E0501B96F710EB86F0001D7EC12F016
:103300007D0E0501E76F00016BEC11F0100199A330
:103310001CD02C0E0501E76F00016BEC11F0140EB0
:10332000F66E150EF76E000EF86E73EC11F0100EBF
:103330000501B96F860EB86F0001BBDC7D0E05017B
:10334000E76F00016BEC11F0100198534CE02C0E6C
:103350000501E76F00016BEC11F01C0EF66E150E07
:10336000F76E000EF86E73EC11F00501B76B1001EB
:1033700098510501B75D31E2B75306E02C0EE76FB7
:1033800000016BEC11F005017B0EE76F00016BECA7
:1033900011F00501DF6BB7C5DEF5E16B200EE06FC4
:1033A0000001F2EC0DF002C503F50150EE0F016EC5
:1033B0000E0E032201C5B8F503C5B9F503C5BBF56B
:1033C00001C5BAF50001F8DD7D0E0501E76F0001CA
:1033D0006BEC11F00501B72BCAD75D0EE76F00014A
:1033E0006BEC11F01001240EF66E150EF76E000E48
:1033F000F86E000173EC11F00501000159EF20F0A7
:10340000000E05016FBD010E016E01522BE100019E
:1034100046EC11F002C5B8F501C5B7F50501B75383
:1034200021E1B8531FE1280EF66E150EF76E000E5F
:10343000F86E000173EC11F0100199A109D0100E83
:103440000501B96F710EB86F0001D7EC12F01001D1
:10345000320EF66E150EF76E000EF86E000173EC6C
:1034600011F00501000160EF20F0000E05016FBDB5
:10347000010E016E015261E1000146EC11F002C53E
:10348000BAF501C5B9F50501B95357E1BA5355E18C
:103490007B0EE76F00016BEC11F00501B8531EE0E5
:1034A000380EF66E150EF76E000EF86E000173EC16
:1034B00011F0100E0501BA6F6E0EB96F000172ECBB
:1034C00012F07D0E0501E76F00016BEC11F02C0E80
:1034D0000501E76F00016BEC11F00501400EF66E7F
:1034E000150EF76E000EF86E000173EC11F010016E
:1034F000982D14D07B0E0501E76F00016BEC11F0E5
:103500000E0E0501BB6FEE0EBA6F000155DD7D0E8C
:103510000501E76F00016BEC11F010015D0E050174
:10352000E76F00016BEC11F0480EF66E150EF76EAA
:10353000000EF86E73EC11F0050100016EEF20F043
:10354000000E05016FBD010E016E01522BE100015D
:1035500046EC11F002C5B8F501C5B7F50501B75342
:1035600021E1B8531FE14C0EF66E150EF76E000EFA
:10357000F86E000173EC11F0100199A309D0100E40
:103580000501B96F860EB86F000159EC16F01001F5
:10359000560EF66E150EF76E000EF86E000173EC07
:1035A00011F00501000175EF20F00501BA91D890E6
:1035B000B835BB6F02019699010E8D6F0501BB51A5
:1035C000FE0B02018F6F0501D46B050ED66FB90E8D
:1035D000D56F000126EC0CF0015203E10501BA8120
:1035E0000001000E0501BAB1010E016E0001C3EF2A
:1035F00020F033C5EAF432C5E9F40501CAC5EFF499
:10360000E92AD8B4EA2AEF6A322AD8B4332A000168
:1036100012000501C9BF11D00F0E006EC839001687
:103620000A0E005C03E2300E002602D0C9510026CB
:1036300000C5CAF50001DDDF05010F0EC8170A0E2F
:10364000C85D02E2300E02D0C99FC951C827C8C563
:10365000CAF50001CEDF12005E50016E015069080C
:1036600010E1B7C5E7F56BEC11F00D0E0501E76F42
:1036700000016BEC11F00A0E0501E76F00016BEC25
:1036800011F01200050EEA6EC10EE96EEF5011E066
:10369000140E016EBF0E006E0400002EFDD7012E29
:1036A000F9D7BF0E006E002EFED700000400EF2EEB
:1036B000EFD712000501B76B6A51B75DD8B010D1D2
:1036C000DF6BB7C5DEF5E16B2A0EE06F0001F2ECAF
:1036D0000DF001C5C1F5020E05010124016E000EB9
:1036E0000220036E01501C0FE96E0C0E0320EA6EDF
:1036F000ECC4C2F5ED52EFC4C1F57251C15DD8A45E
:10370000EBD07351C25DD8A4E7D0DF6BB7C5DEF54F
:10371000E16B2A0EE06F0001F2EC0DF002C5C2F57C
:1037200001C5C1F5140E05010124016E000E022031
:10373000036E01501C0FE96E0C0E0320EA6EEFA021
:10374000CBD0020EC16F00019DDF0501DF6BB7C555
:10375000DEF5E16B2A0EE06F0001F2EC0DF001C521
:10376000C1F5010E05010124016E000E0220036E59
:1037700001501C0FE96E0C0E0320EA6EEFC4C2F577
:10378000230EC36F050EC56FB90EC46F050EC66F4D
:10379000C86FBE0EC76F00017BEC0CF00152D8B4AD
:1037A0009CD00501B86BBE51B85DD8B095D0036A06
:1037B000B851B90FE96E050E0320EA6EEFC4BFF5EC
:1037C000DF6BB7C5DEF5E16B2A0EE06F0001F2ECAE
:1037D0000DF002C5C2F501C5C1F5290E0501012490
:1037E000016E000E0220036E01501C0FE96E0C0EDC
:1037F0000320EA6EEF50120851E3DF6BB7C5DEF528
:10380000E16B2A0EE06F0001F2EC0DF002C5C2F58B
:1038100001C5C1F5150E0501C127000EC223DF6BDE
:10382000B7C5DEF5E16B2A0EE06F0001F2EC0DF09A
:1038300001C5C3F5290E05010124016E000E022009
:10384000036E01501C0FE96E0C0E0320EA6EEF5060
:10385000C125016E000EC221036E01501C0FE96EDE
:103860000C0E0320EA6EBFC5EFF4DF6BB7C5DEF5C3
:10387000E16B2A0EE06F0001F2EC0DF001C5C1F51D
:10388000290E05010124016E000E0220036E015075
:103890001C0FE96E0C0E0320EA6EEF2ABF510A08D6
:1038A00019E1DF6BB7C5DEF5E16B2A0EE06F0001B1
:1038B000F2EC0DF001C5C1F5140E05010124016EF5
:1038C000000E0220036E01501C0FE96E0C0E032047
:1038D000EA6EEF90B82B67D700010501B72BECD645
:1038E000B76B6A51B75D44E2DF6BB7C5DEF5E16BDC
:1038F0002A0EE06F0001F2EC0DF001C5C1F5020ED9
:1039000005010124016E000E0220036E01501C0F00
:10391000E96E0C0E0320EA6EECC4C2F5ED52EFC462
:10392000C1F57251C15D22E17351C25D1FE1DF6BD0
:10393000B7C5DEF5E16B2A0EE06F0001F2EC0DF089
:1039400002C5C2F501C5C1F5140E05010124016EC1
:10395000000E0220036E01501C0FE96E0C0E0320B6
:10396000EA6EEFA003D0000E016E66D0B72BB9D778
:10397000C091B76B6A51B75D58E2DF6BB7C5DEF532
:10398000E16B2A0EE06F0001F2EC0DF001C5C1F50C
:10399000020E05010124016E000E0220036E01508B
:1039A0001C0FE96E0C0E0320EA6EECC4C2F5ED525A
:1039B000EFC4C1F57251C15D36E17351C25D33E1AF
:1039C000DF6BB7C5DEF5E16B2A0EE06F0001F2ECAC
:1039D0000DF002C5C2F501C5C1F5150E0501C127DF
:1039E000000EC2231C0EC125E96E0C0EC221EA6E28
:1039F000EF502B0A000107E0750A09E0630A0CE0AA
:103A0000100A0DE00CD00501C0810DD000015E0E42
:103A1000016E050111D00001050105D000012D0E38
:103A2000016E050109D0B72BA5D7C0A103D02B0E7D
:103A3000016E02D03D0E016E0001A5EF21F0D1EC28
:103A400010F002C576F501C575F5DEEC10F002C583
:103A500078F501C577F5EBEC10F002C57AF501C5F4
:103A600079F5F8EC10F002C57CF501C57BF5050190
:103A7000B0917151705D03E071C570F5B081010EB8
:103A8000705DF20FD8B0E9EF21F00E0F0001ECEFFE
:103A900021F005EC11F00150100807E105016C87D9
:103AA000020E716FE9EF21F000010501E9EF21F04D
:103AB000000105016FA305D06F930C0E716FE9EF44
:103AC00021F06CA705D06C97030E716FE9EF21F020
:103AD0006CAB05D06C9B050E716FE9EF21F06CADFE
:103AE00005D06C9D060E716FE9EF21F06CAF05D02B
:103AF0006C9F070E716FE9EF21F06CA905D06C99EE
:103B0000040E716FE9EF21F0E9EF21F0000105ECFF
:103B100011F0610005F46EF010016F91050176510E
:103B2000A80804E30BE17551BE0808E27651CD0800
:103B300008E2FF0A03E175513F0803E210016F81BB
:103B4000050110016F9305017851540804E30BE15E
:103B500077515F0808E27851660808E2FF0A03E13E
:103B60007751200803E210016F83050110016F9562
:103B700005017A51270804E30BE17951B40808E202
:103B80007A512A0808E2FF0A03E17951E30803E2C7
:103B900010016F85050110016F9705017C51270801
:103BA00004E30BE17B51B40808E27C512A0808E2E7
:103BB000FF0A03E17B51E30803E210016F8705016F
:103BC00026A006D010016F916F936F956F97050136
:103BD00026A206D010016F816F836F856F87050164
:103BE000B16B6A51B15D2AE2DF6BB1C5DEF5E16B05
:103BF0002A0EE06F0001F2EC0DF002C5B8F501C528
:103C0000B7F5010E05010124016E000E0220036EBE
:103C100001501C0FE96E0C0E0320EA6EEFC4CCF5C8
:103C2000330ECD6F100ECF6F6E0ECE6F030ED06FB2
:103C300000010AEC11F00501B12BD3D76C95C80E29
:103C40006D6F6C976C85020E716FE9EF21F00001CA
:103C50001001986B999199930501B16B6A51B15D0F
:103C6000D8B03ED1DF6BB1C5DEF5E16B2A0EE06F57
:103C70000001F2EC0DF002C5B8F501C5B7F5040E70
:103C80000501B727000EB8231C0EB725E96E0C0EF0
:103C9000B821EA6EEF50100A00010BE0010A09E0BA
:103CA000030A07E0130AD8B4ABD0030AD8B4DFD0B4
:103CB00014D1100198510B08D8A09FD00501B86B02
:103CC000640060F2B7F5B735026EB835036E0236A0
:103CD0000336023603360236033602360336E00E6A
:103CE00002160250EE0F016E0E0E032201C5B5F54D
:103CF00003C5B6F5DF6BB1C5DEF5E16B2A0EE06FEB
:103D00000001F2EC0DF001C5B7F5010E050101242B
:103D1000016E000E0220036E01501C0FE96E0C0EA6
:103D20000320EA6EEFC4C2F5B5C501F5B6C503F5CB
:103D3000B5C5B8F5B6C5B9F5320EC36FB6C5C5F58C
:103D4000B5C5C4F5170EC66F050EC86FB30EC76FA5
:103D500000017BEC0CF0015252E00501B351170851
:103D60004DE1170EB525016E000EB621036E01C59B
:103D7000B7F5B86FDF6BB1C5DEF5E16B2A0EE06F0A
:103D80000001F2EC0DF01C0E05010124E96E0C0E91
:103D90000220EA6EEFC4BBF5B8C5EAF4B7C5E9F492
:103DA000BBC5EFF4180EB525016E000EB621036EEB
:103DB00001C5B7F5B86FDF6BB1C5DEF5E16B2A0E53
:103DC000E06F0001F2EC0DF002C5BAF501C5B9F5DE
:103DD000040E0501B927000EBA231C0EB925E96EA1
:103DE0000C0EBA21EA6EEFC4BBF5B8C5EAF4B7C54C
:103DF000E9F4BBC5EFF41001982B050100016DD06B
:103E00000501DF6BB1C5DEF5E16B2A0EE06F000145
:103E1000F2EC0DF002C5B8F501C5B7F5010E0501CC
:103E20000124016E000E0220036E01501C0FE96E8A
:103E30000C0E0320EA6EEFC4C2F5320EC36F100EF3
:103E4000C56F710EC46F150EC66F050EC86FB30E29
:103E5000C76F00017BEC0CF0015208E00501B35183
:103E6000150803E1100199810501000136D0050113
:103E7000DF6BB1C5DEF5E16B2A0EE06F0001F2ECFD
:103E80000DF002C5B8F501C5B7F5010E0501012415
:103E9000016E000E0220036E01501C0FE96E0C0E25
:103EA0000320EA6EEFC4C2F5320EC36F100EC56F69
:103EB000860EC46F120EC66F050EC86FB30EC76FA5
:103EC00000017BEC0CF0015208E00501B35112082F
:103ED00003E110019983050100010501B12BBED654
:103EE000080E716F76D20001100199910501DF6B08
:103EF0006EC5DEF5E16B2A0EE06F0001F2EC0DF00D
:103F000002C5B8F501C5B7F5010E05010124016E22
:103F1000000E0220036E01501C0FE96E0C0E0320F0
:103F2000EA6EEFC4C2F5320EC36F100EC56F710E8C
:103F3000C46F150EC66F050EC86FB30EC76F0001B4
:103F40007BEC0CF0015208E00501B351150803E1C8
:103F50001001998105010001090E0501716F39D227
:103F600000011001986B0501DF6B6EC5DEF5E16B9A
:103F70002A0EE06F0001F2EC0DF002C5B8F501C5A4
:103F8000B7F5010E05010124016E000E0220036E3B
:103F900001501C0FE96E0C0E0320EA6EEFC4C2F54F
:103FA000320EC36F0E0EC56FEE0EC46F170EC66FC6
:103FB000050EC86FB30EC76F00017BEC0CF0015209
:103FC00034E00501B35117082FE1DF6B6EC5DEF554
:103FD000E16B2A0EE06F0001F2EC0DF01C0E050102
:103FE0000124E96E0C0E0220EA6EEFC405FFDF6BC0
:103FF0006EC5DEF5E16B2A0EE06F0001F2EC0DF00C
:1040000002C5B8F501C5B7F5040E0501B727000EC6
:10401000B8231C0EB725E96E0C0EB821EA6EEFC46A
:1040200006FF1001982B050100010A0E0501716FB2
:10403000D0D10001100199930501DF6B6EC5DEF54B
:10404000E16B2A0EE06F0001F2EC0DF002C5B8F54D
:1040500001C5B7F5010E05010124016E000E022015
:10406000036E01501C0FE96E0C0E0320EA6EEFC4C4
:10407000C2F5320EC36F100EC56F860EC46F120EDE
:10408000C66F050EC86FB30EC76F00017BEC0CF056
:10409000015208E00501B351120803E110019983B0
:1040A000050100010B0E0501716F93D1000136EF80
:1040B00019F0020E0501716F8CD1000100EF1AF0AA
:1040C000020E0501716F85D10001000E05016FB16F
:1040D000010EB76FB86F000135EF1AF0020E05013F
:1040E000716F77D10001A0EF1AF0020E0501716F18
:1040F00070D100010501B0A17DD0B16B6A51B15DF5
:1041000045E2DF6BB1C5DEF5E16B2A0EE06F000121
:10411000F2EC0DF001C5B7F5020E05010124016EA8
:10412000000E0220036E01501C0FE96E0C0E0320DE
:10413000EA6EECC4B8F5ED52EFC4B7F57251B75D55
:1041400023E17351B85D20E1DF6BB1C5DEF5E16BB2
:104150002A0EE06F0001F2EC0DF001C5B7F5010E7B
:1041600005010124016E000E0220036E01501C0F98
:10417000E96E0C0E0320EA6EEFC4B8F5210EB96F9C
:104180000001D5EF1AF00501B12BB8D70E0E336E32
:10419000BC0E326E500ECA6F0001F9EC1AF04B0ED5
:1041A0000501CA6F0001F9EC1AF073C5C8F5370EA6
:1041B0000501C96F000109EC1BF072C5C8F5370E87
:1041C0000501C96F000109EC1BF00D0E0501CA6F56
:1041D0000001F9EC1AF00A0E0501CA6F0001F9ECB2
:1041E0001AF0080E0501746F6F856C910A0E6B6FE3
:1041F0006C936C816CA303D00D0E716FEAD0E9D083
:10420000000105016FA589D07453D8B486D0B16B75
:104210006A51B15DD8B07FD0DF6BB1C5DEF5E16B1F
:104220002A0EE06F0001F2EC0DF001C5B7F5020EA9
:1042300005010124016E000E0220036E01501C0FC7
:10424000E96E0C0E0320EA6EECC4B8F5ED52EFC433
:10425000B7F57251B75D5DE17351B85D5AE1DF6B3F
:10426000B1C5DEF5E16B2A0EE06F0001F2EC0DF056
:1042700002C5B8F501C5B7F5010E05010124016EAF
:10428000000E0220036E01501C0FE96E0C0E03207D
:10429000EA6EEFC4CCF5220ECD6F0E0ECF6FBC0EC2
:1042A000CE6F74C5D0F500010AEC11F00501DF6B8B
:1042B000B1C5DEF5E16B2A0EE06F0001F2EC0DF006
:1042C00001C5B7F5140E05010124016E000E022090
:1042D000036E01501C0FE96E0C0E0320EA6EEF8096
:1042E000DF6BB1C5DEF5E16B2A0EE06F0001F2EC89
:1042F0000DF001C5B7F5290E05010124016E000E70
:104300000220036E01501C0FE96E0C0E0320EA6EB2
:10431000EF6AB12B7DD70E0E716F5BD000010501E6
:10432000B0A105D06C91C80E6B6F6C936C816CA3BF
:1043300009D02D0EB76F00012CEC1BF0020E050109
:10434000716F47D000015AEF1BF001C5B4F50501AC
:10435000B4512B0A000107E0750A12E0630A1CE061
:10436000100A27E032D02B0E0501B76F00012CECAC
:104370001BF005016F95746B0D0E716F000125D058
:104380005E0E0501B76F00012CEC1BF005016F9567
:104390000D0E716F000119D03D0E0501B76F0001C0
:1043A0002CEC1BF005016F95746B020E716F000110
:1043B0000CD02D0E0501B76F00012CEC1BF0050190
:1043C0006F95746B020E716F0001050102D0000140
:1043D00005010001CEEF47F0E824F76AF736F90F40
:1043E000F66E430EF722000EF86EFB6E0A00F550D3
:1043F000FA6E0800F550F96E923AB23A0E3B503C14
:10440000E83E623F3440AE40BC40CA40E640F44023
:1044100002421E43036A05019F510001DCEC00F0DB
:10442000016E0501B25D09E19F2B9F510E0804E169
:104430009F6B010E016E04D001D09F6B000E016EC8
:104440000001DCEF42F0C9C5CFF5C8C5CEF50501C6
:10445000CC5302E1CD5323E0CBC503F5CAC5E9F443
:10446000CBC5EAF4EF521BE0CFC5D1F5CE51CE2B30
:10447000D8B4CF2BD06FCBC5EAF4CA51CA2BD8B46D
:10448000CB2BE96EEFC4D2F5D1C5EAF4D0C5E9F47F
:10449000D2C5EFF4CC51D8B4CD07CC07D9D7CC5383
:1044A00002E1CD530DE0CFC5EAF4CE51CE2BD8B406
:1044B000CF2BE96EEF6ACC51D8B4CD07CC07EFD73C
:1044C000C8C501F5C9C502F500015EEF34F0EAC4C4
:1044D000DBF5E9C4DAF50501D439F009D66FD62742
:1044E000E20FD76F320FD96FD4510F0BD727D727D1
:1044F000D927E90FD86FD827D827D3390F0BD8275A
:10450000D927D837D937D91FD937D3510F0BD92746
:10451000D637070ED56F0A0ED807D927FDE3D70780
:10452000D827FDE3D607D727FDE3D507D627FDE338
:10453000050EEA6ED50EE96E070EDA15DA9DE9264C
:10454000000EEA22E950D90804E1EA50050801E129
:10455000DA8DEF50006E08E1DABD06D0DAB916D078
:10456000DAB702D0200E03D0DA87DA99300E0026AF
:10457000EAC4D4F5E9C4D3F500C5DCF50001BAEC12
:104580000DF0D4C5EAF4D3C5E9F40501EE50DAAD77
:10459000D9D700011200DC0EF66E010EF76E000E88
:1045A000F86EDEEC0DF0100EE96E30C5D4F52FC5B7
:1045B000D3F58DDF6D0E0501DC6F0001BAEC0DF057
:1045C000410E0501DC6F0001BAEC0DF00A0E050189
:1045D000DC6F0001BAEC0DF012002A0E0501DC6F51
:1045E0000001BAEC0DF0200E0501DC6F0001BAEC01
:1045F0000DF0000EF66E020EF76E000EF86EDEEC99
:104600000DF00A0E0501DC6F0001BAEC0DF012008E
:104610000501DF512F0807E2DF51390804E3300EAE
:10462000DF5DE26F03D0000E016E08D0E0C5E9F453
:10463000E1C5EAF4E2C5EFF4010E016E00011200DB
:104640000501DF512F0807E2DF51390804E3300E7E
:10465000DF5DE26F17D0DF51600807E2DF516608C7
:1046600004E3570EDF5DE26F0DD0DF51400807E233
:10467000DF51460804E3370EDF5DE26F03D0000E22
:10468000016E08D0E0C5E9F4E1C5EAF4E2C5EFF453
:10469000010E016E00011200D3C5DBF5D2C5DAF5BB
:1046A0000501DC91DD6BDAC5E9F4DBC5EAF4EFC4A2
:1046B000DEF5D8510A082EE1DE512B0809E1DA2B8C
:1046C000D8B4DB2BDAC5E9F4DBC5EAF4EFC4DEF5D8
:1046D000DEC5DFF5050EE16FD90EE06F000198DF52
:1046E000015201E115D00501DD510A0DF3C4DDF5DC
:1046F000D951DD27DC81DA2BD8B4DB2BDBC503F500
:10470000DAC5E9F4DBC5EAF4EFC4DEF5E1D7000170
:1047100024D00501D85110081FE1DEC5DFF5050ED4
:10472000E16FD90EE06F00018BDF015201E115D07E
:104730000501DD51100DF3C4DDF5D951DD27DC8114
:10474000DA2BD8B4DB2BDBC503F5DAC5E9F4DBC51E
:10475000EAF4EFC4DEF5E1D700010501DCA113D0D6
:10476000D4C5E9F4D5C5EAF4DDC5EFF4D6C5E9F45E
:10477000D7C5EAF4DBC5ECF4ED52DAC5EFF4010E6F
:10478000016E0CD00BD0D6C5E9F4D7C5EAF4D3C579
:10479000ECF4ED52D2C5EFF4000E016E00011200F0
:1047A0003E0E0501CC6F050ECE6FCA0ECD6F000117
:1047B0000AEC0CF001520EE0CAC5CCF5410E050121
:1047C000CD6FC9C5CFF5C8C5CEF5040ED06F0001B9
:1047D0000AEC11F01200D2C5D9F50501D651D91B4A
:1047E000D9AF05D0D894D890D2BFD8802FD0D2C519
:1047F000D9F5D5C5DAF5D151DA5F06E0D9AF26D0C3
:10480000D850010AD86E22D0D6C5DAF5D251DA5F77
:1048100006E0D9AF1BD0D850010AD86E17D0D7C543
:10482000DAF5D351DA5F06E0D9AF10D0D850010ADB
:10483000D86E0CD0D8C5DAF5D451DA5F06E0D9AF1E
:1048400005D0D850010AD86E01D0D89000011200CE
:10485000800ED8A202D00501D61B0501DB6BDC6BF4
:10486000D2C5DAF5D651DA1BD151D8B4DFD0D96F21
:10487000006ED551D8B4E3D0D95FD8B483D03EE32D
:10488000D6C5DFF5DF8FD7C5DEF5D8C5DDF5DC6B26
:10489000D890DF33DE33DD33DC33D92FF8D7DAAF0E
:1048A00003D0DB81E0D0DB91D991DB89050EEA6E84
:1048B000D40EE96EEBD0DB99DABF0AD0D9A113D0C0
:1048C000DF33DE33DD33DC33002AD8B4C7D00BD07E
:1048D000DFBF0CD0D890DC37DD37DE37DF3700069E
:1048E000D8B4BCD0F5D7DB8D6DD0DB9DD2C5DAF561
:1048F000D2AF02D0DF8FABD0DF9FA9D0D5C5D9F51D
:10490000D5C500F5D151D95FD2C5DFF5DF8FD3C54D
:10491000DEF5D4C5DDF5DC6BD890DF33DE33DD3377
:10492000DC33D92FF8D7DAAF03D0DB839CD0DB930D
:10493000D991DB8B050EEA6ED80EE96EA7D0DB9B12
:10494000DABF0AD0D9A113D0DF33DE33DD33DC3355
:10495000002AD8B483D00BD0DFBF0CD0D890DC377E
:10496000DD37DE37DF370006D8B478D0F5D7DB8FF8
:1049700029D0DB9FD6C5DAF5D6AF02D0DF8F67D05E
:10498000DF9F65D0D6C5DFF5DF8FD7C5DEF5D8C58B
:10499000DDF5DAAF04D0DF9FDB8565D0DB95DC6B1E
:1049A000D991050EEA6ED40EE96E70D0DABF1CD034
:1049B000D2C5DAF5D9A106D0DF33DE33DD33DC33FF
:1049C000002A4CE0DCAF0BD0DD2B09E1DE2B07E148
:1049D000DF2B05E1DF33DE33DD33002A3FE0DBBDD3
:1049E00084D7DBBFC6D71CD0800EDF1BDFAF04D05F
:1049F0003AD0D6C5DAF50AD0D2C5DAF5DF5306E1EA
:104A0000DE5304E1DD5302E1006A21D0DFBF08D0AC
:104A1000D890DC37DD37DE37DF37002EF7D71ED0F2
:104A2000DAAF02D0DF8F13D0DF9F11D0D5C500F5EC
:104A3000D6C5DFF5D7C5DEF5D8C5DDF508D0D1C5BB
:104A400000F5D2C5DFF5D3C5DEF5D4C5DDF5DFC58C
:104A500001F5DEC502F5DDC503F534D0006A016A53
:104A6000026A036A2FD0DC6BDD1FDE1FDF1FDC1F35
:104A7000DC2B05E1DD2B03E1DE2B01E1DF2BDBB1DC
:104A800012D7DBB354D7DBB589D7B3D7EF50DD27C7
:104A900005E3DE2B03E1DF2BD8B4D981ED52EF50D3
:104AA000DE2703E3DF2BD8B4D981ED52EF50EFBE00
:104AB00001D0800ADF27D8B0D981DBB9FCD6DBBBB7
:104AC0003ED774D7000112008E0E006E0501D15141
:104AD000005ED2C502F5D3C501F5028E005209E091
:104AE000D890025202E1015204E002320132002E5B
:104AF000F7D7D2AF05D0011E021E012AD8B4022A70
:104B000000011200000E0501CCAF010E016E015232
:104B100037E0D46BD3697F0ED26F8E0ED16FCEC5C6
:104B2000D8F5CDC5D7F5CCC5D6F5CBC5D5F50001A3
:104B300052DE01E205E10501D069CF6920D0000114
:104B4000D892CEC5D4F5CDC5D3F5CCC5D2F5CBC55D
:104B5000D1F50501D86BD76BD66B7E0ED56F0001F2
:104B600077DE03C5D4F502C5D3F501C5D2F500C57E
:104B7000D1F5AADF02C5D0F501C5CFF5050102D0F8
:104B8000D06BCF6BCFC501F5D0C502F50001120087
:104B90000900F6C4D4F5F7C4D5F5F8C4D6F5F5C4C4
:104BA000DCF5BAEC0DF0D4C5F6F4D5C5F7F4D6C5EE
:104BB000F8F40501D32F01D002D00001E9D700019C
:104BC00012000501CF51CD5D03E1D051CE5D37E03C
:104BD000580EF66E0B0EF76E000EF86E0E0ED36FBB
:104BE0000001D6DF100EE96ED2C5D4F5D1C5D3F5DC
:104BF0006EDC690EF66E0B0EF76E000EF86E070E89
:104C00000501D36F0001C4DF100EE96ECEC5D4F5E7
:104C1000CDC5D3F55CDC730EF66E0B0EF76E000E91
:104C2000F86E050E0501D36F0001B2DF100EE96EBC
:104C3000D0C5D4F5CFC5D3F54ADC5D8005010001B0
:104C400012005D90A00EF66E0B0EF76E000EF86E61
:104C5000DEEC0DF00501CE6BCD6BCC6BCB6B0001A8
:104C600051DF02C5CCF501C5CBF50501CE6BCD6B8F
:104C700002C5D0F501C5CFF5D26B9E0ED16F0001F4
:104C8000A0DF9C0E0501CE6F400ECD6F1C0ECC6FC9
:104C90008C0ECB6F000136DF02C5CCF501C5CBF51C
:104CA000270E0501CE6F100ECD6F02C5D0F501C5E0
:104CB000CFF5D26B9F0ED16F000183DFC30E0501CC
:104CC000CE6F500ECD6F430ECC6F8E0ECB6F0001AA
:104CD00019DF02C5CCF501C5CBF5C30E0501CE6FBA
:104CE000510ECD6F02C5D0F501C5CFF5D26BA00E28
:104CF000D16F000166DF0501CE6BCD6BCC6B8F0EE3
:104D0000CB6F0001FFDE02C5CCF501C5CBF5050177
:104D1000CE69CD6902C5D0F501C5CFF5D26BA10E24
:104D2000D16F00014EDF0501CE6BCD6BD06BCF6B29
:104D3000D26BA20ED16F000144DF270E0501CE6FAA
:104D4000100ECD6F270ED06F100ECF6FD26BA30E4B
:104D5000D16F000136DFC30E0501CE6F4F0ECD6F50
:104D6000C30ED06F4F0ECF6FD26BA40ED16F000168
:104D700028DFFD0E0501CE6FE70ECD6FFD0ED06F63
:104D8000E70ECF6FD26BA50ED16F00011ADF0501C0
:104D9000CE6BCD6BCC6BCB6B0001B4DE02C5CCF51A
:104DA00001C5CBF50501CE6BCD6B02C5D0F501C5B4
:104DB000CFF5D26BA70ED16F000103DF9C0E05016A
:104DC000CE6F400ECD6F1C0ECC6F8C0ECB6F0001E2
:104DD00099DE02C5CCF501C5CBF5270E0501CE6FD6
:104DE000100ECD6F02C5D0F501C5CFF5D26BA80E60
:104DF000D16F0001E6DEC30E0501CE6F500ECD6F00
:104E0000430ECC6F8E0ECB6F00017CDE02C5CCF55D
:104E100001C5CBF5C30E0501CE6F510ECD6F02C596
:104E2000D0F501C5CFF5D26BA90ED16F0001C9DE57
:104E30000501CE6BCD6BCC6B8F0ECB6F000162DEAC
:104E400002C5CCF501C5CBF50501CE69CD6902C51A
:104E5000D0F501C5CFF5D26BAA0ED16F0001B1DE3E
:104E60000501CE6BCD6BD06BCF6BD26BAB0ED16F20
:104E70000001A7DE270E0501CE6F100ECD6F270EA5
:104E8000D06F100ECF6FD26BAC0ED16F000199DED8
:104E9000C30E0501CE6F4F0ECD6FC30ED06F4F0EF8
:104EA000CF6FD26BAD0ED16F00018BDEFD0E050111
:104EB000CE6FE70ECD6FFD0ED06FE70ECF6FD26BCA
:104EC000AE0ED16F00017DDE0501CE6BCD6BCC6BDC
:104ED000CB6B000117DE02C5CCF501C5CBF5050192
:104EE000CE6BCD6B02C5D0F501C5CFF5D26BB00E40
:104EF000D16F000166DE9C0E0501CE6F400ECD6FB6
:104F00001C0ECC6F8C0ECB6F0001FCDD02C5CCF506
:104F100001C5CBF5270E0501CE6F100ECD6F02C572
:104F2000D0F501C5CFF5D26BB10ED16F000149DECE
:104F3000C30E0501CE6F500ECD6F430ECC6F8E0E9B
:104F4000CB6F0001DFDD02C5CCF501C5CBF5C30E8B
:104F50000501CE6F510ECD6F02C5D0F501C5CFF55D
:104F6000D26BB20ED16F00012CDE0501CE6BCD6B82
:104F7000CC6B8F0ECB6F0001C5DD02C5CCF501C532
:104F8000CBF50501CE69CD6902C5D0F501C5CFF5D8
:104F9000D26BB30ED16F000114DE0501CE6BCD6B69
:104FA000D06BCF6BD26BB40ED16F00010ADE270E2F
:104FB0000501CE6F100ECD6F270ED06F100ECF6F84
:104FC000D26BB50ED16F0001FCDDC30E0501CE6FB3
:104FD0004F0ECD6FC30ED06F4F0ECF6FD26BB60E8C
:104FE000D16F0001EEDDFD0E0501CE6FE70ECD6F36
:104FF000FD0ED06FE70ECF6FD26BB70ED16F0001F1
:10500000E0DD0501CE6BCD6BCC6BCB6B00017ADDA7
:1050100002C5CCF501C5CBF50501CE6BCD6B02C544
:10502000D0F501C5CFF5D26BB90ED16F0001C9DD46
:105030009C0E0501CE6F400ECD6F1C0ECC6F8C0EFA
:10504000CB6F00015FDD02C5CCF501C5CBF5270EA6
:105050000501CE6F100ECD6F02C5D0F501C5CFF59D
:10506000D26BBA0ED16F0001ACDDC30E0501CE6F5D
:10507000500ECD6F430ECC6F8E0ECB6F000142DD14
:1050800002C5CCF501C5CBF5C30E0501CE6F510E9F
:10509000CD6F02C5D0F501C5CFF5D26BBB0ED16F78
:1050A00000018FDD0501CE6BCD6BCC6B8F0ECB6F0E
:1050B000000128DD02C5CCF501C5CBF50501CE699F
:1050C000CD6902C5D0F501C5CFF5D26BBC0ED16F4D
:1050D000000177DD0501CE6BCD6BD06BCF6BD26B52
:1050E000BD0ED16F00016DDD270E0501CE6F100ED4
:1050F000CD6F270ED06F100ECF6FD26BBE0ED16F5B
:1051000000015FDDC30E0501CE6F4F0ECD6FC30EE4
:10511000D06F4F0ECF6FD26BBF0ED16F000151DD3C
:10512000FD0E0501CE6FE70ECD6FFD0ED06FE70EC1
:10513000CF6FD26BC00ED16F000143DD5DB008D0E0
:10514000AA0EF66E0B0EF76E000EF86EDEEC0DF08A
:105150000A0E0501DC6F0001BAEC0DF068EF2AF0D1
:105160000501D1BF12D00F0E006ED03900160A0E05
:10517000005C03E2300E002602D0D151002600C5AB
:10518000DCF50001BAEC0DF005010F0ED0170A0E88
:10519000D05D02E2300E02D0D19FD151D027D0C5D0
:1051A000DCF50001BAEC0DF012008E0E006ECCC5DD
:1051B00001F5CBC502F5036A015209E102C501F50B
:1051C000026A080E005E015202E1006A08D0D8901F
:1051D00001BE04D0023601360006F9D7019E120046
:1051E0000501DC51D8B471D0006EE051D8B46DD057
:1051F000002604E3810E002668E204D07F0E005EE4
:1052000064E363E0DDC5E4F5E151E41BDD8FE18F8C
:10521000DF51E303F4C4E6F5DE51E203F4C403F521
:10522000F3C4E5F5E303F350E627F450E523000E5D
:105230000322DF51E203F350E627F450E523000E8A
:10524000026A03220222DD51E303F350E527F45002
:105250000322000E0222DD51E203F3500326F45034
:105260000222000E016A0122DF51E103F350E5271B
:10527000F4500322000E02220122DE51E103F3501A
:105280000326F4500222000E0122DD51E103F35007
:105290000226F4500122002A01BE05D0E53703366C
:1052A000023601360006000EE5AF0AD0032A0222BC
:1052B0000122015005E1025003E1035001E1002AFF
:1052C000E4BF018EE4AF019E04D0006A016A026A65
:1052D000036A000112000501DC51B608DC6F036AA5
:1052E000DDC5E0F5DD8FD890DD33DE33DF3303320B
:1052F000023201320032DC2FF6D7E0AF0BD0001EB5
:10530000011E021E031E002AD8B4012AD8B4022AA4
:10531000D8B4032A0001B8EF29F0E9500501D46F91
:10532000D351D66F1BE0D2C5DFF5D1C5DEF5D0C5B0
:10533000DDF5CFC5DCF5E36BE26B200EE16F820E8D
:10534000E06F00014DDF03C5D2F502C5D1F501C5FF
:10535000D0F500C5CFF50501D62FE5D7D2C5DFF5CD
:10536000D1C5DEF5D0C5DDF5CFC5DCF50001B3D77D
:1053700003C5D2F502C5D1F501C5D0F500C5CFF5FD
:105380000501D2AF0DD0D407D48BCF1FD01FD11FB2
:10539000D21FCF2BD8B4D02BD8B4D12BD8B4D22B8A
:1053A0003B0EDB6F9A0EDA6FCA0ED96FD86B0A0EFE
:1053B000D66FD351D8B4D42BD882050EEA6ECF0E57
:1053C000E96ED2C5DFF5D1C5DEF5D0C5DDF5CFC5B7
:1053D000DCF5DBC5E3F5DAC5E2F5D9C5E1F5D8C5FD
:1053E000E0F50001C6EC13F00150005213E1050195
:1053F000D329D65DD8A402D000010CD0D4510DE041
:105400000F0BD65D01E044E2D4BF42D0D4BD05D03D
:10541000200E37D0200E0501D417D4AB0FD0D49B6B
:10542000D351D8A4D4070050D46F2D0EDC6F0001E7
:10543000BAEC0DF00501D451006ED46BD351D65D9A
:105440000DE10050D46F2E0EDC6F0001BAEC0DF0B0
:105450000501D451006E200ED417000E300ED4ABCF
:1054600010D0D49BD351D8A4D4070050D46F2D0EA4
:10547000DC6F0001BAEC0DF00501D451006ED46B65
:10548000300E002600C5DCF50001BAEC0DF0050178
:10549000D892DBC5DFF5DAC5DEF5D9C5DDF5D8C5AF
:1054A000DCF5E36BE26BE16B0A0EE06F0001C6EC2A
:1054B00013F003C5DBF502C5DAF501C5D9F500C562
:1054C000D8F50501D62F78D70001120021EF26F07C
:1054D000D1EC10F002C5CAF501C5C9F5B40EF66EDF
:1054E0000B0EF76E000EF86EDEEC0DF0200E0501CF
:1054F000DC6F0001BAEC0DF0240E0501DC6F000139
:10550000BAEC0DF0CAC5D0F5370E0501D16F000118
:1055100027DEC9C5D0F5370E0501D16F000120DEA9
:10552000CAC5CCF5C9C5CBF540DE03C5CEF502C56D
:10553000CDF501C5CCF500C5CBF503C5DFF502C53A
:10554000DEF501C5DDF500C5DCF5800E0501E36F74
:10555000E26BE16B7B0EE06F000142DE03C5CEF52E
:1055600002C5CDF501C5CCF500C5CBF503C5DFF50A
:1055700002C5DEF501C5DDF500C5DCF56F0E0501E0
:10558000E36F120EE26F030EE16F750EE06F000124
:1055900027DE03C5CEF502C5CDF501C5CCF500C5A6
:1055A000CBF5200E0501DC6F0001BAEC0DF0040E06
:1055B000E96ECEC5D2F5CDC5D1F5CCC5D0F5CBC5FC
:1055C000CFF5030E0501D36F0001A7DE560E0501CE
:1055D000DC6F0001BAEC0DF0CAC5CCF5C9C5CBF53E
:1055E000E4DD03C5CEF502C5CDF501C5CCF500C59A
:1055F000CBF503C5DFF502C5DEF501C5DDF500C558
:10560000DCF5800E0501E36FE26BE16B7F0EE06F6E
:105610000001E6DD03C5CEF502C5CDF501C5CCF52B
:1056200000C5CBF503C5DFF502C5DEF501C5DDF527
:1056300000C5DCF56F0E0501E36F120EE26F030E7D
:10564000E16F750EE06F0001CBDD03C5CEF502C53D
:10565000CDF501C5CCF500C5CBF5200E0501DC6FFD
:105660000001BAEC0DF0050EE96ECEC5D2F5CDC540
:10567000D1F5CCC5D0F5CBC5CFF5030E0501D36F61
:1056800000014BDE560E0501DC6F0001BAEC0DF097
:105690000A0E0501DC6F0001BAEC0DF0DEEC10F033
:1056A00002C5CAF501C5C9F5C20EF66E0B0EF76E3E
:1056B000000EF86EDEEC0DF0200E0501DC6F00012F
:1056C000BAEC0DF0240E0501DC6F0001BAEC0DF010
:1056D000CAC5D0F5370E0501D16F000141DDC9C53E
:1056E000D0F5370E0501D16F00013ADDCAC5CCF502
:1056F000C9C5CBF55ADD03C5CEF502C5CDF501C54B
:10570000CCF500C5CBF503C5DFF502C5DEF501C557
:10571000DDF500C5DCF5800E0501E36FE26BE16BA2
:105720007B0EE06F00015CDD03C5CEF502C5CDF553
:1057300001C5CCF500C5CBF503C5DFF502C5DEF527
:1057400001C5DDF500C5DCF56F0E0501E36F120E36
:10575000E26F030EE16F750EE06F000141DD03C5DE
:10576000CEF502C5CDF501C5CCF500C5CBF5200EB3
:105770000501DC6F0001BAEC0DF0040EE96ECEC538
:10578000D2F5CDC5D1F5CCC5D0F5CBC5CFF5030E3F
:105790000501D36F0001C1DD560E0501DC6F00016C
:1057A000BAEC0DF0CAC5CCF5C9C5CBF5FEDC03C516
:1057B000CEF502C5CDF501C5CCF500C5CBF503C5C9
:1057C000DFF502C5DEF501C5DDF500C5DCF5800EAF
:1057D0000501E36FE26BE16B7F0EE06F000100DD1E
:1057E00003C5CEF502C5CDF501C5CCF500C5CBF599
:1057F00003C5DFF502C5DEF501C5DDF500C5DCF545
:105800006F0E0501E36F120EE26F030EE16F750E6E
:10581000E06F0001E5DC03C5CEF502C5CDF501C59D
:10582000CCF500C5CBF5200E0501DC6F0001BAEC0C
:105830000DF0050EE96ECEC5D2F5CDC5D1F5CCC5BE
:10584000D0F5CBC5CFF5030E0501D36F000165DDA3
:10585000560E0501DC6F0001BAEC0DF00A0E0501D1
:10586000DC6F0001BAEC0DF0EBEC10F002C5CAF5EC
:1058700001C5C9F5D00EF66E0B0EF76E000EF86E70
:10588000DEEC0DF0200E0501DC6F0001BAEC0DF02E
:10589000240E0501DC6F0001BAEC0DF0CAC5D0F58D
:1058A000370E0501D16F00015BDCC9C5D0F5370E9D
:1058B0000501D16F000154DCCAC5CCF5C9C5CBF5D3
:1058C00074DC03C5CEF502C5CDF501C5CCF500C528
:1058D000CBF503C5DFF502C5DEF501C5DDF500C575
:1058E000DCF5800E0501E36FE26BE16B7B0EE06F90
:1058F000000176DC03C5CEF502C5CDF501C5CCF5BA
:1059000000C5CBF503C5DFF502C5DEF501C5DDF544
:1059100000C5DCF56F0E0501E36F120EE26F030E9A
:10592000E16F750EE06F00015BDC03C5CEF502C5CB
:10593000CDF501C5CCF500C5CBF5200E0501DC6F1A
:105940000001BAEC0DF0040EE96ECEC5D2F5CDC55E
:10595000D1F5CCC5D0F5CBC5CFF5030E0501D36F7E
:105960000001DBDC560E0501DC6F0001BAEC0DF026
:10597000CAC5CCF5C9C5CBF518DC03C5CEF502C543
:10598000CDF501C5CCF500C5CBF503C5DFF502C5E6
:10599000DEF501C5DDF500C5DCF5800E0501E36F20
:1059A000E26BE16B7F0EE06F00011ADC03C5CEF500
:1059B00002C5CDF501C5CCF500C5CBF503C5DFF5B6
:1059C00002C5DEF501C5DDF500C5DCF56F0E05018C
:1059D000E36F120EE26F030EE16F750EE06F0001D0
:1059E000F0EC28F003C5CEF502C5CDF501C5CCF528
:1059F00000C5CBF5200E0501DC6F0001BAEC0DF0FF
:105A0000050EE96ECEC5D2F5CDC5D1F5CCC5D0F524
:105A1000CBC5CFF5030E0501D36F00017EDC560E1A
:105A20000501DC6F0001BAEC0DF00A0E0501DC6F18
:105A30000001BAEC0DF0F8EC10F002C5CAF501C592
:105A4000C9F5DE0EF66E0B0EF76E000EF86EDEEC8C
:105A50000DF0200E0501DC6F0001BAEC0DF0240EF4
:105A60000501DC6F0001BAEC0DF0CAC5D0F5370EA8
:105A70000501D16F0001B0EC28F0C9C5D0F5370E93
:105A80000501D16F0001B0EC28F0CAC5CCF5C9C53D
:105A9000CBF5D5EC28F003C5CEF502C5CDF501C593
:105AA000CCF500C5CBF503C5DFF502C5DEF501C5B4
:105AB000DDF500C5DCF5800E0501E36FE26BE16BFF
:105AC0007B0EE06F0001F0EC28F003C5CEF502C5B7
:105AD000CDF501C5CCF500C5CBF503C5DFF502C595
